{
  "_format": "hh-sol-artifact-1",
  "contractName": "TitleEscrowCloneable",
  "sourceName": "contracts/TitleEscrowCloneable.sol",
  "abi": [
    {
      "anonymous": false,
      "inputs": [
        {
          "indexed": true,
          "internalType": "address",
          "name": "previousHolder",
          "type": "address"
        },
        {
          "indexed": true,
          "internalType": "address",
          "name": "newHolder",
          "type": "address"
        }
      ],
      "name": "HolderChanged",
      "type": "event"
    },
    {
      "anonymous": false,
      "inputs": [
        {
          "indexed": true,
          "internalType": "address",
          "name": "_tokenRegistry",
          "type": "address"
        },
        {
          "indexed": true,
          "internalType": "address",
          "name": "_to",
          "type": "address"
        },
        {
          "indexed": true,
          "internalType": "uint256",
          "name": "_id",
          "type": "uint256"
        }
      ],
      "name": "TitleCeded",
      "type": "event"
    },
    {
      "anonymous": false,
      "inputs": [
        {
          "indexed": true,
          "internalType": "address",
          "name": "_tokenRegistry",
          "type": "address"
        },
        {
          "indexed": true,
          "internalType": "address",
          "name": "_from",
          "type": "address"
        },
        {
          "indexed": true,
          "internalType": "uint256",
          "name": "_id",
          "type": "uint256"
        }
      ],
      "name": "TitleReceived",
      "type": "event"
    },
    {
      "anonymous": false,
      "inputs": [
        {
          "indexed": true,
          "internalType": "uint256",
          "name": "_tokenid",
          "type": "uint256"
        },
        {
          "indexed": true,
          "internalType": "address",
          "name": "_from",
          "type": "address"
        },
        {
          "indexed": true,
          "internalType": "address",
          "name": "_to",
          "type": "address"
        }
      ],
      "name": "TransferOwnerApproval",
      "type": "event"
    },
    {
      "anonymous": false,
      "inputs": [
        {
          "indexed": true,
          "internalType": "address",
          "name": "newBeneficiary",
          "type": "address"
        },
        {
          "indexed": true,
          "internalType": "address",
          "name": "newHolder",
          "type": "address"
        }
      ],
      "name": "TransferTitleEscrowApproval",
      "type": "event"
    },
    {
      "inputs": [],
      "name": "_tokenId",
      "outputs": [
        {
          "internalType": "uint256",
          "name": "",
          "type": "uint256"
        }
      ],
      "stateMutability": "view",
      "type": "function"
    },
    {
      "inputs": [
        {
          "internalType": "address",
          "name": "newOwner",
          "type": "address"
        }
      ],
      "name": "approveNewOwner",
      "outputs": [],
      "stateMutability": "nonpayable",
      "type": "function"
    },
    {
      "inputs": [
        {
          "internalType": "address",
          "name": "newBeneficiary",
          "type": "address"
        },
        {
          "internalType": "address",
          "name": "newHolder",
          "type": "address"
        }
      ],
      "name": "approveNewTransferTargets",
      "outputs": [],
      "stateMutability": "nonpayable",
      "type": "function"
    },
    {
      "inputs": [],
      "name": "approvedBeneficiary",
      "outputs": [
        {
          "internalType": "address",
          "name": "",
          "type": "address"
        }
      ],
      "stateMutability": "view",
      "type": "function"
    },
    {
      "inputs": [],
      "name": "approvedHolder",
      "outputs": [
        {
          "internalType": "address",
          "name": "",
          "type": "address"
        }
      ],
      "stateMutability": "view",
      "type": "function"
    },
    {
      "inputs": [],
      "name": "approvedOwner",
      "outputs": [
        {
          "internalType": "address",
          "name": "",
          "type": "address"
        }
      ],
      "stateMutability": "view",
      "type": "function"
    },
    {
      "inputs": [],
      "name": "beneficiary",
      "outputs": [
        {
          "internalType": "address",
          "name": "",
          "type": "address"
        }
      ],
      "stateMutability": "view",
      "type": "function"
    },
    {
      "inputs": [
        {
          "internalType": "address",
          "name": "newHolder",
          "type": "address"
        }
      ],
      "name": "changeHolder",
      "outputs": [],
      "stateMutability": "nonpayable",
      "type": "function"
    },
    {
      "inputs": [],
      "name": "holder",
      "outputs": [
        {
          "internalType": "address",
          "name": "",
          "type": "address"
        }
      ],
      "stateMutability": "view",
      "type": "function"
    },
    {
      "inputs": [
        {
          "internalType": "address",
          "name": "_tokenRegistry",
          "type": "address"
        },
        {
          "internalType": "address",
          "name": "_beneficiary",
          "type": "address"
        },
        {
          "internalType": "address",
          "name": "_holder",
          "type": "address"
        },
        {
          "internalType": "address",
          "name": "_titleEscrowFactoryAddress",
          "type": "address"
        }
      ],
      "name": "initialize",
      "outputs": [],
      "stateMutability": "nonpayable",
      "type": "function"
    },
    {
      "inputs": [
        {
          "internalType": "address",
          "name": "operator",
          "type": "address"
        },
        {
          "internalType": "address",
          "name": "from",
          "type": "address"
        },
        {
          "internalType": "uint256",
          "name": "tokenId",
          "type": "uint256"
        },
        {
          "internalType": "bytes",
          "name": "data",
          "type": "bytes"
        }
      ],
      "name": "onERC721Received",
      "outputs": [
        {
          "internalType": "bytes4",
          "name": "",
          "type": "bytes4"
        }
      ],
      "stateMutability": "nonpayable",
      "type": "function"
    },
    {
      "inputs": [],
      "name": "status",
      "outputs": [
        {
          "internalType": "enum ITitleEscrow.StatusTypes",
          "name": "",
          "type": "uint8"
        }
      ],
      "stateMutability": "view",
      "type": "function"
    },
    {
      "inputs": [
        {
          "internalType": "bytes4",
          "name": "interfaceId",
          "type": "bytes4"
        }
      ],
      "name": "supportsInterface",
      "outputs": [
        {
          "internalType": "bool",
          "name": "",
          "type": "bool"
        }
      ],
      "stateMutability": "view",
      "type": "function"
    },
    {
      "inputs": [],
      "name": "surrender",
      "outputs": [],
      "stateMutability": "nonpayable",
      "type": "function"
    },
    {
      "inputs": [],
      "name": "titleEscrowFactory",
      "outputs": [
        {
          "internalType": "contract ITitleEscrowCreator",
          "name": "",
          "type": "address"
        }
      ],
      "stateMutability": "view",
      "type": "function"
    },
    {
      "inputs": [],
      "name": "tokenRegistry",
      "outputs": [
        {
          "internalType": "contract ERC721",
          "name": "",
          "type": "address"
        }
      ],
      "stateMutability": "view",
      "type": "function"
    },
    {
      "inputs": [
        {
          "internalType": "address",
          "name": "newBeneficiary",
          "type": "address"
        },
        {
          "internalType": "address",
          "name": "newHolder",
          "type": "address"
        }
      ],
      "name": "transferToNewEscrow",
      "outputs": [],
      "stateMutability": "nonpayable",
      "type": "function"
    }
  ],
  "bytecode": "0x608060405234801561001057600080fd5b506129b0806100206000396000f3fe608060405234801561001057600080fd5b506004361061010b5760003560e01c806338af3eed116100a2578063b71c47a211610071578063b71c47a214610296578063d4b56610146102a0578063e366ab30146102be578063e534155d146102da578063f8c8765e146102f85761010b565b806338af3eed146102225780635a87db751461024057806374bbb3501461025c5780639d23c4c7146102785761010b565b80631fe2b08a116100de5780631fe2b08a146101aa578063200d2ed2146101c857806324822514146101e6578063325689f9146102045761010b565b806301ffc9a71461011057806303f0736d146101405780630cb258b71461015c578063150b7a021461017a575b600080fd5b61012a60048036038101906101259190611d17565b610314565b6040516101379190611d5f565b60405180910390f35b61015a60048036038101906101559190611dd8565b61037e565b005b61016461064e565b6040516101719190611e14565b60405180910390f35b610194600480360381019061018f9190611eca565b610674565b6040516101a19190611f61565b60405180910390f35b6101b2610843565b6040516101bf9190611e14565b60405180910390f35b6101d0610869565b6040516101dd9190611ff3565b60405180910390f35b6101ee61087c565b6040516101fb919061201d565b60405180910390f35b61020c610882565b6040516102199190612097565b60405180910390f35b61022a6108a8565b6040516102379190611e14565b60405180910390f35b61025a60048036038101906102559190611dd8565b6108ce565b005b610276600480360381019061027191906120b2565b610ae7565b005b610280611044565b60405161028d9190612113565b60405180910390f35b61029e61106a565b005b6102a86112eb565b6040516102b59190611e14565b60405180910390f35b6102d860048036038101906102d391906120b2565b611311565b005b6102e26116dc565b6040516102ef9190611e14565b60405180910390f35b610312600480360381019061030d919061212e565b611702565b005b60007f1676e9e0000000000000000000000000000000000000000000000000000000007bffffffffffffffffffffffffffffffffffffffffffffffffffffffff1916827bffffffffffffffffffffffffffffffffffffffffffffffffffffffff1916149050919050565b6000600354036103c3576040517f08c379a00000000000000000000000000000000000000000000000000000000081526004016103ba90612218565b60405180910390fd5b600160028111156103d7576103d6611f7c565b5b600160149054906101000a900460ff1660028111156103f9576103f8611f7c565b5b14610439576040517f08c379a0000000000000000000000000000000000000000000000000000000008152600401610430906122aa565b60405180910390fd5b3073ffffffffffffffffffffffffffffffffffffffff16600260009054906101000a900473ffffffffffffffffffffffffffffffffffffffff1673ffffffffffffffffffffffffffffffffffffffff16636352211e6003546040518263ffffffff1660e01b81526004016104ad919061201d565b602060405180830381865afa1580156104ca573d6000803e3d6000fd5b505050506040513d601f19601f820116820180604052508101906104ee91906122df565b73ffffffffffffffffffffffffffffffffffffffff1614610544576040517f08c379a000000000000000000000000000000000000000000000000000000000815260040161053b9061237e565b60405180910390fd5b61054c61189e565b61058b576040517f08c379a000000000000000000000000000000000000000000000000000000000815260040161058290612436565b60405180910390fd5b8073ffffffffffffffffffffffffffffffffffffffff16600160009054906101000a900473ffffffffffffffffffffffffffffffffffffffff1673ffffffffffffffffffffffffffffffffffffffff166003547fd728b6f1bea0a163413b81fbf7301d4a193de3b5565105255108cdec8b2acddb60405160405180910390a480600760006101000a81548173ffffffffffffffffffffffffffffffffffffffff021916908373ffffffffffffffffffffffffffffffffffffffff16021790555050565b600660009054906101000a900473ffffffffffffffffffffffffffffffffffffffff1681565b600080600281111561068957610688611f7c565b5b600160149054906101000a900460ff1660028111156106ab576106aa611f7c565b5b146106eb576040517f08c379a00000000000000000000000000000000000000000000000000000000081526004016106e2906124c8565b60405180910390fd5b600260009054906101000a900473ffffffffffffffffffffffffffffffffffffffff1673ffffffffffffffffffffffffffffffffffffffff1661072c6118fd565b73ffffffffffffffffffffffffffffffffffffffff1614610782576040517f08c379a000000000000000000000000000000000000000000000000000000000815260040161077990612580565b60405180910390fd5b836003819055506003548573ffffffffffffffffffffffffffffffffffffffff166107ab6118fd565b73ffffffffffffffffffffffffffffffffffffffff167f01fcbb5289f65a5306cb0d0c6a79f53f0c1c0b245a042e3565e30c0e6104e24060405160405180910390a460018060146101000a81548160ff0219169083600281111561081257610811611f7c565b5b02179055507f150b7a023d4804d13e8c85fb27262cb750cf6ba9f9dd3bb30d90f482ceeb4b1f905095945050505050565b600760009054906101000a900473ffffffffffffffffffffffffffffffffffffffff1681565b600160149054906101000a900460ff1681565b60035481565b600460009054906101000a900473ffffffffffffffffffffffffffffffffffffffff1681565b600160009054906101000a900473ffffffffffffffffffffffffffffffffffffffff1681565b600060035403610913576040517f08c379a000000000000000000000000000000000000000000000000000000000815260040161090a90612218565b60405180910390fd5b6001600281111561092757610926611f7c565b5b600160149054906101000a900460ff16600281111561094957610948611f7c565b5b14610989576040517f08c379a0000000000000000000000000000000000000000000000000000000008152600401610980906122aa565b60405180910390fd5b3073ffffffffffffffffffffffffffffffffffffffff16600260009054906101000a900473ffffffffffffffffffffffffffffffffffffffff1673ffffffffffffffffffffffffffffffffffffffff16636352211e6003546040518263ffffffff1660e01b81526004016109fd919061201d565b602060405180830381865afa158015610a1a573d6000803e3d6000fd5b505050506040513d601f19601f82011682018060405250810190610a3e91906122df565b73ffffffffffffffffffffffffffffffffffffffff1614610a94576040517f08c379a0000000000000000000000000000000000000000000000000000000008152600401610a8b9061237e565b60405180910390fd5b610a9c611905565b610adb576040517f08c379a0000000000000000000000000000000000000000000000000000000008152600401610ad290612612565b60405180910390fd5b610ae481611963565b50565b600060035403610b2c576040517f08c379a0000000000000000000000000000000000000000000000000000000008152600401610b2390612218565b60405180910390fd5b60016002811115610b4057610b3f611f7c565b5b600160149054906101000a900460ff166002811115610b6257610b61611f7c565b5b14610ba2576040517f08c379a0000000000000000000000000000000000000000000000000000000008152600401610b99906122aa565b60405180910390fd5b3073ffffffffffffffffffffffffffffffffffffffff16600260009054906101000a900473ffffffffffffffffffffffffffffffffffffffff1673ffffffffffffffffffffffffffffffffffffffff16636352211e6003546040518263ffffffff1660e01b8152600401610c16919061201d565b602060405180830381865afa158015610c33573d6000803e3d6000fd5b505050506040513d601f19601f82011682018060405250810190610c5791906122df565b73ffffffffffffffffffffffffffffffffffffffff1614610cad576040517f08c379a0000000000000000000000000000000000000000000000000000000008152600401610ca49061237e565b60405180910390fd5b610cb5611905565b610cf4576040517f08c379a0000000000000000000000000000000000000000000000000000000008152600401610ceb90612612565b60405180910390fd5b8181600073ffffffffffffffffffffffffffffffffffffffff168273ffffffffffffffffffffffffffffffffffffffff1603610d65576040517f08c379a0000000000000000000000000000000000000000000000000000000008152600401610d5c906126a4565b60405180910390fd5b600073ffffffffffffffffffffffffffffffffffffffff168173ffffffffffffffffffffffffffffffffffffffff1603610dd4576040517f08c379a0000000000000000000000000000000000000000000000000000000008152600401610dcb906126a4565b60405180910390fd5b600160009054906101000a900473ffffffffffffffffffffffffffffffffffffffff1673ffffffffffffffffffffffffffffffffffffffff16600060029054906101000a900473ffffffffffffffffffffffffffffffffffffffff1673ffffffffffffffffffffffffffffffffffffffff1614610f6c57600560009054906101000a900473ffffffffffffffffffffffffffffffffffffffff1673ffffffffffffffffffffffffffffffffffffffff168273ffffffffffffffffffffffffffffffffffffffff1614610edb576040517f08c379a0000000000000000000000000000000000000000000000000000000008152600401610ed290612736565b60405180910390fd5b600660009054906101000a900473ffffffffffffffffffffffffffffffffffffffff1673ffffffffffffffffffffffffffffffffffffffff168173ffffffffffffffffffffffffffffffffffffffff1614610f6b576040517f08c379a0000000000000000000000000000000000000000000000000000000008152600401610f62906127c8565b60405180910390fd5b5b6000600460009054906101000a900473ffffffffffffffffffffffffffffffffffffffff1673ffffffffffffffffffffffffffffffffffffffff1663fcd7c1df600260009054906101000a900473ffffffffffffffffffffffffffffffffffffffff1687876040518463ffffffff1660e01b8152600401610fef939291906127e8565b6020604051808303816000875af115801561100e573d6000803e3d6000fd5b505050506040513d601f19601f8201168201806040525081019061103291906122df565b905061103d81611a92565b5050505050565b600260009054906101000a900473ffffffffffffffffffffffffffffffffffffffff1681565b6000600354036110af576040517f08c379a00000000000000000000000000000000000000000000000000000000081526004016110a690612218565b60405180910390fd5b600160028111156110c3576110c2611f7c565b5b600160149054906101000a900460ff1660028111156110e5576110e4611f7c565b5b14611125576040517f08c379a000000000000000000000000000000000000000000000000000000000815260040161111c906122aa565b60405180910390fd5b3073ffffffffffffffffffffffffffffffffffffffff16600260009054906101000a900473ffffffffffffffffffffffffffffffffffffffff1673ffffffffffffffffffffffffffffffffffffffff16636352211e6003546040518263ffffffff1660e01b8152600401611199919061201d565b602060405180830381865afa1580156111b6573d6000803e3d6000fd5b505050506040513d601f19601f820116820180604052508101906111da91906122df565b73ffffffffffffffffffffffffffffffffffffffff1614611230576040517f08c379a00000000000000000000000000000000000000000000000000000000081526004016112279061237e565b60405180910390fd5b61123861189e565b611277576040517f08c379a000000000000000000000000000000000000000000000000000000000815260040161126e90612436565b60405180910390fd5b61127f611905565b6112be576040517f08c379a00000000000000000000000000000000000000000000000000000000081526004016112b590612612565b60405180910390fd5b6112e9600260009054906101000a900473ffffffffffffffffffffffffffffffffffffffff16611a92565b565b600560009054906101000a900473ffffffffffffffffffffffffffffffffffffffff1681565b61131961189e565b611358576040517f08c379a000000000000000000000000000000000000000000000000000000000815260040161134f90612436565b60405180910390fd5b60006003540361139d576040517f08c379a000000000000000000000000000000000000000000000000000000000815260040161139490612218565b60405180910390fd5b600160028111156113b1576113b0611f7c565b5b600160149054906101000a900460ff1660028111156113d3576113d2611f7c565b5b14611413576040517f08c379a000000000000000000000000000000000000000000000000000000000815260040161140a906122aa565b60405180910390fd5b3073ffffffffffffffffffffffffffffffffffffffff16600260009054906101000a900473ffffffffffffffffffffffffffffffffffffffff1673ffffffffffffffffffffffffffffffffffffffff16636352211e6003546040518263ffffffff1660e01b8152600401611487919061201d565b602060405180830381865afa1580156114a4573d6000803e3d6000fd5b505050506040513d601f19601f820116820180604052508101906114c891906122df565b73ffffffffffffffffffffffffffffffffffffffff161461151e576040517f08c379a00000000000000000000000000000000000000000000000000000000081526004016115159061237e565b60405180910390fd5b600073ffffffffffffffffffffffffffffffffffffffff168273ffffffffffffffffffffffffffffffffffffffff160361158d576040517f08c379a0000000000000000000000000000000000000000000000000000000008152600401611584906126a4565b60405180910390fd5b600073ffffffffffffffffffffffffffffffffffffffff168173ffffffffffffffffffffffffffffffffffffffff16036115fc576040517f08c379a00000000000000000000000000000000000000000000000000000000081526004016115f3906126a4565b60405180910390fd5b8073ffffffffffffffffffffffffffffffffffffffff168273ffffffffffffffffffffffffffffffffffffffff167f69e959981ba8324fe4ac2cc8441dfcac87573494c77536baaf7acee6c51b7b6d60405160405180910390a381600560006101000a81548173ffffffffffffffffffffffffffffffffffffffff021916908373ffffffffffffffffffffffffffffffffffffffff16021790555080600660006101000a81548173ffffffffffffffffffffffffffffffffffffffff021916908373ffffffffffffffffffffffffffffffffffffffff1602179055505050565b600060029054906101000a900473ffffffffffffffffffffffffffffffffffffffff1681565b600060019054906101000a900460ff1680611728575060008054906101000a900460ff16155b611767576040517f08c379a000000000000000000000000000000000000000000000000000000000815260040161175e90612891565b60405180910390fd5b60008060019054906101000a900460ff1615905080156117b7576001600060016101000a81548160ff02191690831515021790555060016000806101000a81548160ff0219169083151502179055505b6117c083611bd2565b6117c984611c71565b84600260006101000a81548173ffffffffffffffffffffffffffffffffffffffff021916908373ffffffffffffffffffffffffffffffffffffffff16021790555081600460006101000a81548173ffffffffffffffffffffffffffffffffffffffff021916908373ffffffffffffffffffffffffffffffffffffffff1602179055506000600160146101000a81548160ff0219169083600281111561187157611870611f7c565b5b021790555080156118975760008060016101000a81548160ff0219169083151502179055505b5050505050565b6000600160009054906101000a900473ffffffffffffffffffffffffffffffffffffffff1673ffffffffffffffffffffffffffffffffffffffff166118e16118fd565b73ffffffffffffffffffffffffffffffffffffffff1614905090565b600033905090565b60008060029054906101000a900473ffffffffffffffffffffffffffffffffffffffff1673ffffffffffffffffffffffffffffffffffffffff166119476118fd565b73ffffffffffffffffffffffffffffffffffffffff1614905090565b600073ffffffffffffffffffffffffffffffffffffffff168173ffffffffffffffffffffffffffffffffffffffff16036119d2576040517f08c379a00000000000000000000000000000000000000000000000000000000081526004016119c990612923565b60405180910390fd5b8073ffffffffffffffffffffffffffffffffffffffff16600060029054906101000a900473ffffffffffffffffffffffffffffffffffffffff1673ffffffffffffffffffffffffffffffffffffffff167f076c2af751a37d3871addf9a6fdedbaf3827fb030bf1d04c43a1421420fcc98760405160405180910390a380600060026101000a81548173ffffffffffffffffffffffffffffffffffffffff021916908373ffffffffffffffffffffffffffffffffffffffff16021790555050565b6002600160146101000a81548160ff02191690836002811115611ab857611ab7611f7c565b5b02179055506003548173ffffffffffffffffffffffffffffffffffffffff16600260009054906101000a900473ffffffffffffffffffffffffffffffffffffffff1673ffffffffffffffffffffffffffffffffffffffff167fcf31cbde15ae9b0bfff5442830acd2764cad8da3394f189aa10c5a932e5b295560405160405180910390a4600260009054906101000a900473ffffffffffffffffffffffffffffffffffffffff1673ffffffffffffffffffffffffffffffffffffffff166342842e0e30836003546040518463ffffffff1660e01b8152600401611b9d93929190612943565b600060405180830381600087803b158015611bb757600080fd5b505af1158015611bcb573d6000803e3d6000fd5b5050505050565b80600060026101000a81548173ffffffffffffffffffffffffffffffffffffffff021916908373ffffffffffffffffffffffffffffffffffffffff1602179055508073ffffffffffffffffffffffffffffffffffffffff16600073ffffffffffffffffffffffffffffffffffffffff167f076c2af751a37d3871addf9a6fdedbaf3827fb030bf1d04c43a1421420fcc98760405160405180910390a350565b80600160006101000a81548173ffffffffffffffffffffffffffffffffffffffff021916908373ffffffffffffffffffffffffffffffffffffffff16021790555050565b600080fd5b600080fd5b60007fffffffff0000000000000000000000000000000000000000000000000000000082169050919050565b611cf481611cbf565b8114611cff57600080fd5b50565b600081359050611d1181611ceb565b92915050565b600060208284031215611d2d57611d2c611cb5565b5b6000611d3b84828501611d02565b91505092915050565b60008115159050919050565b611d5981611d44565b82525050565b6000602082019050611d746000830184611d50565b92915050565b600073ffffffffffffffffffffffffffffffffffffffff82169050919050565b6000611da582611d7a565b9050919050565b611db581611d9a565b8114611dc057600080fd5b50565b600081359050611dd281611dac565b92915050565b600060208284031215611dee57611ded611cb5565b5b6000611dfc84828501611dc3565b91505092915050565b611e0e81611d9a565b82525050565b6000602082019050611e296000830184611e05565b92915050565b6000819050919050565b611e4281611e2f565b8114611e4d57600080fd5b50565b600081359050611e5f81611e39565b92915050565b600080fd5b600080fd5b600080fd5b60008083601f840112611e8a57611e89611e65565b5b8235905067ffffffffffffffff811115611ea757611ea6611e6a565b5b602083019150836001820283011115611ec357611ec2611e6f565b5b9250929050565b600080600080600060808688031215611ee657611ee5611cb5565b5b6000611ef488828901611dc3565b9550506020611f0588828901611dc3565b9450506040611f1688828901611e50565b935050606086013567ffffffffffffffff811115611f3757611f36611cba565b5b611f4388828901611e74565b92509250509295509295909350565b611f5b81611cbf565b82525050565b6000602082019050611f766000830184611f52565b92915050565b7f4e487b7100000000000000000000000000000000000000000000000000000000600052602160045260246000fd5b60038110611fbc57611fbb611f7c565b5b50565b6000819050611fcd82611fab565b919050565b6000611fdd82611fbf565b9050919050565b611fed81611fd2565b82525050565b60006020820190506120086000830184611fe4565b92915050565b61201781611e2f565b82525050565b6000602082019050612032600083018461200e565b92915050565b6000819050919050565b600061205d61205861205384611d7a565b612038565b611d7a565b9050919050565b600061206f82612042565b9050919050565b600061208182612064565b9050919050565b61209181612076565b82525050565b60006020820190506120ac6000830184612088565b92915050565b600080604083850312156120c9576120c8611cb5565b5b60006120d785828601611dc3565b92505060206120e885828601611dc3565b9150509250929050565b60006120fd82612064565b9050919050565b61210d816120f2565b82525050565b60006020820190506121286000830184612104565b92915050565b6000806000806080858703121561214857612147611cb5565b5b600061215687828801611dc3565b945050602061216787828801611dc3565b935050604061217887828801611dc3565b925050606061218987828801611dc3565b91505092959194509250565b600082825260208201905092915050565b7f5469746c65457363726f773a20436f6e7472616374206973206e6f7420686f6c60008201527f64696e67206120746f6b656e0000000000000000000000000000000000000000602082015250565b6000612202602c83612195565b915061220d826121a6565b604082019050919050565b60006020820190508181036000830152612231816121f5565b9050919050565b7f5469746c65457363726f773a20436f6e7472616374206973206e6f7420696e2060008201527f7573650000000000000000000000000000000000000000000000000000000000602082015250565b6000612294602383612195565b915061229f82612238565b604082019050919050565b600060208201905081810360008301526122c381612287565b9050919050565b6000815190506122d981611dac565b92915050565b6000602082840312156122f5576122f4611cb5565b5b6000612303848285016122ca565b91505092915050565b7f5469746c65457363726f773a20436f6e7472616374206973206e6f742074686560008201527f206f776e6572206f6620746f6b656e0000000000000000000000000000000000602082015250565b6000612368602f83612195565b91506123738261230c565b604082019050919050565b600060208201905081810360008301526123978161235b565b9050919050565b7f4861734e616d656442656e65666963696172793a206f6e6c792074686520626560008201527f6e6566696369617279206d617920696e766f6b6520746869732066756e63746960208201527f6f6e000000000000000000000000000000000000000000000000000000000000604082015250565b6000612420604283612195565b915061242b8261239e565b606082019050919050565b6000602082019050818103600083015261244f81612413565b9050919050565b7f5469746c65457363726f773a20436f6e747261637420686173206265656e207560008201527f736564206265666f726500000000000000000000000000000000000000000000602082015250565b60006124b2602a83612195565b91506124bd82612456565b604082019050919050565b600060208201905081810360008301526124e1816124a5565b9050919050565b7f5469746c65457363726f773a204f6e6c7920746f6b656e732066726f6d20707260008201527f65646566696e656420746f6b656e2072656769737472792063616e206265206160208201527f6363657074656400000000000000000000000000000000000000000000000000604082015250565b600061256a604783612195565b9150612575826124e8565b606082019050919050565b600060208201905081810360008301526125998161255d565b9050919050565b7f486173486f6c6465723a206f6e6c792074686520686f6c646572206d6179206960008201527f6e766f6b6520746869732066756e6374696f6e00000000000000000000000000602082015250565b60006125fc603383612195565b9150612607826125a0565b604082019050919050565b6000602082019050818103600083015261262b816125ef565b9050919050565b7f5469746c65457363726f773a205472616e7366657272696e6720746f2030783060008201527f206973206e6f7420616c6c6f7765640000000000000000000000000000000000602082015250565b600061268e602f83612195565b915061269982612632565b604082019050919050565b600060208201905081810360008301526126bd81612681565b9050919050565b7f5469746c65457363726f773a2042656e656669636961727920686173206e6f7460008201527f206265656e20656e646f727365642062792062656e6566696369617279000000602082015250565b6000612720603d83612195565b915061272b826126c4565b604082019050919050565b6000602082019050818103600083015261274f81612713565b9050919050565b7f5469746c65457363726f773a20486f6c64657220686173206e6f74206265656e60008201527f20656e646f727365642062792062656e65666963696172790000000000000000602082015250565b60006127b2603883612195565b91506127bd82612756565b604082019050919050565b600060208201905081810360008301526127e1816127a5565b9050919050565b60006060820190506127fd6000830186611e05565b61280a6020830185611e05565b6128176040830184611e05565b949350505050565b7f496e697469616c697a61626c653a20636f6e747261637420697320616c72656160008201527f647920696e697469616c697a6564000000000000000000000000000000000000602082015250565b600061287b602e83612195565b91506128868261281f565b604082019050919050565b600060208201905081810360008301526128aa8161286e565b9050919050565b7f486173486f6c6465723a206e657720686f6c64657220697320746865207a657260008201527f6f20616464726573730000000000000000000000000000000000000000000000602082015250565b600061290d602983612195565b9150612918826128b1565b604082019050919050565b6000602082019050818103600083015261293c81612900565b9050919050565b60006060820190506129586000830186611e05565b6129656020830185611e05565b612972604083018461200e565b94935050505056fea2646970667358221220e4ccde2de014fe978606ff38dbabbf6ceb1c2010f48b6d1815058be1f488231c64736f6c63430008110033",
  "linkReferences": {},
  "deployedLinkReferences": {}
}