{
  "_format": "hh-sol-artifact-1",
  "contractName": "TitleEscrowCloneableMock",
  "sourceName": "contracts/mocks/TitleEscrowCloneableMock.sol",
  "abi": [
    {
      "anonymous": false,
      "inputs": [
        {
          "indexed": true,
          "internalType": "address",
          "name": "previousHolder",
          "type": "address"
        },
        {
          "indexed": true,
          "internalType": "address",
          "name": "newHolder",
          "type": "address"
        }
      ],
      "name": "HolderChanged",
      "type": "event"
    },
    {
      "anonymous": false,
      "inputs": [
        {
          "indexed": true,
          "internalType": "address",
          "name": "_tokenRegistry",
          "type": "address"
        },
        {
          "indexed": true,
          "internalType": "address",
          "name": "_to",
          "type": "address"
        },
        {
          "indexed": true,
          "internalType": "uint256",
          "name": "_id",
          "type": "uint256"
        }
      ],
      "name": "TitleCeded",
      "type": "event"
    },
    {
      "anonymous": false,
      "inputs": [
        {
          "indexed": true,
          "internalType": "address",
          "name": "_tokenRegistry",
          "type": "address"
        },
        {
          "indexed": true,
          "internalType": "address",
          "name": "_from",
          "type": "address"
        },
        {
          "indexed": true,
          "internalType": "uint256",
          "name": "_id",
          "type": "uint256"
        }
      ],
      "name": "TitleReceived",
      "type": "event"
    },
    {
      "anonymous": false,
      "inputs": [
        {
          "indexed": true,
          "internalType": "uint256",
          "name": "_tokenid",
          "type": "uint256"
        },
        {
          "indexed": true,
          "internalType": "address",
          "name": "_from",
          "type": "address"
        },
        {
          "indexed": true,
          "internalType": "address",
          "name": "_to",
          "type": "address"
        }
      ],
      "name": "TransferOwnerApproval",
      "type": "event"
    },
    {
      "anonymous": false,
      "inputs": [
        {
          "indexed": true,
          "internalType": "address",
          "name": "newBeneficiary",
          "type": "address"
        },
        {
          "indexed": true,
          "internalType": "address",
          "name": "newHolder",
          "type": "address"
        }
      ],
      "name": "TransferTitleEscrowApproval",
      "type": "event"
    },
    {
      "inputs": [],
      "name": "_tokenId",
      "outputs": [
        {
          "internalType": "uint256",
          "name": "",
          "type": "uint256"
        }
      ],
      "stateMutability": "view",
      "type": "function"
    },
    {
      "inputs": [
        {
          "internalType": "address",
          "name": "newOwner",
          "type": "address"
        }
      ],
      "name": "approveNewOwner",
      "outputs": [],
      "stateMutability": "nonpayable",
      "type": "function"
    },
    {
      "inputs": [
        {
          "internalType": "address",
          "name": "newBeneficiary",
          "type": "address"
        },
        {
          "internalType": "address",
          "name": "newHolder",
          "type": "address"
        }
      ],
      "name": "approveNewTransferTargets",
      "outputs": [],
      "stateMutability": "nonpayable",
      "type": "function"
    },
    {
      "inputs": [],
      "name": "approvedBeneficiary",
      "outputs": [
        {
          "internalType": "address",
          "name": "",
          "type": "address"
        }
      ],
      "stateMutability": "view",
      "type": "function"
    },
    {
      "inputs": [],
      "name": "approvedHolder",
      "outputs": [
        {
          "internalType": "address",
          "name": "",
          "type": "address"
        }
      ],
      "stateMutability": "view",
      "type": "function"
    },
    {
      "inputs": [],
      "name": "approvedOwner",
      "outputs": [
        {
          "internalType": "address",
          "name": "",
          "type": "address"
        }
      ],
      "stateMutability": "view",
      "type": "function"
    },
    {
      "inputs": [],
      "name": "beneficiary",
      "outputs": [
        {
          "internalType": "address",
          "name": "",
          "type": "address"
        }
      ],
      "stateMutability": "view",
      "type": "function"
    },
    {
      "inputs": [
        {
          "internalType": "address",
          "name": "newHolder",
          "type": "address"
        }
      ],
      "name": "changeHolder",
      "outputs": [],
      "stateMutability": "nonpayable",
      "type": "function"
    },
    {
      "inputs": [],
      "name": "holder",
      "outputs": [
        {
          "internalType": "address",
          "name": "",
          "type": "address"
        }
      ],
      "stateMutability": "view",
      "type": "function"
    },
    {
      "inputs": [
        {
          "internalType": "address",
          "name": "_tokenRegistry",
          "type": "address"
        },
        {
          "internalType": "address",
          "name": "_beneficiary",
          "type": "address"
        },
        {
          "internalType": "address",
          "name": "_holder",
          "type": "address"
        },
        {
          "internalType": "address",
          "name": "_titleEscrowFactoryAddress",
          "type": "address"
        }
      ],
      "name": "initialize",
      "outputs": [],
      "stateMutability": "nonpayable",
      "type": "function"
    },
    {
      "inputs": [
        {
          "internalType": "address",
          "name": "operator",
          "type": "address"
        },
        {
          "internalType": "address",
          "name": "from",
          "type": "address"
        },
        {
          "internalType": "uint256",
          "name": "tokenId",
          "type": "uint256"
        },
        {
          "internalType": "bytes",
          "name": "data",
          "type": "bytes"
        }
      ],
      "name": "onERC721Received",
      "outputs": [
        {
          "internalType": "bytes4",
          "name": "",
          "type": "bytes4"
        }
      ],
      "stateMutability": "nonpayable",
      "type": "function"
    },
    {
      "inputs": [],
      "name": "status",
      "outputs": [
        {
          "internalType": "enum ITitleEscrow.StatusTypes",
          "name": "",
          "type": "uint8"
        }
      ],
      "stateMutability": "view",
      "type": "function"
    },
    {
      "inputs": [
        {
          "internalType": "bytes4",
          "name": "interfaceId",
          "type": "bytes4"
        }
      ],
      "name": "supportsInterface",
      "outputs": [
        {
          "internalType": "bool",
          "name": "",
          "type": "bool"
        }
      ],
      "stateMutability": "view",
      "type": "function"
    },
    {
      "inputs": [],
      "name": "surrender",
      "outputs": [],
      "stateMutability": "nonpayable",
      "type": "function"
    },
    {
      "inputs": [],
      "name": "titleEscrowFactory",
      "outputs": [
        {
          "internalType": "contract ITitleEscrowCreator",
          "name": "",
          "type": "address"
        }
      ],
      "stateMutability": "view",
      "type": "function"
    },
    {
      "inputs": [],
      "name": "tokenRegistry",
      "outputs": [
        {
          "internalType": "contract ERC721",
          "name": "",
          "type": "address"
        }
      ],
      "stateMutability": "view",
      "type": "function"
    },
    {
      "inputs": [
        {
          "internalType": "address",
          "name": "newOwner",
          "type": "address"
        }
      ],
      "name": "transferTo",
      "outputs": [],
      "stateMutability": "nonpayable",
      "type": "function"
    },
    {
      "inputs": [
        {
          "internalType": "address",
          "name": "newBeneficiary",
          "type": "address"
        },
        {
          "internalType": "address",
          "name": "newHolder",
          "type": "address"
        }
      ],
      "name": "transferToNewEscrow",
      "outputs": [],
      "stateMutability": "nonpayable",
      "type": "function"
    }
  ],
  "bytecode": "0x608060405234801561001057600080fd5b50612dfb806100206000396000f3fe608060405234801561001057600080fd5b50600436106101165760003560e01c80635a87db75116100a2578063b71c47a211610071578063b71c47a2146102bd578063d4b56610146102c7578063e366ab30146102e5578063e534155d14610301578063f8c8765e1461031f57610116565b80635a87db751461024b57806374bbb350146102675780639d23c4c714610283578063a03fa7e3146102a157610116565b80631fe2b08a116100e95780631fe2b08a146101b5578063200d2ed2146101d357806324822514146101f1578063325689f91461020f57806338af3eed1461022d57610116565b806301ffc9a71461011b57806303f0736d1461014b5780630cb258b714610167578063150b7a0214610185575b600080fd5b610135600480360381019061013091906120d0565b61033b565b6040516101429190612118565b60405180910390f35b61016560048036038101906101609190612191565b6103a5565b005b61016f610675565b60405161017c91906121cd565b60405180910390f35b61019f600480360381019061019a9190612283565b61069b565b6040516101ac919061231a565b60405180910390f35b6101bd61086a565b6040516101ca91906121cd565b60405180910390f35b6101db610890565b6040516101e891906123ac565b60405180910390f35b6101f96108a3565b60405161020691906123d6565b60405180910390f35b6102176108a9565b6040516102249190612450565b60405180910390f35b6102356108cf565b60405161024291906121cd565b60405180910390f35b61026560048036038101906102609190612191565b6108f5565b005b610281600480360381019061027c919061246b565b610b0e565b005b61028b61106b565b60405161029891906124cc565b60405180910390f35b6102bb60048036038101906102b69190612191565b611091565b005b6102c5611423565b005b6102cf6116a4565b6040516102dc91906121cd565b60405180910390f35b6102ff60048036038101906102fa919061246b565b6116ca565b005b610309611a95565b60405161031691906121cd565b60405180910390f35b610339600480360381019061033491906124e7565b611abb565b005b60007f1676e9e0000000000000000000000000000000000000000000000000000000007bffffffffffffffffffffffffffffffffffffffffffffffffffffffff1916827bffffffffffffffffffffffffffffffffffffffffffffffffffffffff1916149050919050565b6000600354036103ea576040517f08c379a00000000000000000000000000000000000000000000000000000000081526004016103e1906125d1565b60405180910390fd5b600160028111156103fe576103fd612335565b5b600160149054906101000a900460ff1660028111156104205761041f612335565b5b14610460576040517f08c379a000000000000000000000000000000000000000000000000000000000815260040161045790612663565b60405180910390fd5b3073ffffffffffffffffffffffffffffffffffffffff16600260009054906101000a900473ffffffffffffffffffffffffffffffffffffffff1673ffffffffffffffffffffffffffffffffffffffff16636352211e6003546040518263ffffffff1660e01b81526004016104d491906123d6565b602060405180830381865afa1580156104f1573d6000803e3d6000fd5b505050506040513d601f19601f820116820180604052508101906105159190612698565b73ffffffffffffffffffffffffffffffffffffffff161461056b576040517f08c379a000000000000000000000000000000000000000000000000000000000815260040161056290612737565b60405180910390fd5b610573611c57565b6105b2576040517f08c379a00000000000000000000000000000000000000000000000000000000081526004016105a9906127ef565b60405180910390fd5b8073ffffffffffffffffffffffffffffffffffffffff16600160009054906101000a900473ffffffffffffffffffffffffffffffffffffffff1673ffffffffffffffffffffffffffffffffffffffff166003547fd728b6f1bea0a163413b81fbf7301d4a193de3b5565105255108cdec8b2acddb60405160405180910390a480600760006101000a81548173ffffffffffffffffffffffffffffffffffffffff021916908373ffffffffffffffffffffffffffffffffffffffff16021790555050565b600660009054906101000a900473ffffffffffffffffffffffffffffffffffffffff1681565b60008060028111156106b0576106af612335565b5b600160149054906101000a900460ff1660028111156106d2576106d1612335565b5b14610712576040517f08c379a000000000000000000000000000000000000000000000000000000000815260040161070990612881565b60405180910390fd5b600260009054906101000a900473ffffffffffffffffffffffffffffffffffffffff1673ffffffffffffffffffffffffffffffffffffffff16610753611cb6565b73ffffffffffffffffffffffffffffffffffffffff16146107a9576040517f08c379a00000000000000000000000000000000000000000000000000000000081526004016107a090612939565b60405180910390fd5b836003819055506003548573ffffffffffffffffffffffffffffffffffffffff166107d2611cb6565b73ffffffffffffffffffffffffffffffffffffffff167f01fcbb5289f65a5306cb0d0c6a79f53f0c1c0b245a042e3565e30c0e6104e24060405160405180910390a460018060146101000a81548160ff0219169083600281111561083957610838612335565b5b02179055507f150b7a023d4804d13e8c85fb27262cb750cf6ba9f9dd3bb30d90f482ceeb4b1f905095945050505050565b600760009054906101000a900473ffffffffffffffffffffffffffffffffffffffff1681565b600160149054906101000a900460ff1681565b60035481565b600460009054906101000a900473ffffffffffffffffffffffffffffffffffffffff1681565b600160009054906101000a900473ffffffffffffffffffffffffffffffffffffffff1681565b60006003540361093a576040517f08c379a0000000000000000000000000000000000000000000000000000000008152600401610931906125d1565b60405180910390fd5b6001600281111561094e5761094d612335565b5b600160149054906101000a900460ff1660028111156109705761096f612335565b5b146109b0576040517f08c379a00000000000000000000000000000000000000000000000000000000081526004016109a790612663565b60405180910390fd5b3073ffffffffffffffffffffffffffffffffffffffff16600260009054906101000a900473ffffffffffffffffffffffffffffffffffffffff1673ffffffffffffffffffffffffffffffffffffffff16636352211e6003546040518263ffffffff1660e01b8152600401610a2491906123d6565b602060405180830381865afa158015610a41573d6000803e3d6000fd5b505050506040513d601f19601f82011682018060405250810190610a659190612698565b73ffffffffffffffffffffffffffffffffffffffff1614610abb576040517f08c379a0000000000000000000000000000000000000000000000000000000008152600401610ab290612737565b60405180910390fd5b610ac3611cbe565b610b02576040517f08c379a0000000000000000000000000000000000000000000000000000000008152600401610af9906129cb565b60405180910390fd5b610b0b81611d1c565b50565b600060035403610b53576040517f08c379a0000000000000000000000000000000000000000000000000000000008152600401610b4a906125d1565b60405180910390fd5b60016002811115610b6757610b66612335565b5b600160149054906101000a900460ff166002811115610b8957610b88612335565b5b14610bc9576040517f08c379a0000000000000000000000000000000000000000000000000000000008152600401610bc090612663565b60405180910390fd5b3073ffffffffffffffffffffffffffffffffffffffff16600260009054906101000a900473ffffffffffffffffffffffffffffffffffffffff1673ffffffffffffffffffffffffffffffffffffffff16636352211e6003546040518263ffffffff1660e01b8152600401610c3d91906123d6565b602060405180830381865afa158015610c5a573d6000803e3d6000fd5b505050506040513d601f19601f82011682018060405250810190610c7e9190612698565b73ffffffffffffffffffffffffffffffffffffffff1614610cd4576040517f08c379a0000000000000000000000000000000000000000000000000000000008152600401610ccb90612737565b60405180910390fd5b610cdc611cbe565b610d1b576040517f08c379a0000000000000000000000000000000000000000000000000000000008152600401610d12906129cb565b60405180910390fd5b8181600073ffffffffffffffffffffffffffffffffffffffff168273ffffffffffffffffffffffffffffffffffffffff1603610d8c576040517f08c379a0000000000000000000000000000000000000000000000000000000008152600401610d8390612a5d565b60405180910390fd5b600073ffffffffffffffffffffffffffffffffffffffff168173ffffffffffffffffffffffffffffffffffffffff1603610dfb576040517f08c379a0000000000000000000000000000000000000000000000000000000008152600401610df290612a5d565b60405180910390fd5b600160009054906101000a900473ffffffffffffffffffffffffffffffffffffffff1673ffffffffffffffffffffffffffffffffffffffff16600060029054906101000a900473ffffffffffffffffffffffffffffffffffffffff1673ffffffffffffffffffffffffffffffffffffffff1614610f9357600560009054906101000a900473ffffffffffffffffffffffffffffffffffffffff1673ffffffffffffffffffffffffffffffffffffffff168273ffffffffffffffffffffffffffffffffffffffff1614610f02576040517f08c379a0000000000000000000000000000000000000000000000000000000008152600401610ef990612aef565b60405180910390fd5b600660009054906101000a900473ffffffffffffffffffffffffffffffffffffffff1673ffffffffffffffffffffffffffffffffffffffff168173ffffffffffffffffffffffffffffffffffffffff1614610f92576040517f08c379a0000000000000000000000000000000000000000000000000000000008152600401610f8990612b81565b60405180910390fd5b5b6000600460009054906101000a900473ffffffffffffffffffffffffffffffffffffffff1673ffffffffffffffffffffffffffffffffffffffff1663fcd7c1df600260009054906101000a900473ffffffffffffffffffffffffffffffffffffffff1687876040518463ffffffff1660e01b815260040161101693929190612ba1565b6020604051808303816000875af1158015611035573d6000803e3d6000fd5b505050506040513d601f19601f820116820180604052508101906110599190612698565b905061106481611e4b565b5050505050565b600260009054906101000a900473ffffffffffffffffffffffffffffffffffffffff1681565b6000600354036110d6576040517f08c379a00000000000000000000000000000000000000000000000000000000081526004016110cd906125d1565b60405180910390fd5b600160028111156110ea576110e9612335565b5b600160149054906101000a900460ff16600281111561110c5761110b612335565b5b1461114c576040517f08c379a000000000000000000000000000000000000000000000000000000000815260040161114390612663565b60405180910390fd5b3073ffffffffffffffffffffffffffffffffffffffff16600260009054906101000a900473ffffffffffffffffffffffffffffffffffffffff1673ffffffffffffffffffffffffffffffffffffffff16636352211e6003546040518263ffffffff1660e01b81526004016111c091906123d6565b602060405180830381865afa1580156111dd573d6000803e3d6000fd5b505050506040513d601f19601f820116820180604052508101906112019190612698565b73ffffffffffffffffffffffffffffffffffffffff1614611257576040517f08c379a000000000000000000000000000000000000000000000000000000000815260040161124e90612737565b60405180910390fd5b61125f611cbe565b61129e576040517f08c379a0000000000000000000000000000000000000000000000000000000008152600401611295906129cb565b60405180910390fd5b80600073ffffffffffffffffffffffffffffffffffffffff168173ffffffffffffffffffffffffffffffffffffffff160361130e576040517f08c379a000000000000000000000000000000000000000000000000000000000815260040161130590612a5d565b60405180910390fd5b600160009054906101000a900473ffffffffffffffffffffffffffffffffffffffff1673ffffffffffffffffffffffffffffffffffffffff16600060029054906101000a900473ffffffffffffffffffffffffffffffffffffffff1673ffffffffffffffffffffffffffffffffffffffff161461141657600760009054906101000a900473ffffffffffffffffffffffffffffffffffffffff1673ffffffffffffffffffffffffffffffffffffffff168173ffffffffffffffffffffffffffffffffffffffff1614611415576040517f08c379a000000000000000000000000000000000000000000000000000000000815260040161140c90612c4a565b60405180910390fd5b5b61141f82611e4b565b5050565b600060035403611468576040517f08c379a000000000000000000000000000000000000000000000000000000000815260040161145f906125d1565b60405180910390fd5b6001600281111561147c5761147b612335565b5b600160149054906101000a900460ff16600281111561149e5761149d612335565b5b146114de576040517f08c379a00000000000000000000000000000000000000000000000000000000081526004016114d590612663565b60405180910390fd5b3073ffffffffffffffffffffffffffffffffffffffff16600260009054906101000a900473ffffffffffffffffffffffffffffffffffffffff1673ffffffffffffffffffffffffffffffffffffffff16636352211e6003546040518263ffffffff1660e01b815260040161155291906123d6565b602060405180830381865afa15801561156f573d6000803e3d6000fd5b505050506040513d601f19601f820116820180604052508101906115939190612698565b73ffffffffffffffffffffffffffffffffffffffff16146115e9576040517f08c379a00000000000000000000000000000000000000000000000000000000081526004016115e090612737565b60405180910390fd5b6115f1611c57565b611630576040517f08c379a0000000000000000000000000000000000000000000000000000000008152600401611627906127ef565b60405180910390fd5b611638611cbe565b611677576040517f08c379a000000000000000000000000000000000000000000000000000000000815260040161166e906129cb565b60405180910390fd5b6116a2600260009054906101000a900473ffffffffffffffffffffffffffffffffffffffff16611e4b565b565b600560009054906101000a900473ffffffffffffffffffffffffffffffffffffffff1681565b6116d2611c57565b611711576040517f08c379a0000000000000000000000000000000000000000000000000000000008152600401611708906127ef565b60405180910390fd5b600060035403611756576040517f08c379a000000000000000000000000000000000000000000000000000000000815260040161174d906125d1565b60405180910390fd5b6001600281111561176a57611769612335565b5b600160149054906101000a900460ff16600281111561178c5761178b612335565b5b146117cc576040517f08c379a00000000000000000000000000000000000000000000000000000000081526004016117c390612663565b60405180910390fd5b3073ffffffffffffffffffffffffffffffffffffffff16600260009054906101000a900473ffffffffffffffffffffffffffffffffffffffff1673ffffffffffffffffffffffffffffffffffffffff16636352211e6003546040518263ffffffff1660e01b815260040161184091906123d6565b602060405180830381865afa15801561185d573d6000803e3d6000fd5b505050506040513d601f19601f820116820180604052508101906118819190612698565b73ffffffffffffffffffffffffffffffffffffffff16146118d7576040517f08c379a00000000000000000000000000000000000000000000000000000000081526004016118ce90612737565b60405180910390fd5b600073ffffffffffffffffffffffffffffffffffffffff168273ffffffffffffffffffffffffffffffffffffffff1603611946576040517f08c379a000000000000000000000000000000000000000000000000000000000815260040161193d90612a5d565b60405180910390fd5b600073ffffffffffffffffffffffffffffffffffffffff168173ffffffffffffffffffffffffffffffffffffffff16036119b5576040517f08c379a00000000000000000000000000000000000000000000000000000000081526004016119ac90612a5d565b60405180910390fd5b8073ffffffffffffffffffffffffffffffffffffffff168273ffffffffffffffffffffffffffffffffffffffff167f69e959981ba8324fe4ac2cc8441dfcac87573494c77536baaf7acee6c51b7b6d60405160405180910390a381600560006101000a81548173ffffffffffffffffffffffffffffffffffffffff021916908373ffffffffffffffffffffffffffffffffffffffff16021790555080600660006101000a81548173ffffffffffffffffffffffffffffffffffffffff021916908373ffffffffffffffffffffffffffffffffffffffff1602179055505050565b600060029054906101000a900473ffffffffffffffffffffffffffffffffffffffff1681565b600060019054906101000a900460ff1680611ae1575060008054906101000a900460ff16155b611b20576040517f08c379a0000000000000000000000000000000000000000000000000000000008152600401611b1790612cdc565b60405180910390fd5b60008060019054906101000a900460ff161590508015611b70576001600060016101000a81548160ff02191690831515021790555060016000806101000a81548160ff0219169083151502179055505b611b7983611f8b565b611b828461202a565b84600260006101000a81548173ffffffffffffffffffffffffffffffffffffffff021916908373ffffffffffffffffffffffffffffffffffffffff16021790555081600460006101000a81548173ffffffffffffffffffffffffffffffffffffffff021916908373ffffffffffffffffffffffffffffffffffffffff1602179055506000600160146101000a81548160ff02191690836002811115611c2a57611c29612335565b5b02179055508015611c505760008060016101000a81548160ff0219169083151502179055505b5050505050565b6000600160009054906101000a900473ffffffffffffffffffffffffffffffffffffffff1673ffffffffffffffffffffffffffffffffffffffff16611c9a611cb6565b73ffffffffffffffffffffffffffffffffffffffff1614905090565b600033905090565b60008060029054906101000a900473ffffffffffffffffffffffffffffffffffffffff1673ffffffffffffffffffffffffffffffffffffffff16611d00611cb6565b73ffffffffffffffffffffffffffffffffffffffff1614905090565b600073ffffffffffffffffffffffffffffffffffffffff168173ffffffffffffffffffffffffffffffffffffffff1603611d8b576040517f08c379a0000000000000000000000000000000000000000000000000000000008152600401611d8290612d6e565b60405180910390fd5b8073ffffffffffffffffffffffffffffffffffffffff16600060029054906101000a900473ffffffffffffffffffffffffffffffffffffffff1673ffffffffffffffffffffffffffffffffffffffff167f076c2af751a37d3871addf9a6fdedbaf3827fb030bf1d04c43a1421420fcc98760405160405180910390a380600060026101000a81548173ffffffffffffffffffffffffffffffffffffffff021916908373ffffffffffffffffffffffffffffffffffffffff16021790555050565b6002600160146101000a81548160ff02191690836002811115611e7157611e70612335565b5b02179055506003548173ffffffffffffffffffffffffffffffffffffffff16600260009054906101000a900473ffffffffffffffffffffffffffffffffffffffff1673ffffffffffffffffffffffffffffffffffffffff167fcf31cbde15ae9b0bfff5442830acd2764cad8da3394f189aa10c5a932e5b295560405160405180910390a4600260009054906101000a900473ffffffffffffffffffffffffffffffffffffffff1673ffffffffffffffffffffffffffffffffffffffff166342842e0e30836003546040518463ffffffff1660e01b8152600401611f5693929190612d8e565b600060405180830381600087803b158015611f7057600080fd5b505af1158015611f84573d6000803e3d6000fd5b5050505050565b80600060026101000a81548173ffffffffffffffffffffffffffffffffffffffff021916908373ffffffffffffffffffffffffffffffffffffffff1602179055508073ffffffffffffffffffffffffffffffffffffffff16600073ffffffffffffffffffffffffffffffffffffffff167f076c2af751a37d3871addf9a6fdedbaf3827fb030bf1d04c43a1421420fcc98760405160405180910390a350565b80600160006101000a81548173ffffffffffffffffffffffffffffffffffffffff021916908373ffffffffffffffffffffffffffffffffffffffff16021790555050565b600080fd5b600080fd5b60007fffffffff0000000000000000000000000000000000000000000000000000000082169050919050565b6120ad81612078565b81146120b857600080fd5b50565b6000813590506120ca816120a4565b92915050565b6000602082840312156120e6576120e561206e565b5b60006120f4848285016120bb565b91505092915050565b60008115159050919050565b612112816120fd565b82525050565b600060208201905061212d6000830184612109565b92915050565b600073ffffffffffffffffffffffffffffffffffffffff82169050919050565b600061215e82612133565b9050919050565b61216e81612153565b811461217957600080fd5b50565b60008135905061218b81612165565b92915050565b6000602082840312156121a7576121a661206e565b5b60006121b58482850161217c565b91505092915050565b6121c781612153565b82525050565b60006020820190506121e260008301846121be565b92915050565b6000819050919050565b6121fb816121e8565b811461220657600080fd5b50565b600081359050612218816121f2565b92915050565b600080fd5b600080fd5b600080fd5b60008083601f8401126122435761224261221e565b5b8235905067ffffffffffffffff8111156122605761225f612223565b5b60208301915083600182028301111561227c5761227b612228565b5b9250929050565b60008060008060006080868803121561229f5761229e61206e565b5b60006122ad8882890161217c565b95505060206122be8882890161217c565b94505060406122cf88828901612209565b935050606086013567ffffffffffffffff8111156122f0576122ef612073565b5b6122fc8882890161222d565b92509250509295509295909350565b61231481612078565b82525050565b600060208201905061232f600083018461230b565b92915050565b7f4e487b7100000000000000000000000000000000000000000000000000000000600052602160045260246000fd5b6003811061237557612374612335565b5b50565b600081905061238682612364565b919050565b600061239682612378565b9050919050565b6123a68161238b565b82525050565b60006020820190506123c1600083018461239d565b92915050565b6123d0816121e8565b82525050565b60006020820190506123eb60008301846123c7565b92915050565b6000819050919050565b600061241661241161240c84612133565b6123f1565b612133565b9050919050565b6000612428826123fb565b9050919050565b600061243a8261241d565b9050919050565b61244a8161242f565b82525050565b60006020820190506124656000830184612441565b92915050565b600080604083850312156124825761248161206e565b5b60006124908582860161217c565b92505060206124a18582860161217c565b9150509250929050565b60006124b68261241d565b9050919050565b6124c6816124ab565b82525050565b60006020820190506124e160008301846124bd565b92915050565b600080600080608085870312156125015761250061206e565b5b600061250f8782880161217c565b94505060206125208782880161217c565b93505060406125318782880161217c565b92505060606125428782880161217c565b91505092959194509250565b600082825260208201905092915050565b7f5469746c65457363726f773a20436f6e7472616374206973206e6f7420686f6c60008201527f64696e67206120746f6b656e0000000000000000000000000000000000000000602082015250565b60006125bb602c8361254e565b91506125c68261255f565b604082019050919050565b600060208201905081810360008301526125ea816125ae565b9050919050565b7f5469746c65457363726f773a20436f6e7472616374206973206e6f7420696e2060008201527f7573650000000000000000000000000000000000000000000000000000000000602082015250565b600061264d60238361254e565b9150612658826125f1565b604082019050919050565b6000602082019050818103600083015261267c81612640565b9050919050565b60008151905061269281612165565b92915050565b6000602082840312156126ae576126ad61206e565b5b60006126bc84828501612683565b91505092915050565b7f5469746c65457363726f773a20436f6e7472616374206973206e6f742074686560008201527f206f776e6572206f6620746f6b656e0000000000000000000000000000000000602082015250565b6000612721602f8361254e565b915061272c826126c5565b604082019050919050565b6000602082019050818103600083015261275081612714565b9050919050565b7f4861734e616d656442656e65666963696172793a206f6e6c792074686520626560008201527f6e6566696369617279206d617920696e766f6b6520746869732066756e63746960208201527f6f6e000000000000000000000000000000000000000000000000000000000000604082015250565b60006127d960428361254e565b91506127e482612757565b606082019050919050565b60006020820190508181036000830152612808816127cc565b9050919050565b7f5469746c65457363726f773a20436f6e747261637420686173206265656e207560008201527f736564206265666f726500000000000000000000000000000000000000000000602082015250565b600061286b602a8361254e565b91506128768261280f565b604082019050919050565b6000602082019050818103600083015261289a8161285e565b9050919050565b7f5469746c65457363726f773a204f6e6c7920746f6b656e732066726f6d20707260008201527f65646566696e656420746f6b656e2072656769737472792063616e206265206160208201527f6363657074656400000000000000000000000000000000000000000000000000604082015250565b600061292360478361254e565b915061292e826128a1565b606082019050919050565b6000602082019050818103600083015261295281612916565b9050919050565b7f486173486f6c6465723a206f6e6c792074686520686f6c646572206d6179206960008201527f6e766f6b6520746869732066756e6374696f6e00000000000000000000000000602082015250565b60006129b560338361254e565b91506129c082612959565b604082019050919050565b600060208201905081810360008301526129e4816129a8565b9050919050565b7f5469746c65457363726f773a205472616e7366657272696e6720746f2030783060008201527f206973206e6f7420616c6c6f7765640000000000000000000000000000000000602082015250565b6000612a47602f8361254e565b9150612a52826129eb565b604082019050919050565b60006020820190508181036000830152612a7681612a3a565b9050919050565b7f5469746c65457363726f773a2042656e656669636961727920686173206e6f7460008201527f206265656e20656e646f727365642062792062656e6566696369617279000000602082015250565b6000612ad9603d8361254e565b9150612ae482612a7d565b604082019050919050565b60006020820190508181036000830152612b0881612acc565b9050919050565b7f5469746c65457363726f773a20486f6c64657220686173206e6f74206265656e60008201527f20656e646f727365642062792062656e65666963696172790000000000000000602082015250565b6000612b6b60388361254e565b9150612b7682612b0f565b604082019050919050565b60006020820190508181036000830152612b9a81612b5e565b9050919050565b6000606082019050612bb660008301866121be565b612bc360208301856121be565b612bd060408301846121be565b949350505050565b7f5469746c65457363726f773a204e6577206f776e657220686173206e6f74206260008201527f65656e20617070726f7665642062792062656e65666963696172790000000000602082015250565b6000612c34603b8361254e565b9150612c3f82612bd8565b604082019050919050565b60006020820190508181036000830152612c6381612c27565b9050919050565b7f496e697469616c697a61626c653a20636f6e747261637420697320616c72656160008201527f647920696e697469616c697a6564000000000000000000000000000000000000602082015250565b6000612cc6602e8361254e565b9150612cd182612c6a565b604082019050919050565b60006020820190508181036000830152612cf581612cb9565b9050919050565b7f486173486f6c6465723a206e657720686f6c64657220697320746865207a657260008201527f6f20616464726573730000000000000000000000000000000000000000000000602082015250565b6000612d5860298361254e565b9150612d6382612cfc565b604082019050919050565b60006020820190508181036000830152612d8781612d4b565b9050919050565b6000606082019050612da360008301866121be565b612db060208301856121be565b612dbd60408301846123c7565b94935050505056fea264697066735822122048e1ac37c5331b6dac67c572658de2cb75c18c1ceedd5e0a32acc57c725636b764736f6c63430008110033",
  "linkReferences": {},
  "deployedLinkReferences": {}
}