{
  "_format": "hh-sol-artifact-1",
  "contractName": "TradeTrustTokenStandard",
  "sourceName": "contracts/presets/TradeTrustTokenStandard.sol",
  "abi": [
    {
      "inputs": [],
      "stateMutability": "nonpayable",
      "type": "constructor"
    },
    {
      "inputs": [],
      "name": "InvalidAdminAddress",
      "type": "error"
    },
    {
      "inputs": [],
      "name": "InvalidTokenId",
      "type": "error"
    },
    {
      "inputs": [],
      "name": "TokenExists",
      "type": "error"
    },
    {
      "inputs": [],
      "name": "TokenNotSurrendered",
      "type": "error"
    },
    {
      "inputs": [],
      "name": "TransferFailure",
      "type": "error"
    },
    {
      "anonymous": false,
      "inputs": [
        {
          "indexed": false,
          "internalType": "uint8",
          "name": "version",
          "type": "uint8"
        }
      ],
      "name": "Initialized",
      "type": "event"
    },
    {
      "anonymous": false,
      "inputs": [
        {
          "indexed": false,
          "internalType": "address",
          "name": "account",
          "type": "address"
        }
      ],
      "name": "Paused",
      "type": "event"
    },
    {
      "anonymous": false,
      "inputs": [
        {
          "indexed": true,
          "internalType": "bytes32",
          "name": "role",
          "type": "bytes32"
        },
        {
          "indexed": true,
          "internalType": "bytes32",
          "name": "previousAdminRole",
          "type": "bytes32"
        },
        {
          "indexed": true,
          "internalType": "bytes32",
          "name": "newAdminRole",
          "type": "bytes32"
        }
      ],
      "name": "RoleAdminChanged",
      "type": "event"
    },
    {
      "anonymous": false,
      "inputs": [
        {
          "indexed": true,
          "internalType": "bytes32",
          "name": "role",
          "type": "bytes32"
        },
        {
          "indexed": true,
          "internalType": "address",
          "name": "account",
          "type": "address"
        },
        {
          "indexed": true,
          "internalType": "address",
          "name": "sender",
          "type": "address"
        }
      ],
      "name": "RoleGranted",
      "type": "event"
    },
    {
      "anonymous": false,
      "inputs": [
        {
          "indexed": true,
          "internalType": "bytes32",
          "name": "role",
          "type": "bytes32"
        },
        {
          "indexed": true,
          "internalType": "address",
          "name": "account",
          "type": "address"
        },
        {
          "indexed": true,
          "internalType": "address",
          "name": "sender",
          "type": "address"
        }
      ],
      "name": "RoleRevoked",
      "type": "event"
    },
    {
      "anonymous": false,
      "inputs": [
        {
          "indexed": true,
          "internalType": "address",
          "name": "from",
          "type": "address"
        },
        {
          "indexed": true,
          "internalType": "address",
          "name": "to",
          "type": "address"
        },
        {
          "indexed": true,
          "internalType": "uint256",
          "name": "tokenId",
          "type": "uint256"
        }
      ],
      "name": "Transfer",
      "type": "event"
    },
    {
      "anonymous": false,
      "inputs": [
        {
          "indexed": false,
          "internalType": "address",
          "name": "account",
          "type": "address"
        }
      ],
      "name": "Unpaused",
      "type": "event"
    },
    {
      "inputs": [],
      "name": "ACCEPTER_ROLE",
      "outputs": [
        {
          "internalType": "bytes32",
          "name": "",
          "type": "bytes32"
        }
      ],
      "stateMutability": "view",
      "type": "function"
    },
    {
      "inputs": [],
      "name": "DEFAULT_ADMIN_ROLE",
      "outputs": [
        {
          "internalType": "bytes32",
          "name": "",
          "type": "bytes32"
        }
      ],
      "stateMutability": "view",
      "type": "function"
    },
    {
      "inputs": [],
      "name": "MINTER_ROLE",
      "outputs": [
        {
          "internalType": "bytes32",
          "name": "",
          "type": "bytes32"
        }
      ],
      "stateMutability": "view",
      "type": "function"
    },
    {
      "inputs": [],
      "name": "RESTORER_ROLE",
      "outputs": [
        {
          "internalType": "bytes32",
          "name": "",
          "type": "bytes32"
        }
      ],
      "stateMutability": "view",
      "type": "function"
    },
    {
      "inputs": [
        {
          "internalType": "address",
          "name": "owner",
          "type": "address"
        }
      ],
      "name": "balanceOf",
      "outputs": [
        {
          "internalType": "uint256",
          "name": "",
          "type": "uint256"
        }
      ],
      "stateMutability": "view",
      "type": "function"
    },
    {
      "inputs": [
        {
          "internalType": "uint256",
          "name": "tokenId",
          "type": "uint256"
        }
      ],
      "name": "burn",
      "outputs": [],
      "stateMutability": "nonpayable",
      "type": "function"
    },
    {
      "inputs": [],
      "name": "genesis",
      "outputs": [
        {
          "internalType": "uint256",
          "name": "",
          "type": "uint256"
        }
      ],
      "stateMutability": "view",
      "type": "function"
    },
    {
      "inputs": [
        {
          "internalType": "bytes32",
          "name": "role",
          "type": "bytes32"
        }
      ],
      "name": "getRoleAdmin",
      "outputs": [
        {
          "internalType": "bytes32",
          "name": "",
          "type": "bytes32"
        }
      ],
      "stateMutability": "view",
      "type": "function"
    },
    {
      "inputs": [
        {
          "internalType": "bytes32",
          "name": "role",
          "type": "bytes32"
        },
        {
          "internalType": "address",
          "name": "account",
          "type": "address"
        }
      ],
      "name": "grantRole",
      "outputs": [],
      "stateMutability": "nonpayable",
      "type": "function"
    },
    {
      "inputs": [
        {
          "internalType": "bytes32",
          "name": "role",
          "type": "bytes32"
        },
        {
          "internalType": "address",
          "name": "account",
          "type": "address"
        }
      ],
      "name": "hasRole",
      "outputs": [
        {
          "internalType": "bool",
          "name": "",
          "type": "bool"
        }
      ],
      "stateMutability": "view",
      "type": "function"
    },
    {
      "inputs": [
        {
          "internalType": "bytes",
          "name": "params",
          "type": "bytes"
        }
      ],
      "name": "initialize",
      "outputs": [],
      "stateMutability": "nonpayable",
      "type": "function"
    },
    {
      "inputs": [
        {
          "internalType": "address",
          "name": "beneficiary",
          "type": "address"
        },
        {
          "internalType": "address",
          "name": "holder",
          "type": "address"
        },
        {
          "internalType": "uint256",
          "name": "tokenId",
          "type": "uint256"
        }
      ],
      "name": "mint",
      "outputs": [
        {
          "internalType": "address",
          "name": "",
          "type": "address"
        }
      ],
      "stateMutability": "nonpayable",
      "type": "function"
    },
    {
      "inputs": [],
      "name": "name",
      "outputs": [
        {
          "internalType": "string",
          "name": "",
          "type": "string"
        }
      ],
      "stateMutability": "view",
      "type": "function"
    },
    {
      "inputs": [
        {
          "internalType": "address",
          "name": "",
          "type": "address"
        },
        {
          "internalType": "address",
          "name": "",
          "type": "address"
        },
        {
          "internalType": "uint256",
          "name": "",
          "type": "uint256"
        },
        {
          "internalType": "bytes",
          "name": "",
          "type": "bytes"
        }
      ],
      "name": "onERC721Received",
      "outputs": [
        {
          "internalType": "bytes4",
          "name": "",
          "type": "bytes4"
        }
      ],
      "stateMutability": "pure",
      "type": "function"
    },
    {
      "inputs": [
        {
          "internalType": "uint256",
          "name": "tokenId",
          "type": "uint256"
        }
      ],
      "name": "ownerOf",
      "outputs": [
        {
          "internalType": "address",
          "name": "",
          "type": "address"
        }
      ],
      "stateMutability": "view",
      "type": "function"
    },
    {
      "inputs": [],
      "name": "pause",
      "outputs": [],
      "stateMutability": "nonpayable",
      "type": "function"
    },
    {
      "inputs": [],
      "name": "paused",
      "outputs": [
        {
          "internalType": "bool",
          "name": "",
          "type": "bool"
        }
      ],
      "stateMutability": "view",
      "type": "function"
    },
    {
      "inputs": [
        {
          "internalType": "bytes32",
          "name": "role",
          "type": "bytes32"
        },
        {
          "internalType": "address",
          "name": "account",
          "type": "address"
        }
      ],
      "name": "renounceRole",
      "outputs": [],
      "stateMutability": "nonpayable",
      "type": "function"
    },
    {
      "inputs": [
        {
          "internalType": "uint256",
          "name": "tokenId",
          "type": "uint256"
        }
      ],
      "name": "restore",
      "outputs": [
        {
          "internalType": "address",
          "name": "",
          "type": "address"
        }
      ],
      "stateMutability": "nonpayable",
      "type": "function"
    },
    {
      "inputs": [
        {
          "internalType": "bytes32",
          "name": "role",
          "type": "bytes32"
        },
        {
          "internalType": "address",
          "name": "account",
          "type": "address"
        }
      ],
      "name": "revokeRole",
      "outputs": [],
      "stateMutability": "nonpayable",
      "type": "function"
    },
    {
      "inputs": [
        {
          "internalType": "string",
          "name": "baseURI",
          "type": "string"
        }
      ],
      "name": "setBaseURI",
      "outputs": [],
      "stateMutability": "nonpayable",
      "type": "function"
    },
    {
      "inputs": [
        {
          "internalType": "bytes32",
          "name": "role",
          "type": "bytes32"
        },
        {
          "internalType": "bytes32",
          "name": "adminRole",
          "type": "bytes32"
        }
      ],
      "name": "setRoleAdmin",
      "outputs": [],
      "stateMutability": "nonpayable",
      "type": "function"
    },
    {
      "inputs": [
        {
          "internalType": "bytes4",
          "name": "interfaceId",
          "type": "bytes4"
        }
      ],
      "name": "supportsInterface",
      "outputs": [
        {
          "internalType": "bool",
          "name": "",
          "type": "bool"
        }
      ],
      "stateMutability": "view",
      "type": "function"
    },
    {
      "inputs": [],
      "name": "symbol",
      "outputs": [
        {
          "internalType": "string",
          "name": "",
          "type": "string"
        }
      ],
      "stateMutability": "view",
      "type": "function"
    },
    {
      "inputs": [],
      "name": "titleEscrowFactory",
      "outputs": [
        {
          "internalType": "contract ITitleEscrowFactory",
          "name": "",
          "type": "address"
        }
      ],
      "stateMutability": "view",
      "type": "function"
    },
    {
      "inputs": [
        {
          "internalType": "uint256",
          "name": "tokenId",
          "type": "uint256"
        }
      ],
      "name": "tokenURI",
      "outputs": [
        {
          "internalType": "string",
          "name": "",
          "type": "string"
        }
      ],
      "stateMutability": "view",
      "type": "function"
    },
    {
      "inputs": [
        {
          "internalType": "address",
          "name": "from",
          "type": "address"
        },
        {
          "internalType": "address",
          "name": "to",
          "type": "address"
        },
        {
          "internalType": "uint256",
          "name": "tokenId",
          "type": "uint256"
        }
      ],
      "name": "transferFrom",
      "outputs": [],
      "stateMutability": "nonpayable",
      "type": "function"
    },
    {
      "inputs": [],
      "name": "unpause",
      "outputs": [],
      "stateMutability": "nonpayable",
      "type": "function"
    }
  ],
  "bytecode": "0x60806040523480156200001157600080fd5b5060008060019054906101000a900460ff16159050808015620000445750600160008054906101000a900460ff1660ff16105b8062000080575062000061306200016360201b62000fcc1760201c565b1580156200007f5750600160008054906101000a900460ff1660ff16145b5b620000c2576040517f08c379a0000000000000000000000000000000000000000000000000000000008152600401620000b9906200020d565b60405180910390fd5b60016000806101000a81548160ff021916908360ff160217905550801562000100576001600060016101000a81548160ff0219169083151502179055505b80156200015c5760008060016101000a81548160ff0219169083151502179055507f7f26b83ff96e1f2b6a682f133852f6798a09c465da95921460cefb3847402498600160405162000153919062000289565b60405180910390a15b50620002a6565b6000808273ffffffffffffffffffffffffffffffffffffffff163b119050919050565b600082825260208201905092915050565b7f496e697469616c697a61626c653a20636f6e747261637420697320616c72656160008201527f647920696e697469616c697a6564000000000000000000000000000000000000602082015250565b6000620001f5602e8362000186565b9150620002028262000197565b604082019050919050565b600060208201905081810360008301526200022881620001e6565b9050919050565b6000819050919050565b600060ff82169050919050565b6000819050919050565b6000620002716200026b62000265846200022f565b62000246565b62000239565b9050919050565b620002838162000250565b82525050565b6000602082019050620002a0600083018462000278565b92915050565b6146ba80620002b66000396000f3fe608060405234801561001057600080fd5b50600436106101c45760003560e01c80635c975abb116100f95780639bea62ad11610097578063c6c3bbe611610071578063c6c3bbe6146104e1578063c87b56dd14610511578063d539139314610541578063d547741f1461055f576101c4565b80639bea62ad14610475578063a217fddf146104a5578063a7f0b3de146104c3576101c4565b80637fb2977d116100d35780637fb2977d146103ff5780638456cb591461041d57806391d148541461042757806395d89b4114610457576101c4565b80635c975abb146103815780636352211e1461039f57806370a08231146103cf576101c4565b80632f2ff15d116101665780633f4ba83a116101405780633f4ba83a1461032357806342966c681461032d578063439fab911461034957806355f804b314610365576101c4565b80632f2ff15d146102cd578063325689f9146102e957806336568abe14610307576101c4565b8063150b7a02116101a2578063150b7a02146102355780631e4e00911461026557806323b872dd14610281578063248a9ca31461029d576101c4565b806301ffc9a7146101c957806306fdde03146101f957806311d4d7b514610217575b600080fd5b6101e360048036038101906101de9190612d60565b61057b565b6040516101f09190612da8565b60405180910390f35b6102016105d5565b60405161020e9190612e53565b60405180910390f35b61021f610667565b60405161022c9190612e8e565b60405180910390f35b61024f600480360381019061024a9190613072565b61068b565b60405161025c9190613104565b60405180910390f35b61027f600480360381019061027a919061314b565b61069f565b005b61029b6004803603810190610296919061318b565b6106bb565b005b6102b760048036038101906102b291906131de565b61072b565b6040516102c49190612e8e565b60405180910390f35b6102e760048036038101906102e2919061320b565b61074b565b005b6102f161076c565b6040516102fe91906132aa565b60405180910390f35b610321600480360381019061031c919061320b565b610796565b005b61032b610819565b005b610347600480360381019061034291906132c5565b610831565b005b610363600480360381019061035e91906132f2565b610870565b005b61037f600480360381019061037a91906133dc565b610a39565b005b610389610a53565b6040516103969190612da8565b60405180910390f35b6103b960048036038101906103b491906132c5565b610a6a565b6040516103c69190613434565b60405180910390f35b6103e960048036038101906103e4919061344f565b610b1b565b6040516103f6919061348b565b60405180910390f35b610407610bd2565b6040516104149190612e8e565b60405180910390f35b610425610bf6565b005b610441600480360381019061043c919061320b565b610c0e565b60405161044e9190612da8565b60405180910390f35b61045f610c79565b60405161046c9190612e53565b60405180910390f35b61048f600480360381019061048a91906132c5565b610d0b565b60405161049c9190613434565b60405180910390f35b6104ad610e86565b6040516104ba9190612e8e565b60405180910390f35b6104cb610e8d565b6040516104d8919061348b565b60405180910390f35b6104fb60048036038101906104f6919061318b565b610e97565b6040516105089190613434565b60405180910390f35b61052b600480360381019061052691906132c5565b610ee0565b6040516105389190612e53565b60405180910390f35b610549610f87565b6040516105569190612e8e565b60405180910390f35b6105796004803603810190610574919061320b565b610fab565b005b6000807bffffffffffffffffffffffffffffffffffffffffffffffffffffffff1916827bffffffffffffffffffffffffffffffffffffffffffffffffffffffff191614806105ce57506105cd82610fef565b5b9050919050565b6060606580546105e4906134d5565b80601f0160208091040260200160405190810160405280929190818152602001828054610610906134d5565b801561065d5780601f106106325761010080835404028352916020019161065d565b820191906000526020600020905b81548152906001019060200180831161064057829003601f168201915b5050505050905090565b7f4aca127bf16f434830a404b92851a3555910944351935eae88740d1cef5ffaad81565b600063150b7a0260e01b9050949350505050565b6000801b6106ac81611069565b6106b6838361107d565b505050565b6106cc6106c66110d9565b826110e1565b61070b576040517f08c379a000000000000000000000000000000000000000000000000000000000815260040161070290613578565b60405180910390fd5b61072683838360405180602001604052806000815250611170565b505050565b600060c96000838152602001908152602001600020600101549050919050565b6107548261072b565b61075d81611069565b61076783836111cc565b505050565b600060fc60009054906101000a900473ffffffffffffffffffffffffffffffffffffffff16905090565b61079e6110d9565b73ffffffffffffffffffffffffffffffffffffffff168173ffffffffffffffffffffffffffffffffffffffff161461080b576040517f08c379a00000000000000000000000000000000000000000000000000000000081526004016108029061360a565b60405180910390fd5b61081582826112ad565b5050565b6000801b61082681611069565b61082e61138f565b50565b6108396113f2565b7fe5fe4715ff8709ff44f5e6bb664620f9349f5f6ae81a532eba2a43b9598ba7eb61086381611069565b61086c8261143c565b5050565b60008060019054906101000a900460ff161590508080156108a15750600160008054906101000a900460ff1660ff16105b806108ce57506108b030610fcc565b1580156108cd5750600160008054906101000a900460ff1660ff16145b5b61090d576040517f08c379a00000000000000000000000000000000000000000000000000000000081526004016109049061369c565b60405180910390fd5b60016000806101000a81548160ff021916908360ff160217905550801561094a576001600060016101000a81548160ff0219169083151502179055505b60008083806020019051810190610961919061376a565b9150915060008060008480602001905181019061097e9190613836565b9250925092504360fd819055508360fc60006101000a81548173ffffffffffffffffffffffffffffffffffffffff021916908373ffffffffffffffffffffffffffffffffffffffff1602179055506109d7838383611533565b50505050508015610a355760008060016101000a81548160ff0219169083151502179055507f7f26b83ff96e1f2b6a682f133852f6798a09c465da95921460cefb38474024986001604051610a2c9190613909565b60405180910390a15b5050565b6000801b610a4681611069565b610a4f8261159a565b5050565b6000609760009054906101000a900460ff16905090565b6000806067600084815260200190815260200160002060009054906101000a900473ffffffffffffffffffffffffffffffffffffffff169050600073ffffffffffffffffffffffffffffffffffffffff168173ffffffffffffffffffffffffffffffffffffffff1603610b12576040517f08c379a0000000000000000000000000000000000000000000000000000000008152600401610b0990613996565b60405180910390fd5b80915050919050565b60008073ffffffffffffffffffffffffffffffffffffffff168273ffffffffffffffffffffffffffffffffffffffff1603610b8b576040517f08c379a0000000000000000000000000000000000000000000000000000000008152600401610b8290613a28565b60405180910390fd5b606860008373ffffffffffffffffffffffffffffffffffffffff1673ffffffffffffffffffffffffffffffffffffffff168152602001908152602001600020549050919050565b7fe5fe4715ff8709ff44f5e6bb664620f9349f5f6ae81a532eba2a43b9598ba7eb81565b6000801b610c0381611069565b610c0b6115ad565b50565b600060c9600084815260200190815260200160002060000160008373ffffffffffffffffffffffffffffffffffffffff1673ffffffffffffffffffffffffffffffffffffffff16815260200190815260200160002060009054906101000a900460ff16905092915050565b606060668054610c88906134d5565b80601f0160208091040260200160405190810160405280929190818152602001828054610cb4906134d5565b8015610d015780601f10610cd657610100808354040283529160200191610d01565b820191906000526020600020905b815481529060010190602001808311610ce457829003601f168201915b5050505050905090565b6000610d156113f2565b7f4aca127bf16f434830a404b92851a3555910944351935eae88740d1cef5ffaad610d3f81611069565b610d4883611610565b610d7e576040517f3f6cc76800000000000000000000000000000000000000000000000000000000815260040160405180910390fd5b3073ffffffffffffffffffffffffffffffffffffffff16610d9e84610a6a565b73ffffffffffffffffffffffffffffffffffffffff1614610deb576040517f1ed483eb00000000000000000000000000000000000000000000000000000000815260040160405180910390fd5b6000610df561076c565b73ffffffffffffffffffffffffffffffffffffffff16638cb84e1830866040518363ffffffff1660e01b8152600401610e2f929190613a48565b602060405180830381865afa158015610e4c573d6000803e3d6000fd5b505050506040513d601f19601f82011682018060405250810190610e709190613a86565b9050610e7c818561167c565b8092505050919050565b6000801b81565b600060fd54905090565b6000610ea16113f2565b7f9f2df0fed2c77648de5860a4cc508cd0818c85b8b8a1ab4ceeef8d981c8956a6610ecb81611069565b610ed68585856116ef565b9150509392505050565b6060610eeb82611610565b610f2a576040517f08c379a0000000000000000000000000000000000000000000000000000000008152600401610f2190613b25565b60405180910390fd5b6000610f346117ef565b90506000815111610f545760405180602001604052806000815250610f7f565b80610f5e846117fe565b604051602001610f6f929190613b81565b6040516020818303038152906040525b915050919050565b7f9f2df0fed2c77648de5860a4cc508cd0818c85b8b8a1ab4ceeef8d981c8956a681565b610fb48261072b565b610fbd81611069565b610fc783836112ad565b505050565b6000808273ffffffffffffffffffffffffffffffffffffffff163b119050919050565b60007f9bea62ad000000000000000000000000000000000000000000000000000000007bffffffffffffffffffffffffffffffffffffffffffffffffffffffff1916827bffffffffffffffffffffffffffffffffffffffffffffffffffffffff191614806110625750611061826118cc565b5b9050919050565b61107a816110756110d9565b611946565b50565b60006110888361072b565b90508160c96000858152602001908152602001600020600101819055508181847fbd79b86ffe0ab8e8776151514217cd7cacd52c909f66475c3af44e129f0b00ff60405160405180910390a4505050565b600033905090565b60006110ec82611610565b61112b576040517f08c379a000000000000000000000000000000000000000000000000000000000815260040161112290613c17565b60405180910390fd5b600061113683610a6a565b90508073ffffffffffffffffffffffffffffffffffffffff168473ffffffffffffffffffffffffffffffffffffffff161491505092915050565b61117b8484846119cb565b61118784848484611c26565b6111c6576040517f08c379a00000000000000000000000000000000000000000000000000000000081526004016111bd90613ca9565b60405180910390fd5b50505050565b6111d68282610c0e565b6112a957600160c9600084815260200190815260200160002060000160008373ffffffffffffffffffffffffffffffffffffffff1673ffffffffffffffffffffffffffffffffffffffff16815260200190815260200160002060006101000a81548160ff02191690831515021790555061124e6110d9565b73ffffffffffffffffffffffffffffffffffffffff168173ffffffffffffffffffffffffffffffffffffffff16837f2f8788117e7eff1d82e926ec794901d17c78024a50270940304540a733656f0d60405160405180910390a45b5050565b6112b78282610c0e565b1561138b57600060c9600084815260200190815260200160002060000160008373ffffffffffffffffffffffffffffffffffffffff1673ffffffffffffffffffffffffffffffffffffffff16815260200190815260200160002060006101000a81548160ff0219169083151502179055506113306110d9565b73ffffffffffffffffffffffffffffffffffffffff168173ffffffffffffffffffffffffffffffffffffffff16837ff6391f5c32d9c69d2a47ea670b442974b53935d1edc7fd64eb21e047a839171b60405160405180910390a45b5050565b611397611dad565b6000609760006101000a81548160ff0219169083151502179055507f5db9ee0a495bf2e6ff9c91a7834c1ba4fdd244a5e8aa4e537bd38aeae4b073aa6113db6110d9565b6040516113e89190613434565b60405180910390a1565b6113fa610a53565b1561143a576040517f08c379a000000000000000000000000000000000000000000000000000000000815260040161143190613d15565b60405180910390fd5b565b600061144661076c565b73ffffffffffffffffffffffffffffffffffffffff16638cb84e1830846040518363ffffffff1660e01b8152600401611480929190613a48565b602060405180830381865afa15801561149d573d6000803e3d6000fd5b505050506040513d601f19601f820116820180604052508101906114c19190613a86565b90508073ffffffffffffffffffffffffffffffffffffffff16634302885d6040518163ffffffff1660e01b8152600401600060405180830381600087803b15801561150b57600080fd5b505af115801561151f573d6000803e3d6000fd5b5050505061152f61dead8361167c565b5050565b600060019054906101000a900460ff16611582576040517f08c379a000000000000000000000000000000000000000000000000000000000815260040161157990613da7565b60405180910390fd5b61158c8383611df6565b61159581611e5b565b505050565b8060fb90816115a99190613f69565b5050565b6115b56113f2565b6001609760006101000a81548160ff0219169083151502179055507f62e78cea01bee320cd4e420270b5ea74000d11b0c9f74754ebdbfc544b05a2586115f96110d9565b6040516116069190613434565b60405180910390a1565b60008073ffffffffffffffffffffffffffffffffffffffff166067600084815260200190815260200160002060009054906101000a900473ffffffffffffffffffffffffffffffffffffffff1673ffffffffffffffffffffffffffffffffffffffff1614159050919050565b3073ffffffffffffffffffffffffffffffffffffffff166323b872dd3084846040518463ffffffff1660e01b81526004016116b99392919061403b565b600060405180830381600087803b1580156116d357600080fd5b505af11580156116e7573d6000803e3d6000fd5b505050505050565b60006116fa82611610565b15611731576040517f55c7e8ba00000000000000000000000000000000000000000000000000000000815260040160405180910390fd5b600061173b61076c565b73ffffffffffffffffffffffffffffffffffffffff1663780900dc846040518263ffffffff1660e01b8152600401611773919061348b565b6020604051808303816000875af1158015611792573d6000803e3d6000fd5b505050506040513d601f19601f820116820180604052508101906117b69190613a86565b90506117e4818487876040516020016117d0929190614072565b604051602081830303815290604052611f9e565b809150509392505050565b60606117f9611ff9565b905090565b60606000600161180d8461208b565b01905060008167ffffffffffffffff81111561182c5761182b612f47565b5b6040519080825280601f01601f19166020018201604052801561185e5781602001600182028036833780820191505090505b509050600082602001820190505b6001156118c1578080600190039150507f3031323334353637383961626364656600000000000000000000000000000000600a86061a8153600a85816118b5576118b461409b565b5b0494506000850361186c575b819350505050919050565b60007fc6c3bbe6000000000000000000000000000000000000000000000000000000007bffffffffffffffffffffffffffffffffffffffffffffffffffffffff1916827bffffffffffffffffffffffffffffffffffffffffffffffffffffffff1916148061193f575061193e826121de565b5b9050919050565b6119508282610c0e565b6119c75761195d81612258565b61196b8360001c6020612285565b60405160200161197c929190614162565b6040516020818303038152906040526040517f08c379a00000000000000000000000000000000000000000000000000000000081526004016119be9190612e53565b60405180910390fd5b5050565b8273ffffffffffffffffffffffffffffffffffffffff166119eb82610a6a565b73ffffffffffffffffffffffffffffffffffffffff1614611a41576040517f08c379a0000000000000000000000000000000000000000000000000000000008152600401611a389061420e565b60405180910390fd5b600073ffffffffffffffffffffffffffffffffffffffff168273ffffffffffffffffffffffffffffffffffffffff1603611ab0576040517f08c379a0000000000000000000000000000000000000000000000000000000008152600401611aa7906142a0565b60405180910390fd5b611abb8383836124c1565b6001606860008573ffffffffffffffffffffffffffffffffffffffff1673ffffffffffffffffffffffffffffffffffffffff1681526020019081526020016000206000828254611b0b91906142ef565b925050819055506001606860008473ffffffffffffffffffffffffffffffffffffffff1673ffffffffffffffffffffffffffffffffffffffff1681526020019081526020016000206000828254611b629190614323565b92505081905550816067600083815260200190815260200160002060006101000a81548173ffffffffffffffffffffffffffffffffffffffff021916908373ffffffffffffffffffffffffffffffffffffffff160217905550808273ffffffffffffffffffffffffffffffffffffffff168473ffffffffffffffffffffffffffffffffffffffff167fddf252ad1be2c89b69c2b068fc378daa952ba7f163c4a11628f55a4df523b3ef60405160405180910390a4611c2183838361263a565b505050565b6000611c478473ffffffffffffffffffffffffffffffffffffffff16610fcc565b15611da0578373ffffffffffffffffffffffffffffffffffffffff1663150b7a02611c706110d9565b8786866040518563ffffffff1660e01b8152600401611c9294939291906143ac565b6020604051808303816000875af1925050508015611cce57506040513d601f19601f82011682018060405250810190611ccb919061440d565b60015b611d50573d8060008114611cfe576040519150601f19603f3d011682016040523d82523d6000602084013e611d03565b606091505b506000815103611d48576040517f08c379a0000000000000000000000000000000000000000000000000000000008152600401611d3f90613ca9565b60405180910390fd5b805181602001fd5b63150b7a0260e01b7bffffffffffffffffffffffffffffffffffffffffffffffffffffffff1916817bffffffffffffffffffffffffffffffffffffffffffffffffffffffff191614915050611da5565b600190505b949350505050565b611db5610a53565b611df4576040517f08c379a0000000000000000000000000000000000000000000000000000000008152600401611deb90614486565b60405180910390fd5b565b600060019054906101000a900460ff16611e45576040517f08c379a0000000000000000000000000000000000000000000000000000000008152600401611e3c90613da7565b60405180910390fd5b611e4f828261263f565b611e5761269c565b5050565b600060019054906101000a900460ff16611eaa576040517f08c379a0000000000000000000000000000000000000000000000000000000008152600401611ea190613da7565b60405180910390fd5b600073ffffffffffffffffffffffffffffffffffffffff168173ffffffffffffffffffffffffffffffffffffffff1603611f10576040517f05bb467c00000000000000000000000000000000000000000000000000000000815260040160405180910390fd5b611f1d6000801b826126f5565b611f477f9f2df0fed2c77648de5860a4cc508cd0818c85b8b8a1ab4ceeef8d981c8956a6826126f5565b611f717f4aca127bf16f434830a404b92851a3555910944351935eae88740d1cef5ffaad826126f5565b611f9b7fe5fe4715ff8709ff44f5e6bb664620f9349f5f6ae81a532eba2a43b9598ba7eb826126f5565b50565b611fa88383612703565b611fb56000848484611c26565b611ff4576040517f08c379a0000000000000000000000000000000000000000000000000000000008152600401611feb90613ca9565b60405180910390fd5b505050565b606060fb8054612008906134d5565b80601f0160208091040260200160405190810160405280929190818152602001828054612034906134d5565b80156120815780601f1061205657610100808354040283529160200191612081565b820191906000526020600020905b81548152906001019060200180831161206457829003601f168201915b5050505050905090565b600080600090507a184f03e93ff9f4daa797ed6e38ed64bf6a1f01000000000000000083106120e9577a184f03e93ff9f4daa797ed6e38ed64bf6a1f01000000000000000083816120df576120de61409b565b5b0492506040810190505b6d04ee2d6d415b85acef81000000008310612126576d04ee2d6d415b85acef8100000000838161211c5761211b61409b565b5b0492506020810190505b662386f26fc10000831061215557662386f26fc10000838161214b5761214a61409b565b5b0492506010810190505b6305f5e100831061217e576305f5e10083816121745761217361409b565b5b0492506008810190505b61271083106121a35761271083816121995761219861409b565b5b0492506004810190505b606483106121c657606483816121bc576121bb61409b565b5b0492506002810190505b600a83106121d5576001810190505b80915050919050565b60007f42966c68000000000000000000000000000000000000000000000000000000007bffffffffffffffffffffffffffffffffffffffffffffffffffffffff1916827bffffffffffffffffffffffffffffffffffffffffffffffffffffffff191614806122515750612250826128dc565b5b9050919050565b606061227e8273ffffffffffffffffffffffffffffffffffffffff16601460ff16612285565b9050919050565b60606000600283600261229891906144a6565b6122a29190614323565b67ffffffffffffffff8111156122bb576122ba612f47565b5b6040519080825280601f01601f1916602001820160405280156122ed5781602001600182028036833780820191505090505b5090507f300000000000000000000000000000000000000000000000000000000000000081600081518110612325576123246144e8565b5b60200101907effffffffffffffffffffffffffffffffffffffffffffffffffffffffffffff1916908160001a9053507f780000000000000000000000000000000000000000000000000000000000000081600181518110612389576123886144e8565b5b60200101907effffffffffffffffffffffffffffffffffffffffffffffffffffffffffffff1916908160001a905350600060018460026123c991906144a6565b6123d39190614323565b90505b6001811115612473577f3031323334353637383961626364656600000000000000000000000000000000600f861660108110612415576124146144e8565b5b1a60f81b82828151811061242c5761242b6144e8565b5b60200101907effffffffffffffffffffffffffffffffffffffffffffffffffffffffffffff1916908160001a905350600485901c94508061246c90614517565b90506123d6565b50600084146124b7576040517f08c379a00000000000000000000000000000000000000000000000000000000081526004016124ae9061458c565b60405180910390fd5b8091505092915050565b6124c96113f2565b6124d48383836128ee565b60006124de61076c565b73ffffffffffffffffffffffffffffffffffffffff16638cb84e1830846040518363ffffffff1660e01b8152600401612518929190613a48565b602060405180830381865afa158015612535573d6000803e3d6000fd5b505050506040513d601f19601f820116820180604052508101906125599190613a86565b90503073ffffffffffffffffffffffffffffffffffffffff168373ffffffffffffffffffffffffffffffffffffffff16141580156125c357508073ffffffffffffffffffffffffffffffffffffffff168373ffffffffffffffffffffffffffffffffffffffff1614155b80156125fd575061dead73ffffffffffffffffffffffffffffffffffffffff168373ffffffffffffffffffffffffffffffffffffffff1614155b15612634576040517ff7e6817a00000000000000000000000000000000000000000000000000000000815260040160405180910390fd5b50505050565b505050565b600060019054906101000a900460ff1661268e576040517f08c379a000000000000000000000000000000000000000000000000000000000815260040161268590613da7565b60405180910390fd5b61269882826129a6565b5050565b600060019054906101000a900460ff166126eb576040517f08c379a00000000000000000000000000000000000000000000000000000000081526004016126e290613da7565b60405180910390fd5b6126f3612a19565b565b6126ff82826111cc565b5050565b600073ffffffffffffffffffffffffffffffffffffffff168273ffffffffffffffffffffffffffffffffffffffff1603612772576040517f08c379a0000000000000000000000000000000000000000000000000000000008152600401612769906145f8565b60405180910390fd5b61277b81611610565b156127bb576040517f08c379a00000000000000000000000000000000000000000000000000000000081526004016127b290614664565b60405180910390fd5b6127c7600083836124c1565b6001606860008473ffffffffffffffffffffffffffffffffffffffff1673ffffffffffffffffffffffffffffffffffffffff16815260200190815260200160002060008282546128179190614323565b92505081905550816067600083815260200190815260200160002060006101000a81548173ffffffffffffffffffffffffffffffffffffffff021916908373ffffffffffffffffffffffffffffffffffffffff160217905550808273ffffffffffffffffffffffffffffffffffffffff16600073ffffffffffffffffffffffffffffffffffffffff167fddf252ad1be2c89b69c2b068fc378daa952ba7f163c4a11628f55a4df523b3ef60405160405180910390a46128d86000838361263a565b5050565b60006128e782612a85565b9050919050565b61dead73ffffffffffffffffffffffffffffffffffffffff168273ffffffffffffffffffffffffffffffffffffffff1614801561295f57503073ffffffffffffffffffffffffffffffffffffffff1661294682610a6a565b73ffffffffffffffffffffffffffffffffffffffff1614155b15612996576040517f1ed483eb00000000000000000000000000000000000000000000000000000000815260040160405180910390fd5b6129a1838383612a97565b505050565b600060019054906101000a900460ff166129f5576040517f08c379a00000000000000000000000000000000000000000000000000000000081526004016129ec90613da7565b60405180910390fd5b8160659081612a049190613f69565b508060669081612a149190613f69565b505050565b600060019054906101000a900460ff16612a68576040517f08c379a0000000000000000000000000000000000000000000000000000000008152600401612a5f90613da7565b60405180910390fd5b6000609760006101000a81548160ff021916908315150217905550565b6000612a9082612aaf565b9050919050565b612a9f6113f2565b612aaa838383612b29565b505050565b60007f7965db0b000000000000000000000000000000000000000000000000000000007bffffffffffffffffffffffffffffffffffffffffffffffffffffffff1916827bffffffffffffffffffffffffffffffffffffffffffffffffffffffff19161480612b225750612b2182612b2e565b5b9050919050565b505050565b60007f95a63a27000000000000000000000000000000000000000000000000000000007bffffffffffffffffffffffffffffffffffffffffffffffffffffffff1916827bffffffffffffffffffffffffffffffffffffffffffffffffffffffff19161480612ba15750612ba082612ba8565b5b9050919050565b60007f304ad1f2000000000000000000000000000000000000000000000000000000007bffffffffffffffffffffffffffffffffffffffffffffffffffffffff1916827bffffffffffffffffffffffffffffffffffffffffffffffffffffffff19161480612c7357507f5b5e139f000000000000000000000000000000000000000000000000000000007bffffffffffffffffffffffffffffffffffffffffffffffffffffffff1916827bffffffffffffffffffffffffffffffffffffffffffffffffffffffff1916145b80612c835750612c8282612c8a565b5b9050919050565b60007f01ffc9a7000000000000000000000000000000000000000000000000000000007bffffffffffffffffffffffffffffffffffffffffffffffffffffffff1916827bffffffffffffffffffffffffffffffffffffffffffffffffffffffff1916149050919050565b6000604051905090565b600080fd5b600080fd5b60007fffffffff0000000000000000000000000000000000000000000000000000000082169050919050565b612d3d81612d08565b8114612d4857600080fd5b50565b600081359050612d5a81612d34565b92915050565b600060208284031215612d7657612d75612cfe565b5b6000612d8484828501612d4b565b91505092915050565b60008115159050919050565b612da281612d8d565b82525050565b6000602082019050612dbd6000830184612d99565b92915050565b600081519050919050565b600082825260208201905092915050565b60005b83811015612dfd578082015181840152602081019050612de2565b60008484015250505050565b6000601f19601f8301169050919050565b6000612e2582612dc3565b612e2f8185612dce565b9350612e3f818560208601612ddf565b612e4881612e09565b840191505092915050565b60006020820190508181036000830152612e6d8184612e1a565b905092915050565b6000819050919050565b612e8881612e75565b82525050565b6000602082019050612ea36000830184612e7f565b92915050565b600073ffffffffffffffffffffffffffffffffffffffff82169050919050565b6000612ed482612ea9565b9050919050565b612ee481612ec9565b8114612eef57600080fd5b50565b600081359050612f0181612edb565b92915050565b6000819050919050565b612f1a81612f07565b8114612f2557600080fd5b50565b600081359050612f3781612f11565b92915050565b600080fd5b600080fd5b7f4e487b7100000000000000000000000000000000000000000000000000000000600052604160045260246000fd5b612f7f82612e09565b810181811067ffffffffffffffff82111715612f9e57612f9d612f47565b5b80604052505050565b6000612fb1612cf4565b9050612fbd8282612f76565b919050565b600067ffffffffffffffff821115612fdd57612fdc612f47565b5b612fe682612e09565b9050602081019050919050565b82818337600083830152505050565b600061301561301084612fc2565b612fa7565b90508281526020810184848401111561303157613030612f42565b5b61303c848285612ff3565b509392505050565b600082601f83011261305957613058612f3d565b5b8135613069848260208601613002565b91505092915050565b6000806000806080858703121561308c5761308b612cfe565b5b600061309a87828801612ef2565b94505060206130ab87828801612ef2565b93505060406130bc87828801612f28565b925050606085013567ffffffffffffffff8111156130dd576130dc612d03565b5b6130e987828801613044565b91505092959194509250565b6130fe81612d08565b82525050565b600060208201905061311960008301846130f5565b92915050565b61312881612e75565b811461313357600080fd5b50565b6000813590506131458161311f565b92915050565b6000806040838503121561316257613161612cfe565b5b600061317085828601613136565b925050602061318185828601613136565b9150509250929050565b6000806000606084860312156131a4576131a3612cfe565b5b60006131b286828701612ef2565b93505060206131c386828701612ef2565b92505060406131d486828701612f28565b9150509250925092565b6000602082840312156131f4576131f3612cfe565b5b600061320284828501613136565b91505092915050565b6000806040838503121561322257613221612cfe565b5b600061323085828601613136565b925050602061324185828601612ef2565b9150509250929050565b6000819050919050565b600061327061326b61326684612ea9565b61324b565b612ea9565b9050919050565b600061328282613255565b9050919050565b600061329482613277565b9050919050565b6132a481613289565b82525050565b60006020820190506132bf600083018461329b565b92915050565b6000602082840312156132db576132da612cfe565b5b60006132e984828501612f28565b91505092915050565b60006020828403121561330857613307612cfe565b5b600082013567ffffffffffffffff81111561332657613325612d03565b5b61333284828501613044565b91505092915050565b600067ffffffffffffffff82111561335657613355612f47565b5b61335f82612e09565b9050602081019050919050565b600061337f61337a8461333b565b612fa7565b90508281526020810184848401111561339b5761339a612f42565b5b6133a6848285612ff3565b509392505050565b600082601f8301126133c3576133c2612f3d565b5b81356133d384826020860161336c565b91505092915050565b6000602082840312156133f2576133f1612cfe565b5b600082013567ffffffffffffffff8111156134105761340f612d03565b5b61341c848285016133ae565b91505092915050565b61342e81612ec9565b82525050565b60006020820190506134496000830184613425565b92915050565b60006020828403121561346557613464612cfe565b5b600061347384828501612ef2565b91505092915050565b61348581612f07565b82525050565b60006020820190506134a0600083018461347c565b92915050565b7f4e487b7100000000000000000000000000000000000000000000000000000000600052602260045260246000fd5b600060028204905060018216806134ed57607f821691505b602082108103613500576134ff6134a6565b5b50919050565b7f4552433732313a207472616e736665722063616c6c6572206973206e6f74206f60008201527f776e6572206e6f7220617070726f766564000000000000000000000000000000602082015250565b6000613562603183612dce565b915061356d82613506565b604082019050919050565b6000602082019050818103600083015261359181613555565b9050919050565b7f416363657373436f6e74726f6c3a2063616e206f6e6c792072656e6f756e636560008201527f20726f6c657320666f722073656c660000000000000000000000000000000000602082015250565b60006135f4602f83612dce565b91506135ff82613598565b604082019050919050565b60006020820190508181036000830152613623816135e7565b9050919050565b7f496e697469616c697a61626c653a20636f6e747261637420697320616c72656160008201527f647920696e697469616c697a6564000000000000000000000000000000000000602082015250565b6000613686602e83612dce565b91506136918261362a565b604082019050919050565b600060208201905081810360008301526136b581613679565b9050919050565b60006136cf6136ca84612fc2565b612fa7565b9050828152602081018484840111156136eb576136ea612f42565b5b6136f6848285612ddf565b509392505050565b600082601f83011261371357613712612f3d565b5b81516137238482602086016136bc565b91505092915050565b600061373782612ea9565b9050919050565b6137478161372c565b811461375257600080fd5b50565b6000815190506137648161373e565b92915050565b6000806040838503121561378157613780612cfe565b5b600083015167ffffffffffffffff81111561379f5761379e612d03565b5b6137ab858286016136fe565b92505060206137bc85828601613755565b9150509250929050565b60006137d96137d48461333b565b612fa7565b9050828152602081018484840111156137f5576137f4612f42565b5b613800848285612ddf565b509392505050565b600082601f83011261381d5761381c612f3d565b5b815161382d8482602086016137c6565b91505092915050565b60008060006060848603121561384f5761384e612cfe565b5b600084015167ffffffffffffffff81111561386d5761386c612d03565b5b61387986828701613808565b935050602084015167ffffffffffffffff81111561389a57613899612d03565b5b6138a686828701613808565b92505060406138b786828701613755565b9150509250925092565b6000819050919050565b600060ff82169050919050565b60006138f36138ee6138e9846138c1565b61324b565b6138cb565b9050919050565b613903816138d8565b82525050565b600060208201905061391e60008301846138fa565b92915050565b7f4552433732313a206f776e657220717565727920666f72206e6f6e657869737460008201527f656e7420746f6b656e0000000000000000000000000000000000000000000000602082015250565b6000613980602983612dce565b915061398b82613924565b604082019050919050565b600060208201905081810360008301526139af81613973565b9050919050565b7f4552433732313a2062616c616e636520717565727920666f7220746865207a6560008201527f726f206164647265737300000000000000000000000000000000000000000000602082015250565b6000613a12602a83612dce565b9150613a1d826139b6565b604082019050919050565b60006020820190508181036000830152613a4181613a05565b9050919050565b6000604082019050613a5d6000830185613425565b613a6a602083018461347c565b9392505050565b600081519050613a8081612edb565b92915050565b600060208284031215613a9c57613a9b612cfe565b5b6000613aaa84828501613a71565b91505092915050565b7f4552433732314d657461646174613a2055524920717565727920666f72206e6f60008201527f6e6578697374656e7420746f6b656e0000000000000000000000000000000000602082015250565b6000613b0f602f83612dce565b9150613b1a82613ab3565b604082019050919050565b60006020820190508181036000830152613b3e81613b02565b9050919050565b600081905092915050565b6000613b5b82612dc3565b613b658185613b45565b9350613b75818560208601612ddf565b80840191505092915050565b6000613b8d8285613b50565b9150613b998284613b50565b91508190509392505050565b7f4552433732313a206f70657261746f7220717565727920666f72206e6f6e657860008201527f697374656e7420746f6b656e0000000000000000000000000000000000000000602082015250565b6000613c01602c83612dce565b9150613c0c82613ba5565b604082019050919050565b60006020820190508181036000830152613c3081613bf4565b9050919050565b7f4552433732313a207472616e7366657220746f206e6f6e20455243373231526560008201527f63656976657220696d706c656d656e7465720000000000000000000000000000602082015250565b6000613c93603283612dce565b9150613c9e82613c37565b604082019050919050565b60006020820190508181036000830152613cc281613c86565b9050919050565b7f5061757361626c653a2070617573656400000000000000000000000000000000600082015250565b6000613cff601083612dce565b9150613d0a82613cc9565b602082019050919050565b60006020820190508181036000830152613d2e81613cf2565b9050919050565b7f496e697469616c697a61626c653a20636f6e7472616374206973206e6f74206960008201527f6e697469616c697a696e67000000000000000000000000000000000000000000602082015250565b6000613d91602b83612dce565b9150613d9c82613d35565b604082019050919050565b60006020820190508181036000830152613dc081613d84565b9050919050565b60008190508160005260206000209050919050565b60006020601f8301049050919050565b600082821b905092915050565b600060088302613e297fffffffffffffffffffffffffffffffffffffffffffffffffffffffffffffffff82613dec565b613e338683613dec565b95508019841693508086168417925050509392505050565b6000613e66613e61613e5c84612f07565b61324b565b612f07565b9050919050565b6000819050919050565b613e8083613e4b565b613e94613e8c82613e6d565b848454613df9565b825550505050565b600090565b613ea9613e9c565b613eb4818484613e77565b505050565b5b81811015613ed857613ecd600082613ea1565b600181019050613eba565b5050565b601f821115613f1d57613eee81613dc7565b613ef784613ddc565b81016020851015613f06578190505b613f1a613f1285613ddc565b830182613eb9565b50505b505050565b600082821c905092915050565b6000613f4060001984600802613f22565b1980831691505092915050565b6000613f598383613f2f565b9150826002028217905092915050565b613f7282612dc3565b67ffffffffffffffff811115613f8b57613f8a612f47565b5b613f9582546134d5565b613fa0828285613edc565b600060209050601f831160018114613fd35760008415613fc1578287015190505b613fcb8582613f4d565b865550614033565b601f198416613fe186613dc7565b60005b8281101561400957848901518255600182019150602085019450602081019050613fe4565b868310156140265784890151614022601f891682613f2f565b8355505b6001600288020188555050505b505050505050565b60006060820190506140506000830186613425565b61405d6020830185613425565b61406a604083018461347c565b949350505050565b60006040820190506140876000830185613425565b6140946020830184613425565b9392505050565b7f4e487b7100000000000000000000000000000000000000000000000000000000600052601260045260246000fd5b7f416363657373436f6e74726f6c3a206163636f756e7420000000000000000000600082015250565b6000614100601783613b45565b915061410b826140ca565b601782019050919050565b7f206973206d697373696e6720726f6c6520000000000000000000000000000000600082015250565b600061414c601183613b45565b915061415782614116565b601182019050919050565b600061416d826140f3565b91506141798285613b50565b91506141848261413f565b91506141908284613b50565b91508190509392505050565b7f4552433732313a207472616e736665722066726f6d20696e636f72726563742060008201527f6f776e6572000000000000000000000000000000000000000000000000000000602082015250565b60006141f8602583612dce565b91506142038261419c565b604082019050919050565b60006020820190508181036000830152614227816141eb565b9050919050565b7f4552433732313a207472616e7366657220746f20746865207a65726f2061646460008201527f7265737300000000000000000000000000000000000000000000000000000000602082015250565b600061428a602483612dce565b91506142958261422e565b604082019050919050565b600060208201905081810360008301526142b98161427d565b9050919050565b7f4e487b7100000000000000000000000000000000000000000000000000000000600052601160045260246000fd5b60006142fa82612f07565b915061430583612f07565b925082820390508181111561431d5761431c6142c0565b5b92915050565b600061432e82612f07565b915061433983612f07565b9250828201905080821115614351576143506142c0565b5b92915050565b600081519050919050565b600082825260208201905092915050565b600061437e82614357565b6143888185614362565b9350614398818560208601612ddf565b6143a181612e09565b840191505092915050565b60006080820190506143c16000830187613425565b6143ce6020830186613425565b6143db604083018561347c565b81810360608301526143ed8184614373565b905095945050505050565b60008151905061440781612d34565b92915050565b60006020828403121561442357614422612cfe565b5b6000614431848285016143f8565b91505092915050565b7f5061757361626c653a206e6f7420706175736564000000000000000000000000600082015250565b6000614470601483612dce565b915061447b8261443a565b602082019050919050565b6000602082019050818103600083015261449f81614463565b9050919050565b60006144b182612f07565b91506144bc83612f07565b92508282026144ca81612f07565b915082820484148315176144e1576144e06142c0565b5b5092915050565b7f4e487b7100000000000000000000000000000000000000000000000000000000600052603260045260246000fd5b600061452282612f07565b915060008203614535576145346142c0565b5b600182039050919050565b7f537472696e67733a20686578206c656e67746820696e73756666696369656e74600082015250565b6000614576602083612dce565b915061458182614540565b602082019050919050565b600060208201905081810360008301526145a581614569565b9050919050565b7f4552433732313a206d696e7420746f20746865207a65726f2061646472657373600082015250565b60006145e2602083612dce565b91506145ed826145ac565b602082019050919050565b60006020820190508181036000830152614611816145d5565b9050919050565b7f4552433732313a20746f6b656e20616c7265616479206d696e74656400000000600082015250565b600061464e601c83612dce565b915061465982614618565b602082019050919050565b6000602082019050818103600083015261467d81614641565b905091905056fea2646970667358221220bb9dce9ddc7db8646a0cf358d1fdc8995e2c5193af8747c87088d685f91abad464736f6c63430008110033",
  "linkReferences": {},
  "deployedLinkReferences": {}
}