{
  "_format": "hh-sol-artifact-1",
  "contractName": "TitleEscrowFactory",
  "sourceName": "contracts/TitleEscrowFactory.sol",
  "abi": [
    {
      "inputs": [],
      "stateMutability": "nonpayable",
      "type": "constructor"
    },
    {
      "inputs": [],
      "name": "CreateCallerNotContract",
      "type": "error"
    },
    {
      "anonymous": false,
      "inputs": [
        {
          "indexed": true,
          "internalType": "address",
          "name": "titleEscrow",
          "type": "address"
        },
        {
          "indexed": true,
          "internalType": "address",
          "name": "tokenRegistry",
          "type": "address"
        },
        {
          "indexed": true,
          "internalType": "uint256",
          "name": "tokenId",
          "type": "uint256"
        }
      ],
      "name": "TitleEscrowCreated",
      "type": "event"
    },
    {
      "inputs": [
        {
          "internalType": "uint256",
          "name": "tokenId",
          "type": "uint256"
        }
      ],
      "name": "create",
      "outputs": [
        {
          "internalType": "address",
          "name": "",
          "type": "address"
        }
      ],
      "stateMutability": "nonpayable",
      "type": "function"
    },
    {
      "inputs": [
        {
          "internalType": "address",
          "name": "tokenRegistry",
          "type": "address"
        },
        {
          "internalType": "uint256",
          "name": "tokenId",
          "type": "uint256"
        }
      ],
      "name": "getAddress",
      "outputs": [
        {
          "internalType": "address",
          "name": "",
          "type": "address"
        }
      ],
      "stateMutability": "view",
      "type": "function"
    },
    {
      "inputs": [],
      "name": "implementation",
      "outputs": [
        {
          "internalType": "address",
          "name": "",
          "type": "address"
        }
      ],
      "stateMutability": "view",
      "type": "function"
    }
  ],
  "bytecode": "0x608060405234801561001057600080fd5b5060405161001d9061007e565b604051809103906000f080158015610039573d6000803e3d6000fd5b506000806101000a81548173ffffffffffffffffffffffffffffffffffffffff021916908373ffffffffffffffffffffffffffffffffffffffff16021790555061008b565b61274b8061075483390190565b6106ba8061009a6000396000f3fe608060405234801561001057600080fd5b50600436106100415760003560e01c80635c60da1b14610046578063780900dc146100645780638cb84e1814610094575b600080fd5b61004e6100c4565b60405161005b919061044b565b60405180910390f35b61007e600480360381019061007991906104a1565b6100e8565b60405161008b919061044b565b60405180910390f35b6100ae60048036038101906100a991906104fa565b61027c565b6040516100bb919061044b565b60405180910390f35b60008054906101000a900473ffffffffffffffffffffffffffffffffffffffff1681565b60003373ffffffffffffffffffffffffffffffffffffffff163273ffffffffffffffffffffffffffffffffffffffff160361014f576040517f9c41825400000000000000000000000000000000000000000000000000000000815260040160405180910390fd5b600033836040516020016101649291906105a3565b60405160208183030381529060405280519060200120905060006101a860008054906101000a900473ffffffffffffffffffffffffffffffffffffffff16836102d8565b90508073ffffffffffffffffffffffffffffffffffffffff1663cd6dc68733866040518363ffffffff1660e01b81526004016101e59291906105de565b600060405180830381600087803b1580156101ff57600080fd5b505af1158015610213573d6000803e3d6000fd5b50505050833373ffffffffffffffffffffffffffffffffffffffff168273ffffffffffffffffffffffffffffffffffffffff167fb0bd455d052e922edbbe2a529486dc0e6d64ed15f689ed2f018684d5dbfbf99460405160405180910390a48092505050919050565b60006102d060008054906101000a900473ffffffffffffffffffffffffffffffffffffffff1684846040516020016102b59291906105a3565b60405160208183030381529060405280519060200120610394565b905092915050565b6000763d602d80600a3d3981f3363d3d373d3d3d363d730000008360601b60e81c176000526e5af43d82803e903d91602b57fd5bf38360781b1760205281603760096000f59050600073ffffffffffffffffffffffffffffffffffffffff168173ffffffffffffffffffffffffffffffffffffffff160361038e576040517f08c379a000000000000000000000000000000000000000000000000000000000815260040161038590610664565b60405180910390fd5b92915050565b60006103a18383306103a9565b905092915050565b60006040518260388201526f5af43d82803e903d91602b57fd5bf3ff6024820152846014820152733d602d80600a3d3981f3363d3d373d3d3d363d7381528360588201526037600c8201206078820152605560438201209150509392505050565b600073ffffffffffffffffffffffffffffffffffffffff82169050919050565b60006104358261040a565b9050919050565b6104458161042a565b82525050565b6000602082019050610460600083018461043c565b92915050565b600080fd5b6000819050919050565b61047e8161046b565b811461048957600080fd5b50565b60008135905061049b81610475565b92915050565b6000602082840312156104b7576104b6610466565b5b60006104c58482850161048c565b91505092915050565b6104d78161042a565b81146104e257600080fd5b50565b6000813590506104f4816104ce565b92915050565b6000806040838503121561051157610510610466565b5b600061051f858286016104e5565b92505060206105308582860161048c565b9150509250929050565b60008160601b9050919050565b60006105528261053a565b9050919050565b600061056482610547565b9050919050565b61057c6105778261042a565b610559565b82525050565b6000819050919050565b61059d6105988261046b565b610582565b82525050565b60006105af828561056b565b6014820191506105bf828461058c565b6020820191508190509392505050565b6105d88161046b565b82525050565b60006040820190506105f3600083018561043c565b61060060208301846105cf565b9392505050565b600082825260208201905092915050565b7f455243313136373a2063726561746532206661696c6564000000000000000000600082015250565b600061064e601783610607565b915061065982610618565b602082019050919050565b6000602082019050818103600083015261067d81610641565b905091905056fea2646970667358221220e152d6d85a3712b07cc1366c3bb403d0385d5a3f9a82444a1df2f84f9bb595c364736f6c6343000811003360806040523480156200001157600080fd5b5060008060019054906101000a900460ff16159050808015620000445750600160008054906101000a900460ff1660ff16105b8062000080575062000061306200016360201b620019211760201c565b1580156200007f5750600160008054906101000a900460ff1660ff16145b5b620000c2576040517f08c379a0000000000000000000000000000000000000000000000000000000008152600401620000b9906200020d565b60405180910390fd5b60016000806101000a81548160ff021916908360ff160217905550801562000100576001600060016101000a81548160ff0219169083151502179055505b80156200015c5760008060016101000a81548160ff0219169083151502179055507f7f26b83ff96e1f2b6a682f133852f6798a09c465da95921460cefb3847402498600160405162000153919062000289565b60405180910390a15b50620002a6565b6000808273ffffffffffffffffffffffffffffffffffffffff163b119050919050565b600082825260208201905092915050565b7f496e697469616c697a61626c653a20636f6e747261637420697320616c72656160008201527f647920696e697469616c697a6564000000000000000000000000000000000000602082015250565b6000620001f5602e8362000186565b9150620002028262000197565b604082019050919050565b600060208201905081810360008301526200022881620001e6565b9050919050565b6000819050919050565b600060ff82169050919050565b6000819050919050565b6000620002716200026b62000265846200022f565b62000246565b62000239565b9050919050565b620002838162000250565b82525050565b6000602082019050620002a0600083018462000278565b92915050565b61249580620002b66000396000f3fe608060405234801561001057600080fd5b50600436106101005760003560e01c80637b10399911610097578063cd6dc68711610066578063cd6dc68714610265578063e534155d14610281578063f35ba2411461029f578063fd4c9b96146102bb57610100565b80637b10399914610203578063b332180b14610221578063b71c47a21461023d578063c9437e5e1461024757610100565b806317d70f7c116100d357806317d70f7c1461019f57806320f99c0a146101bd57806338af3eed146101db5780634302885d146101f957610100565b806301ffc9a71461010557806302fb0c5e1461013557806314bbe21c14610153578063150b7a021461016f575b600080fd5b61011f600480360381019061011a9190611e0c565b6102d7565b60405161012c9190611e54565b60405180910390f35b61013d610341565b60405161014a9190611e54565b60405180910390f35b61016d60048036038101906101689190611ecd565b610354565b005b61018960048036038101906101849190611f95565b61069f565b604051610196919061202c565b60405180910390f35b6101a7610b53565b6040516101b49190612056565b60405180910390f35b6101c5610b59565b6040516101d29190612080565b60405180910390f35b6101e3610b7f565b6040516101f09190612080565b60405180910390f35b610201610ba5565b005b61020b610e17565b6040516102189190612080565b60405180910390f35b61023b60048036038101906102369190611ecd565b610e3d565b005b61024561112f565b005b61024f6114c3565b60405161025c9190611e54565b60405180910390f35b61027f600480360381019061027a919061209b565b6114d2565b005b610289611614565b6040516102969190612080565b60405180910390f35b6102b960048036038101906102b491906120db565b61163a565b005b6102d560048036038101906102d09190611ecd565b611650565b005b60007f079dff60000000000000000000000000000000000000000000000000000000007bffffffffffffffffffffffffffffffffffffffffffffffffffffffff1916827bffffffffffffffffffffffffffffffffffffffffffffffffffffffff1916149050919050565b600460149054906101000a900460ff1681565b60008060029054906101000a900473ffffffffffffffffffffffffffffffffffffffff1673ffffffffffffffffffffffffffffffffffffffff16635c975abb6040518163ffffffff1660e01b8152600401602060405180830381865afa1580156103c2573d6000803e3d6000fd5b505050506040513d601f19601f820116820180604052508101906103e69190612147565b90508015610420576040517fad49811c00000000000000000000000000000000000000000000000000000000815260040160405180910390fd5b600460149054906101000a900460ff16610466576040517f7c339b1900000000000000000000000000000000000000000000000000000000815260040160405180910390fd5b600360009054906101000a900473ffffffffffffffffffffffffffffffffffffffff1673ffffffffffffffffffffffffffffffffffffffff163373ffffffffffffffffffffffffffffffffffffffff16146104ed576040517f667b3fbf00000000000000000000000000000000000000000000000000000000815260040160405180910390fd5b6104f5611944565b61052b576040517f2fd3952300000000000000000000000000000000000000000000000000000000815260040160405180910390fd5b600073ffffffffffffffffffffffffffffffffffffffff168273ffffffffffffffffffffffffffffffffffffffff1603610591576040517f2c75c45a00000000000000000000000000000000000000000000000000000000815260040160405180910390fd5b600360009054906101000a900473ffffffffffffffffffffffffffffffffffffffff1673ffffffffffffffffffffffffffffffffffffffff16600260009054906101000a900473ffffffffffffffffffffffffffffffffffffffff1673ffffffffffffffffffffffffffffffffffffffff16148061065c57508173ffffffffffffffffffffffffffffffffffffffff16600460009054906101000a900473ffffffffffffffffffffffffffffffffffffffff1673ffffffffffffffffffffffffffffffffffffffff16145b610692576040517f1c98cac300000000000000000000000000000000000000000000000000000000815260040160405180910390fd5b61069b82611a17565b5050565b600080600060029054906101000a900473ffffffffffffffffffffffffffffffffffffffff1673ffffffffffffffffffffffffffffffffffffffff16635c975abb6040518163ffffffff1660e01b8152600401602060405180830381865afa15801561070f573d6000803e3d6000fd5b505050506040513d601f19601f820116820180604052508101906107339190612147565b9050801561076d576040517fad49811c00000000000000000000000000000000000000000000000000000000815260040160405180910390fd5b600460149054906101000a900460ff166107b3576040517f7c339b1900000000000000000000000000000000000000000000000000000000815260040160405180910390fd5b60015485146107f957846040517fed15e6cf0000000000000000000000000000000000000000000000000000000081526004016107f09190612056565b60405180910390fd5b600060029054906101000a900473ffffffffffffffffffffffffffffffffffffffff1673ffffffffffffffffffffffffffffffffffffffff163373ffffffffffffffffffffffffffffffffffffffff161461088b57336040517f540b96010000000000000000000000000000000000000000000000000000000081526004016108829190612080565b60405180910390fd5b60008073ffffffffffffffffffffffffffffffffffffffff16600260009054906101000a900473ffffffffffffffffffffffffffffffffffffffff1673ffffffffffffffffffffffffffffffffffffffff1614806109375750600073ffffffffffffffffffffffffffffffffffffffff16600360009054906101000a900473ffffffffffffffffffffffffffffffffffffffff1673ffffffffffffffffffffffffffffffffffffffff16145b15610a535760008585905003610979576040517f10daa94f00000000000000000000000000000000000000000000000000000000815260040160405180910390fd5b600080868681019061098b91906121b2565b91509150600073ffffffffffffffffffffffffffffffffffffffff168273ffffffffffffffffffffffffffffffffffffffff1614806109f65750600073ffffffffffffffffffffffffffffffffffffffff168173ffffffffffffffffffffffffffffffffffffffff16145b15610a3a5781816040517fbd805e91000000000000000000000000000000000000000000000000000000008152600401610a319291906121f2565b60405180910390fd5b610a4382611a17565b610a4c81611b12565b6001925050505b801515600360009054906101000a900473ffffffffffffffffffffffffffffffffffffffff1673ffffffffffffffffffffffffffffffffffffffff16600260009054906101000a900473ffffffffffffffffffffffffffffffffffffffff1673ffffffffffffffffffffffffffffffffffffffff167feac1fdedeedd55f76e4c4a4b9a1b485e1f324cccf90f5aac11af3eb172876049600060029054906101000a900473ffffffffffffffffffffffffffffffffffffffff16600154604051610b1d92919061221b565b60405180910390a47f150b7a023d4804d13e8c85fb27262cb750cf6ba9f9dd3bb30d90f482ceeb4b1f9250505095945050505050565b60015481565b600460009054906101000a900473ffffffffffffffffffffffffffffffffffffffff1681565b600260009054906101000a900473ffffffffffffffffffffffffffffffffffffffff1681565b60008060029054906101000a900473ffffffffffffffffffffffffffffffffffffffff1673ffffffffffffffffffffffffffffffffffffffff16635c975abb6040518163ffffffff1660e01b8152600401602060405180830381865afa158015610c13573d6000803e3d6000fd5b505050506040513d601f19601f82011682018060405250810190610c379190612147565b90508015610c71576040517fad49811c00000000000000000000000000000000000000000000000000000000815260040160405180910390fd5b600460149054906101000a900460ff16610cb7576040517f7c339b1900000000000000000000000000000000000000000000000000000000815260040160405180910390fd5b610cbf611944565b15610cf6576040517f1ed483eb00000000000000000000000000000000000000000000000000000000815260040160405180910390fd5b600060029054906101000a900473ffffffffffffffffffffffffffffffffffffffff1673ffffffffffffffffffffffffffffffffffffffff163373ffffffffffffffffffffffffffffffffffffffff1614610d8857336040517f540b9601000000000000000000000000000000000000000000000000000000008152600401610d7f9190612080565b60405180910390fd5b610d926000611a17565b610d9c6000611b12565b6000600460146101000a81548160ff0219169083151502179055507fcb63a6e2ad39a5ba99b34f25ee1e8eb1545b98164ae32a05005ef679bdc8801c600060029054906101000a900473ffffffffffffffffffffffffffffffffffffffff16600154604051610e0c92919061221b565b60405180910390a150565b600060029054906101000a900473ffffffffffffffffffffffffffffffffffffffff1681565b60008060029054906101000a900473ffffffffffffffffffffffffffffffffffffffff1673ffffffffffffffffffffffffffffffffffffffff16635c975abb6040518163ffffffff1660e01b8152600401602060405180830381865afa158015610eab573d6000803e3d6000fd5b505050506040513d601f19601f82011682018060405250810190610ecf9190612147565b90508015610f09576040517fad49811c00000000000000000000000000000000000000000000000000000000815260040160405180910390fd5b600460149054906101000a900460ff16610f4f576040517f7c339b1900000000000000000000000000000000000000000000000000000000815260040160405180910390fd5b600260009054906101000a900473ffffffffffffffffffffffffffffffffffffffff1673ffffffffffffffffffffffffffffffffffffffff163373ffffffffffffffffffffffffffffffffffffffff1614610fd6576040517ff52018ac00000000000000000000000000000000000000000000000000000000815260040160405180910390fd5b610fde611944565b611014576040517f2fd3952300000000000000000000000000000000000000000000000000000000815260040160405180910390fd5b8173ffffffffffffffffffffffffffffffffffffffff16600260009054906101000a900473ffffffffffffffffffffffffffffffffffffffff1673ffffffffffffffffffffffffffffffffffffffff160361109b576040517fdd9f921d00000000000000000000000000000000000000000000000000000000815260040160405180910390fd5b8173ffffffffffffffffffffffffffffffffffffffff16600460009054906101000a900473ffffffffffffffffffffffffffffffffffffffff1673ffffffffffffffffffffffffffffffffffffffff1603611122576040517f98f83ce800000000000000000000000000000000000000000000000000000000815260040160405180910390fd5b61112b82611c03565b5050565b60008060029054906101000a900473ffffffffffffffffffffffffffffffffffffffff1673ffffffffffffffffffffffffffffffffffffffff16635c975abb6040518163ffffffff1660e01b8152600401602060405180830381865afa15801561119d573d6000803e3d6000fd5b505050506040513d601f19601f820116820180604052508101906111c19190612147565b905080156111fb576040517fad49811c00000000000000000000000000000000000000000000000000000000815260040160405180910390fd5b600460149054906101000a900460ff16611241576040517f7c339b1900000000000000000000000000000000000000000000000000000000815260040160405180910390fd5b600260009054906101000a900473ffffffffffffffffffffffffffffffffffffffff1673ffffffffffffffffffffffffffffffffffffffff163373ffffffffffffffffffffffffffffffffffffffff16146112c8576040517ff52018ac00000000000000000000000000000000000000000000000000000000815260040160405180910390fd5b600360009054906101000a900473ffffffffffffffffffffffffffffffffffffffff1673ffffffffffffffffffffffffffffffffffffffff163373ffffffffffffffffffffffffffffffffffffffff161461134f576040517f667b3fbf00000000000000000000000000000000000000000000000000000000815260040160405180910390fd5b611357611944565b61138d576040517f2fd3952300000000000000000000000000000000000000000000000000000000815260040160405180910390fd5b6113976000611c03565b600060029054906101000a900473ffffffffffffffffffffffffffffffffffffffff1673ffffffffffffffffffffffffffffffffffffffff166323b872dd30600060029054906101000a900473ffffffffffffffffffffffffffffffffffffffff166001546040518463ffffffff1660e01b815260040161141a93929190612244565b600060405180830381600087803b15801561143457600080fd5b505af1158015611448573d6000803e3d6000fd5b505050503373ffffffffffffffffffffffffffffffffffffffff167f33404c8097b8e877f71a3bdea790b1ab1c5dff7b20392e123a875c5c878e3f6e600060029054906101000a900473ffffffffffffffffffffffffffffffffffffffff166001546040516114b892919061221b565b60405180910390a250565b60006114cd611944565b905090565b60008060019054906101000a900460ff161590508080156115035750600160008054906101000a900460ff1660ff16105b80611530575061151230611921565b15801561152f5750600160008054906101000a900460ff1660ff16145b5b61156f576040517f08c379a0000000000000000000000000000000000000000000000000000000008152600401611566906122fe565b60405180910390fd5b60016000806101000a81548160ff021916908360ff16021790555080156115ac576001600060016101000a81548160ff0219169083151502179055505b6115b68383611cf4565b801561160f5760008060016101000a81548160ff0219169083151502179055507f7f26b83ff96e1f2b6a682f133852f6798a09c465da95921460cefb384740249860016040516116069190612370565b60405180910390a15b505050565b600360009054906101000a900473ffffffffffffffffffffffffffffffffffffffff1681565b61164382610354565b61164c81611650565b5050565b60008060029054906101000a900473ffffffffffffffffffffffffffffffffffffffff1673ffffffffffffffffffffffffffffffffffffffff16635c975abb6040518163ffffffff1660e01b8152600401602060405180830381865afa1580156116be573d6000803e3d6000fd5b505050506040513d601f19601f820116820180604052508101906116e29190612147565b9050801561171c576040517fad49811c00000000000000000000000000000000000000000000000000000000815260040160405180910390fd5b600460149054906101000a900460ff16611762576040517f7c339b1900000000000000000000000000000000000000000000000000000000815260040160405180910390fd5b600360009054906101000a900473ffffffffffffffffffffffffffffffffffffffff1673ffffffffffffffffffffffffffffffffffffffff163373ffffffffffffffffffffffffffffffffffffffff16146117e9576040517f667b3fbf00000000000000000000000000000000000000000000000000000000815260040160405180910390fd5b6117f1611944565b611827576040517f2fd3952300000000000000000000000000000000000000000000000000000000815260040160405180910390fd5b600073ffffffffffffffffffffffffffffffffffffffff168273ffffffffffffffffffffffffffffffffffffffff160361188d576040517f2c75c45a00000000000000000000000000000000000000000000000000000000815260040160405180910390fd5b8173ffffffffffffffffffffffffffffffffffffffff16600360009054906101000a900473ffffffffffffffffffffffffffffffffffffffff1673ffffffffffffffffffffffffffffffffffffffff1603611914576040517f702e6e6200000000000000000000000000000000000000000000000000000000815260040160405180910390fd5b61191d82611b12565b5050565b6000808273ffffffffffffffffffffffffffffffffffffffff163b119050919050565b60003073ffffffffffffffffffffffffffffffffffffffff16600060029054906101000a900473ffffffffffffffffffffffffffffffffffffffff1673ffffffffffffffffffffffffffffffffffffffff16636352211e6001546040518263ffffffff1660e01b81526004016119ba9190612056565b602060405180830381865afa1580156119d7573d6000803e3d6000fd5b505050506040513d601f19601f820116820180604052508101906119fb91906123a0565b73ffffffffffffffffffffffffffffffffffffffff1614905090565b8073ffffffffffffffffffffffffffffffffffffffff16600260009054906101000a900473ffffffffffffffffffffffffffffffffffffffff1673ffffffffffffffffffffffffffffffffffffffff167f07d0a1a2d5c465ecdf26fb8dda217b10270d8e11ff892df33f73ea690b8cd9b4600060029054906101000a900473ffffffffffffffffffffffffffffffffffffffff16600154604051611abc92919061221b565b60405180910390a3611ace6000611c03565b80600260006101000a81548173ffffffffffffffffffffffffffffffffffffffff021916908373ffffffffffffffffffffffffffffffffffffffff16021790555050565b8073ffffffffffffffffffffffffffffffffffffffff16600360009054906101000a900473ffffffffffffffffffffffffffffffffffffffff1673ffffffffffffffffffffffffffffffffffffffff167ffebadd5e06bc3e2885248448caca94df39be7cf7fde139b4586ac7b92dfe70b2600060029054906101000a900473ffffffffffffffffffffffffffffffffffffffff16600154604051611bb792919061221b565b60405180910390a380600360006101000a81548173ffffffffffffffffffffffffffffffffffffffff021916908373ffffffffffffffffffffffffffffffffffffffff16021790555050565b8073ffffffffffffffffffffffffffffffffffffffff16600460009054906101000a900473ffffffffffffffffffffffffffffffffffffffff1673ffffffffffffffffffffffffffffffffffffffff167f88a734f529b322845e21a8ea2512c4fd613d73ef43deb62d5c790a1b8037bd21600060029054906101000a900473ffffffffffffffffffffffffffffffffffffffff16600154604051611ca892919061221b565b60405180910390a380600460006101000a81548173ffffffffffffffffffffffffffffffffffffffff021916908373ffffffffffffffffffffffffffffffffffffffff16021790555050565b600060019054906101000a900460ff16611d43576040517f08c379a0000000000000000000000000000000000000000000000000000000008152600401611d3a9061243f565b60405180910390fd5b81600060026101000a81548173ffffffffffffffffffffffffffffffffffffffff021916908373ffffffffffffffffffffffffffffffffffffffff160217905550806001819055506001600460146101000a81548160ff0219169083151502179055505050565b600080fd5b600080fd5b60007fffffffff0000000000000000000000000000000000000000000000000000000082169050919050565b611de981611db4565b8114611df457600080fd5b50565b600081359050611e0681611de0565b92915050565b600060208284031215611e2257611e21611daa565b5b6000611e3084828501611df7565b91505092915050565b60008115159050919050565b611e4e81611e39565b82525050565b6000602082019050611e696000830184611e45565b92915050565b600073ffffffffffffffffffffffffffffffffffffffff82169050919050565b6000611e9a82611e6f565b9050919050565b611eaa81611e8f565b8114611eb557600080fd5b50565b600081359050611ec781611ea1565b92915050565b600060208284031215611ee357611ee2611daa565b5b6000611ef184828501611eb8565b91505092915050565b6000819050919050565b611f0d81611efa565b8114611f1857600080fd5b50565b600081359050611f2a81611f04565b92915050565b600080fd5b600080fd5b600080fd5b60008083601f840112611f5557611f54611f30565b5b8235905067ffffffffffffffff811115611f7257611f71611f35565b5b602083019150836001820283011115611f8e57611f8d611f3a565b5b9250929050565b600080600080600060808688031215611fb157611fb0611daa565b5b6000611fbf88828901611eb8565b9550506020611fd088828901611eb8565b9450506040611fe188828901611f1b565b935050606086013567ffffffffffffffff81111561200257612001611daf565b5b61200e88828901611f3f565b92509250509295509295909350565b61202681611db4565b82525050565b6000602082019050612041600083018461201d565b92915050565b61205081611efa565b82525050565b600060208201905061206b6000830184612047565b92915050565b61207a81611e8f565b82525050565b60006020820190506120956000830184612071565b92915050565b600080604083850312156120b2576120b1611daa565b5b60006120c085828601611eb8565b92505060206120d185828601611f1b565b9150509250929050565b600080604083850312156120f2576120f1611daa565b5b600061210085828601611eb8565b925050602061211185828601611eb8565b9150509250929050565b61212481611e39565b811461212f57600080fd5b50565b6000815190506121418161211b565b92915050565b60006020828403121561215d5761215c611daa565b5b600061216b84828501612132565b91505092915050565b600061217f82611e6f565b9050919050565b61218f81612174565b811461219a57600080fd5b50565b6000813590506121ac81612186565b92915050565b600080604083850312156121c9576121c8611daa565b5b60006121d78582860161219d565b92505060206121e88582860161219d565b9150509250929050565b60006040820190506122076000830185612071565b6122146020830184612071565b9392505050565b60006040820190506122306000830185612071565b61223d6020830184612047565b9392505050565b60006060820190506122596000830186612071565b6122666020830185612071565b6122736040830184612047565b949350505050565b600082825260208201905092915050565b7f496e697469616c697a61626c653a20636f6e747261637420697320616c72656160008201527f647920696e697469616c697a6564000000000000000000000000000000000000602082015250565b60006122e8602e8361227b565b91506122f38261228c565b604082019050919050565b60006020820190508181036000830152612317816122db565b9050919050565b6000819050919050565b600060ff82169050919050565b6000819050919050565b600061235a6123556123508461231e565b612335565b612328565b9050919050565b61236a8161233f565b82525050565b60006020820190506123856000830184612361565b92915050565b60008151905061239a81611ea1565b92915050565b6000602082840312156123b6576123b5611daa565b5b60006123c48482850161238b565b91505092915050565b7f496e697469616c697a61626c653a20636f6e7472616374206973206e6f74206960008201527f6e697469616c697a696e67000000000000000000000000000000000000000000602082015250565b6000612429602b8361227b565b9150612434826123cd565b604082019050919050565b600060208201905081810360008301526124588161241c565b905091905056fea264697066735822122002074b3ef5aa204838640e2db2e4579ba2eb18d146ecfea71b092c23ed35e18164736f6c63430008110033",
  "linkReferences": {},
  "deployedLinkReferences": {}
}