{
  "_format": "hh-sol-artifact-1",
  "contractName": "ERC721ReceiverMock",
  "sourceName": "contracts/mocks/ERC721ReceiverMock.sol",
  "abi": [
    {
      "inputs": [
        {
          "internalType": "address",
          "name": "",
          "type": "address"
        },
        {
          "internalType": "address",
          "name": "",
          "type": "address"
        },
        {
          "internalType": "uint256",
          "name": "",
          "type": "uint256"
        },
        {
          "internalType": "bytes",
          "name": "",
          "type": "bytes"
        }
      ],
      "name": "onERC721Received",
      "outputs": [
        {
          "internalType": "bytes4",
          "name": "",
          "type": "bytes4"
        }
      ],
      "stateMutability": "view",
      "type": "function"
    },
    {
      "inputs": [
        {
          "internalType": "enum ERC721ReceiverMock.Error",
          "name": "error",
          "type": "uint8"
        }
      ],
      "name": "setErrorType",
      "outputs": [],
      "stateMutability": "nonpayable",
      "type": "function"
    }
  ],
  "bytecode": "0x608060405234801561001057600080fd5b5061061f806100206000396000f3fe608060405234801561001057600080fd5b50600436106100365760003560e01c8063150b7a021461003b578063dafe3e3a1461006b575b600080fd5b610055600480360381019061005091906103b2565b610087565b6040516100629190610470565b60405180910390f35b610085600480360381019061008091906104b0565b610198565b005b60006001600381111561009d5761009c6104dd565b5b60008054906101000a900460ff1660038111156100bd576100bc6104dd565b5b036100fd576040517f08c379a00000000000000000000000000000000000000000000000000000000081526004016100f490610569565b60405180910390fd5b60026003811115610111576101106104dd565b5b60008054906101000a900460ff166003811115610131576101306104dd565b5b0361013b57600080fd5b60038081111561014e5761014d6104dd565b5b60008054906101000a900460ff16600381111561016e5761016d6104dd565b5b0361018657600080600061018291906105b8565b9050505b63150b7a0260e01b9050949350505050565b806000806101000a81548160ff021916908360038111156101bc576101bb6104dd565b5b021790555050565b6000604051905090565b600080fd5b600080fd5b600073ffffffffffffffffffffffffffffffffffffffff82169050919050565b6000610203826101d8565b9050919050565b610213816101f8565b811461021e57600080fd5b50565b6000813590506102308161020a565b92915050565b6000819050919050565b61024981610236565b811461025457600080fd5b50565b60008135905061026681610240565b92915050565b600080fd5b600080fd5b6000601f19601f8301169050919050565b7f4e487b7100000000000000000000000000000000000000000000000000000000600052604160045260246000fd5b6102bf82610276565b810181811067ffffffffffffffff821117156102de576102dd610287565b5b80604052505050565b60006102f16101c4565b90506102fd82826102b6565b919050565b600067ffffffffffffffff82111561031d5761031c610287565b5b61032682610276565b9050602081019050919050565b82818337600083830152505050565b600061035561035084610302565b6102e7565b90508281526020810184848401111561037157610370610271565b5b61037c848285610333565b509392505050565b600082601f8301126103995761039861026c565b5b81356103a9848260208601610342565b91505092915050565b600080600080608085870312156103cc576103cb6101ce565b5b60006103da87828801610221565b94505060206103eb87828801610221565b93505060406103fc87828801610257565b925050606085013567ffffffffffffffff81111561041d5761041c6101d3565b5b61042987828801610384565b91505092959194509250565b60007fffffffff0000000000000000000000000000000000000000000000000000000082169050919050565b61046a81610435565b82525050565b60006020820190506104856000830184610461565b92915050565b6004811061049857600080fd5b50565b6000813590506104aa8161048b565b92915050565b6000602082840312156104c6576104c56101ce565b5b60006104d48482850161049b565b91505092915050565b7f4e487b7100000000000000000000000000000000000000000000000000000000600052602160045260246000fd5b600082825260208201905092915050565b7f45524337323152656365697665724d6f636b3a20726576657274696e67000000600082015250565b6000610553601d8361050c565b915061055e8261051d565b602082019050919050565b6000602082019050818103600083015261058281610546565b9050919050565b7f4e487b7100000000000000000000000000000000000000000000000000000000600052601260045260246000fd5b60006105c382610236565b91506105ce83610236565b9250826105de576105dd610589565b5b82820490509291505056fea2646970667358221220af4f1d201b316b3fc6f0ff4b18e3f4cfcf4b335d3a35481337309719ef6e02b164736f6c63430008110033",
  "linkReferences": {},
  "deployedLinkReferences": {}
}