{
  "_format": "hh-sol-artifact-1",
  "contractName": "ERC721Mintable",
  "sourceName": "contracts/lib/ERC721.sol",
  "abi": [
    {
      "inputs": [
        {
          "internalType": "string",
          "name": "name",
          "type": "string"
        },
        {
          "internalType": "string",
          "name": "symbol",
          "type": "string"
        }
      ],
      "stateMutability": "nonpayable",
      "type": "constructor"
    },
    {
      "anonymous": false,
      "inputs": [
        {
          "indexed": true,
          "internalType": "address",
          "name": "owner",
          "type": "address"
        },
        {
          "indexed": true,
          "internalType": "address",
          "name": "approved",
          "type": "address"
        },
        {
          "indexed": true,
          "internalType": "uint256",
          "name": "tokenId",
          "type": "uint256"
        }
      ],
      "name": "Approval",
      "type": "event"
    },
    {
      "anonymous": false,
      "inputs": [
        {
          "indexed": true,
          "internalType": "address",
          "name": "owner",
          "type": "address"
        },
        {
          "indexed": true,
          "internalType": "address",
          "name": "operator",
          "type": "address"
        },
        {
          "indexed": false,
          "internalType": "bool",
          "name": "approved",
          "type": "bool"
        }
      ],
      "name": "ApprovalForAll",
      "type": "event"
    },
    {
      "anonymous": false,
      "inputs": [
        {
          "indexed": false,
          "internalType": "address",
          "name": "owner",
          "type": "address"
        }
      ],
      "name": "Log",
      "type": "event"
    },
    {
      "anonymous": false,
      "inputs": [
        {
          "indexed": true,
          "internalType": "address",
          "name": "account",
          "type": "address"
        }
      ],
      "name": "MinterAdded",
      "type": "event"
    },
    {
      "anonymous": false,
      "inputs": [
        {
          "indexed": true,
          "internalType": "address",
          "name": "account",
          "type": "address"
        }
      ],
      "name": "MinterRemoved",
      "type": "event"
    },
    {
      "anonymous": false,
      "inputs": [
        {
          "indexed": true,
          "internalType": "bytes32",
          "name": "role",
          "type": "bytes32"
        },
        {
          "indexed": true,
          "internalType": "bytes32",
          "name": "previousAdminRole",
          "type": "bytes32"
        },
        {
          "indexed": true,
          "internalType": "bytes32",
          "name": "newAdminRole",
          "type": "bytes32"
        }
      ],
      "name": "RoleAdminChanged",
      "type": "event"
    },
    {
      "anonymous": false,
      "inputs": [
        {
          "indexed": true,
          "internalType": "bytes32",
          "name": "role",
          "type": "bytes32"
        },
        {
          "indexed": true,
          "internalType": "address",
          "name": "account",
          "type": "address"
        },
        {
          "indexed": true,
          "internalType": "address",
          "name": "sender",
          "type": "address"
        }
      ],
      "name": "RoleGranted",
      "type": "event"
    },
    {
      "anonymous": false,
      "inputs": [
        {
          "indexed": true,
          "internalType": "bytes32",
          "name": "role",
          "type": "bytes32"
        },
        {
          "indexed": true,
          "internalType": "address",
          "name": "account",
          "type": "address"
        },
        {
          "indexed": true,
          "internalType": "address",
          "name": "sender",
          "type": "address"
        }
      ],
      "name": "RoleRevoked",
      "type": "event"
    },
    {
      "anonymous": false,
      "inputs": [
        {
          "indexed": true,
          "internalType": "address",
          "name": "from",
          "type": "address"
        },
        {
          "indexed": true,
          "internalType": "address",
          "name": "to",
          "type": "address"
        },
        {
          "indexed": true,
          "internalType": "uint256",
          "name": "tokenId",
          "type": "uint256"
        }
      ],
      "name": "Transfer",
      "type": "event"
    },
    {
      "inputs": [],
      "name": "DEFAULT_ADMIN_ROLE",
      "outputs": [
        {
          "internalType": "bytes32",
          "name": "",
          "type": "bytes32"
        }
      ],
      "stateMutability": "view",
      "type": "function"
    },
    {
      "inputs": [],
      "name": "MINTER_ROLE",
      "outputs": [
        {
          "internalType": "bytes32",
          "name": "",
          "type": "bytes32"
        }
      ],
      "stateMutability": "view",
      "type": "function"
    },
    {
      "inputs": [
        {
          "internalType": "address",
          "name": "account",
          "type": "address"
        }
      ],
      "name": "addMinter",
      "outputs": [],
      "stateMutability": "nonpayable",
      "type": "function"
    },
    {
      "inputs": [
        {
          "internalType": "address",
          "name": "to",
          "type": "address"
        },
        {
          "internalType": "uint256",
          "name": "tokenId",
          "type": "uint256"
        }
      ],
      "name": "approve",
      "outputs": [],
      "stateMutability": "nonpayable",
      "type": "function"
    },
    {
      "inputs": [
        {
          "internalType": "address",
          "name": "owner",
          "type": "address"
        }
      ],
      "name": "balanceOf",
      "outputs": [
        {
          "internalType": "uint256",
          "name": "",
          "type": "uint256"
        }
      ],
      "stateMutability": "view",
      "type": "function"
    },
    {
      "inputs": [
        {
          "internalType": "uint256",
          "name": "tokenId",
          "type": "uint256"
        }
      ],
      "name": "getApproved",
      "outputs": [
        {
          "internalType": "address",
          "name": "",
          "type": "address"
        }
      ],
      "stateMutability": "view",
      "type": "function"
    },
    {
      "inputs": [
        {
          "internalType": "bytes32",
          "name": "role",
          "type": "bytes32"
        }
      ],
      "name": "getRoleAdmin",
      "outputs": [
        {
          "internalType": "bytes32",
          "name": "",
          "type": "bytes32"
        }
      ],
      "stateMutability": "view",
      "type": "function"
    },
    {
      "inputs": [
        {
          "internalType": "bytes32",
          "name": "role",
          "type": "bytes32"
        },
        {
          "internalType": "uint256",
          "name": "index",
          "type": "uint256"
        }
      ],
      "name": "getRoleMember",
      "outputs": [
        {
          "internalType": "address",
          "name": "",
          "type": "address"
        }
      ],
      "stateMutability": "view",
      "type": "function"
    },
    {
      "inputs": [
        {
          "internalType": "bytes32",
          "name": "role",
          "type": "bytes32"
        }
      ],
      "name": "getRoleMemberCount",
      "outputs": [
        {
          "internalType": "uint256",
          "name": "",
          "type": "uint256"
        }
      ],
      "stateMutability": "view",
      "type": "function"
    },
    {
      "inputs": [
        {
          "internalType": "bytes32",
          "name": "role",
          "type": "bytes32"
        },
        {
          "internalType": "address",
          "name": "account",
          "type": "address"
        }
      ],
      "name": "grantRole",
      "outputs": [],
      "stateMutability": "nonpayable",
      "type": "function"
    },
    {
      "inputs": [
        {
          "internalType": "bytes32",
          "name": "role",
          "type": "bytes32"
        },
        {
          "internalType": "address",
          "name": "account",
          "type": "address"
        }
      ],
      "name": "hasRole",
      "outputs": [
        {
          "internalType": "bool",
          "name": "",
          "type": "bool"
        }
      ],
      "stateMutability": "view",
      "type": "function"
    },
    {
      "inputs": [
        {
          "internalType": "address",
          "name": "owner",
          "type": "address"
        },
        {
          "internalType": "address",
          "name": "operator",
          "type": "address"
        }
      ],
      "name": "isApprovedForAll",
      "outputs": [
        {
          "internalType": "bool",
          "name": "",
          "type": "bool"
        }
      ],
      "stateMutability": "view",
      "type": "function"
    },
    {
      "inputs": [
        {
          "internalType": "address",
          "name": "account",
          "type": "address"
        }
      ],
      "name": "isMinter",
      "outputs": [
        {
          "internalType": "bool",
          "name": "",
          "type": "bool"
        }
      ],
      "stateMutability": "view",
      "type": "function"
    },
    {
      "inputs": [
        {
          "internalType": "address",
          "name": "to",
          "type": "address"
        },
        {
          "internalType": "uint256",
          "name": "tokenId",
          "type": "uint256"
        }
      ],
      "name": "mint",
      "outputs": [
        {
          "internalType": "bool",
          "name": "",
          "type": "bool"
        }
      ],
      "stateMutability": "nonpayable",
      "type": "function"
    },
    {
      "inputs": [],
      "name": "name",
      "outputs": [
        {
          "internalType": "string",
          "name": "",
          "type": "string"
        }
      ],
      "stateMutability": "view",
      "type": "function"
    },
    {
      "inputs": [
        {
          "internalType": "uint256",
          "name": "tokenId",
          "type": "uint256"
        }
      ],
      "name": "ownerOf",
      "outputs": [
        {
          "internalType": "address",
          "name": "",
          "type": "address"
        }
      ],
      "stateMutability": "view",
      "type": "function"
    },
    {
      "inputs": [],
      "name": "renounceMinter",
      "outputs": [],
      "stateMutability": "nonpayable",
      "type": "function"
    },
    {
      "inputs": [
        {
          "internalType": "bytes32",
          "name": "role",
          "type": "bytes32"
        },
        {
          "internalType": "address",
          "name": "account",
          "type": "address"
        }
      ],
      "name": "renounceRole",
      "outputs": [],
      "stateMutability": "nonpayable",
      "type": "function"
    },
    {
      "inputs": [
        {
          "internalType": "bytes32",
          "name": "role",
          "type": "bytes32"
        },
        {
          "internalType": "address",
          "name": "account",
          "type": "address"
        }
      ],
      "name": "revokeRole",
      "outputs": [],
      "stateMutability": "nonpayable",
      "type": "function"
    },
    {
      "inputs": [
        {
          "internalType": "address",
          "name": "to",
          "type": "address"
        },
        {
          "internalType": "uint256",
          "name": "tokenId",
          "type": "uint256"
        },
        {
          "internalType": "bytes",
          "name": "_data",
          "type": "bytes"
        }
      ],
      "name": "safeMint",
      "outputs": [
        {
          "internalType": "bool",
          "name": "",
          "type": "bool"
        }
      ],
      "stateMutability": "nonpayable",
      "type": "function"
    },
    {
      "inputs": [
        {
          "internalType": "address",
          "name": "to",
          "type": "address"
        },
        {
          "internalType": "uint256",
          "name": "tokenId",
          "type": "uint256"
        }
      ],
      "name": "safeMint",
      "outputs": [
        {
          "internalType": "bool",
          "name": "",
          "type": "bool"
        }
      ],
      "stateMutability": "nonpayable",
      "type": "function"
    },
    {
      "inputs": [
        {
          "internalType": "address",
          "name": "from",
          "type": "address"
        },
        {
          "internalType": "address",
          "name": "to",
          "type": "address"
        },
        {
          "internalType": "uint256",
          "name": "tokenId",
          "type": "uint256"
        }
      ],
      "name": "safeTransferFrom",
      "outputs": [],
      "stateMutability": "nonpayable",
      "type": "function"
    },
    {
      "inputs": [
        {
          "internalType": "address",
          "name": "from",
          "type": "address"
        },
        {
          "internalType": "address",
          "name": "to",
          "type": "address"
        },
        {
          "internalType": "uint256",
          "name": "tokenId",
          "type": "uint256"
        },
        {
          "internalType": "bytes",
          "name": "_data",
          "type": "bytes"
        }
      ],
      "name": "safeTransferFrom",
      "outputs": [],
      "stateMutability": "nonpayable",
      "type": "function"
    },
    {
      "inputs": [
        {
          "internalType": "address",
          "name": "operator",
          "type": "address"
        },
        {
          "internalType": "bool",
          "name": "approved",
          "type": "bool"
        }
      ],
      "name": "setApprovalForAll",
      "outputs": [],
      "stateMutability": "nonpayable",
      "type": "function"
    },
    {
      "inputs": [
        {
          "internalType": "bytes4",
          "name": "interfaceId",
          "type": "bytes4"
        }
      ],
      "name": "supportsInterface",
      "outputs": [
        {
          "internalType": "bool",
          "name": "",
          "type": "bool"
        }
      ],
      "stateMutability": "view",
      "type": "function"
    },
    {
      "inputs": [],
      "name": "symbol",
      "outputs": [
        {
          "internalType": "string",
          "name": "",
          "type": "string"
        }
      ],
      "stateMutability": "view",
      "type": "function"
    },
    {
      "inputs": [
        {
          "internalType": "uint256",
          "name": "tokenId",
          "type": "uint256"
        }
      ],
      "name": "tokenURI",
      "outputs": [
        {
          "internalType": "string",
          "name": "",
          "type": "string"
        }
      ],
      "stateMutability": "view",
      "type": "function"
    },
    {
      "inputs": [
        {
          "internalType": "address",
          "name": "from",
          "type": "address"
        },
        {
          "internalType": "address",
          "name": "to",
          "type": "address"
        },
        {
          "internalType": "uint256",
          "name": "tokenId",
          "type": "uint256"
        }
      ],
      "name": "transferFrom",
      "outputs": [],
      "stateMutability": "nonpayable",
      "type": "function"
    }
  ],
  "bytecode": "0x60806040523480156200001157600080fd5b506040516200463e3803806200463e8339818101604052810190620000379190620004f7565b818181600090816200004a9190620007c7565b5080600190816200005c9190620007c7565b505050620000836000801b62000077620000cc60201b60201c565b620000d460201b60201c565b620000c47f9f2df0fed2c77648de5860a4cc508cd0818c85b8b8a1ab4ceeef8d981c8956a6620000b8620000cc60201b60201c565b620000d460201b60201c565b5050620008ae565b600033905090565b620000eb82826200011c60201b620012871760201c565b6200011781600760008581526020019081526020016000206200013260201b620012951790919060201c565b505050565b6200012e82826200016a60201b60201c565b5050565b600062000162836000018373ffffffffffffffffffffffffffffffffffffffff1660001b6200025c60201b60201c565b905092915050565b6200017c8282620002d660201b60201c565b620002585760016006600084815260200190815260200160002060000160008373ffffffffffffffffffffffffffffffffffffffff1673ffffffffffffffffffffffffffffffffffffffff16815260200190815260200160002060006101000a81548160ff021916908315150217905550620001fd620000cc60201b60201c565b73ffffffffffffffffffffffffffffffffffffffff168173ffffffffffffffffffffffffffffffffffffffff16837f2f8788117e7eff1d82e926ec794901d17c78024a50270940304540a733656f0d60405160405180910390a45b5050565b60006200027083836200034160201b60201c565b620002cb578260000182908060018154018082558091505060019003906000526020600020016000909190919091505582600001805490508360010160008481526020019081526020016000208190555060019050620002d0565b600090505b92915050565b60006006600084815260200190815260200160002060000160008373ffffffffffffffffffffffffffffffffffffffff1673ffffffffffffffffffffffffffffffffffffffff16815260200190815260200160002060009054906101000a900460ff16905092915050565b600080836001016000848152602001908152602001600020541415905092915050565b6000604051905090565b600080fd5b600080fd5b600080fd5b600080fd5b6000601f19601f8301169050919050565b7f4e487b7100000000000000000000000000000000000000000000000000000000600052604160045260246000fd5b620003cd8262000382565b810181811067ffffffffffffffff82111715620003ef57620003ee62000393565b5b80604052505050565b60006200040462000364565b9050620004128282620003c2565b919050565b600067ffffffffffffffff82111562000435576200043462000393565b5b620004408262000382565b9050602081019050919050565b60005b838110156200046d57808201518184015260208101905062000450565b60008484015250505050565b6000620004906200048a8462000417565b620003f8565b905082815260208101848484011115620004af57620004ae6200037d565b5b620004bc8482856200044d565b509392505050565b600082601f830112620004dc57620004db62000378565b5b8151620004ee84826020860162000479565b91505092915050565b600080604083850312156200051157620005106200036e565b5b600083015167ffffffffffffffff81111562000532576200053162000373565b5b6200054085828601620004c4565b925050602083015167ffffffffffffffff81111562000564576200056362000373565b5b6200057285828601620004c4565b9150509250929050565b600081519050919050565b7f4e487b7100000000000000000000000000000000000000000000000000000000600052602260045260246000fd5b60006002820490506001821680620005cf57607f821691505b602082108103620005e557620005e462000587565b5b50919050565b60008190508160005260206000209050919050565b60006020601f8301049050919050565b600082821b905092915050565b6000600883026200064f7fffffffffffffffffffffffffffffffffffffffffffffffffffffffffffffffff8262000610565b6200065b868362000610565b95508019841693508086168417925050509392505050565b6000819050919050565b6000819050919050565b6000620006a8620006a26200069c8462000673565b6200067d565b62000673565b9050919050565b6000819050919050565b620006c48362000687565b620006dc620006d382620006af565b8484546200061d565b825550505050565b600090565b620006f3620006e4565b62000700818484620006b9565b505050565b5b8181101562000728576200071c600082620006e9565b60018101905062000706565b5050565b601f82111562000777576200074181620005eb565b6200074c8462000600565b810160208510156200075c578190505b620007746200076b8562000600565b83018262000705565b50505b505050565b600082821c905092915050565b60006200079c600019846008026200077c565b1980831691505092915050565b6000620007b7838362000789565b9150826002028217905092915050565b620007d2826200057c565b67ffffffffffffffff811115620007ee57620007ed62000393565b5b620007fa8254620005b6565b620008078282856200072c565b600060209050601f8311600181146200083f57600084156200082a578287015190505b620008368582620007a9565b865550620008a6565b601f1984166200084f86620005eb565b60005b82811015620008795784890151825560018201915060208501945060208101905062000852565b8683101562000899578489015162000895601f89168262000789565b8355505b6001600288020188555050505b505050505050565b613d8080620008be6000396000f3fe608060405234801561001057600080fd5b50600436106101c45760003560e01c806391d14854116100f9578063aa271e1a11610097578063ca15c87311610071578063ca15c8731461054d578063d53913931461057d578063d547741f1461059b578063e985e9c5146105b7576101c4565b8063aa271e1a146104d1578063b88d4fde14610501578063c87b56dd1461051d576101c4565b806398650275116100d3578063986502751461045d578063a144819414610467578063a217fddf14610497578063a22cb465146104b5576101c4565b806391d14854146103f357806395d89b4114610423578063983b2d5614610441576101c4565b806336568abe116101665780636352211e116101405780636352211e1461033357806370a08231146103635780638832e6e3146103935780639010d07c146103c3576101c4565b806336568abe146102cb57806340c10f19146102e757806342842e0e14610317576101c4565b8063095ea7b3116101a2578063095ea7b31461024757806323b872dd14610263578063248a9ca31461027f5780632f2ff15d146102af576101c4565b806301ffc9a7146101c957806306fdde03146101f9578063081812fc14610217575b600080fd5b6101e360048036038101906101de919061288f565b6105e7565b6040516101f091906128d7565b60405180910390f35b6102016106d9565b60405161020e9190612982565b60405180910390f35b610231600480360381019061022c91906129da565b61076b565b60405161023e9190612a48565b60405180910390f35b610261600480360381019061025c9190612a8f565b6107f0565b005b61027d60048036038101906102789190612acf565b610907565b005b61029960048036038101906102949190612b58565b610967565b6040516102a69190612b94565b60405180910390f35b6102c960048036038101906102c49190612baf565b610987565b005b6102e560048036038101906102e09190612baf565b6109bb565b005b61030160048036038101906102fc9190612a8f565b6109ef565b60405161030e91906128d7565b60405180910390f35b610331600480360381019061032c9190612acf565b610a54565b005b61034d600480360381019061034891906129da565b610a74565b60405161035a9190612a48565b60405180910390f35b61037d60048036038101906103789190612bef565b610b25565b60405161038a9190612c2b565b60405180910390f35b6103ad60048036038101906103a89190612d7b565b610bdc565b6040516103ba91906128d7565b60405180910390f35b6103dd60048036038101906103d89190612dea565b610c43565b6040516103ea9190612a48565b60405180910390f35b61040d60048036038101906104089190612baf565b610c72565b60405161041a91906128d7565b60405180910390f35b61042b610cdd565b6040516104389190612982565b60405180910390f35b61045b60048036038101906104569190612bef565b610d6f565b005b610465610d7b565b005b610481600480360381019061047c9190612a8f565b610e11565b60405161048e91906128d7565b60405180910390f35b61049f610e76565b6040516104ac9190612b94565b60405180910390f35b6104cf60048036038101906104ca9190612e56565b610e7d565b005b6104eb60048036038101906104e69190612bef565b610ffd565b6040516104f891906128d7565b60405180910390f35b61051b60048036038101906105169190612e96565b611030565b005b610537600480360381019061053291906129da565b6110d0565b6040516105449190612982565b60405180910390f35b61056760048036038101906105629190612b58565b611177565b6040516105749190612c2b565b60405180910390f35b61058561119b565b6040516105929190612b94565b60405180910390f35b6105b560048036038101906105b09190612baf565b6111bf565b005b6105d160048036038101906105cc9190612f19565b6111f3565b6040516105de91906128d7565b60405180910390f35b60007f80ac58cd000000000000000000000000000000000000000000000000000000007bffffffffffffffffffffffffffffffffffffffffffffffffffffffff1916827bffffffffffffffffffffffffffffffffffffffffffffffffffffffff191614806106b257507faa793139000000000000000000000000000000000000000000000000000000007bffffffffffffffffffffffffffffffffffffffffffffffffffffffff1916827bffffffffffffffffffffffffffffffffffffffffffffffffffffffff1916145b806106c257506106c1826112c5565b5b806106d257506106d1826113a7565b5b9050919050565b6060600080546106e890612f88565b80601f016020809104026020016040519081016040528092919081815260200182805461071490612f88565b80156107615780601f1061073657610100808354040283529160200191610761565b820191906000526020600020905b81548152906001019060200180831161074457829003601f168201915b5050505050905090565b600061077682611421565b6107b5576040517f08c379a00000000000000000000000000000000000000000000000000000000081526004016107ac9061302b565b60405180910390fd5b6004600083815260200190815260200160002060009054906101000a900473ffffffffffffffffffffffffffffffffffffffff169050919050565b60006107fb82610a74565b90508073ffffffffffffffffffffffffffffffffffffffff168373ffffffffffffffffffffffffffffffffffffffff160361086b576040517f08c379a0000000000000000000000000000000000000000000000000000000008152600401610862906130bd565b60405180910390fd5b8073ffffffffffffffffffffffffffffffffffffffff1661088a61148d565b73ffffffffffffffffffffffffffffffffffffffff1614806108b957506108b8816108b361148d565b6111f3565b5b6108f8576040517f08c379a00000000000000000000000000000000000000000000000000000000081526004016108ef9061314f565b60405180910390fd5b6109028383611495565b505050565b61091861091261148d565b8261154e565b610957576040517f08c379a000000000000000000000000000000000000000000000000000000000815260040161094e906131e1565b60405180910390fd5b61096283838361162c565b505050565b600060066000838152602001908152602001600020600101549050919050565b6109918282611887565b6109b6816007600085815260200190815260200160002061129590919063ffffffff16565b505050565b6109c582826118b0565b6109ea816007600085815260200190815260200160002061193390919063ffffffff16565b505050565b6000610a016109fc61148d565b610ffd565b610a40576040517f08c379a0000000000000000000000000000000000000000000000000000000008152600401610a3790613273565b60405180910390fd5b610a4a8383611963565b6001905092915050565b610a6f83838360405180602001604052806000815250611030565b505050565b6000806002600084815260200190815260200160002060009054906101000a900473ffffffffffffffffffffffffffffffffffffffff169050600073ffffffffffffffffffffffffffffffffffffffff168173ffffffffffffffffffffffffffffffffffffffff1603610b1c576040517f08c379a0000000000000000000000000000000000000000000000000000000008152600401610b1390613305565b60405180910390fd5b80915050919050565b60008073ffffffffffffffffffffffffffffffffffffffff168273ffffffffffffffffffffffffffffffffffffffff1603610b95576040517f08c379a0000000000000000000000000000000000000000000000000000000008152600401610b8c90613397565b60405180910390fd5b600360008373ffffffffffffffffffffffffffffffffffffffff1673ffffffffffffffffffffffffffffffffffffffff168152602001908152602001600020549050919050565b6000610bee610be961148d565b610ffd565b610c2d576040517f08c379a0000000000000000000000000000000000000000000000000000000008152600401610c2490613273565b60405180910390fd5b610c38848484611b30565b600190509392505050565b6000610c6a8260076000868152602001908152602001600020611b8b90919063ffffffff16565b905092915050565b60006006600084815260200190815260200160002060000160008373ffffffffffffffffffffffffffffffffffffffff1673ffffffffffffffffffffffffffffffffffffffff16815260200190815260200160002060009054906101000a900460ff16905092915050565b606060018054610cec90612f88565b80601f0160208091040260200160405190810160405280929190818152602001828054610d1890612f88565b8015610d655780601f10610d3a57610100808354040283529160200191610d65565b820191906000526020600020905b815481529060010190602001808311610d4857829003601f168201915b5050505050905090565b610d7881611ba5565b50565b3073ffffffffffffffffffffffffffffffffffffffff166336568abe7f9f2df0fed2c77648de5860a4cc508cd0818c85b8b8a1ab4ceeef8d981c8956a6610dc061148d565b6040518363ffffffff1660e01b8152600401610ddd9291906133b7565b600060405180830381600087803b158015610df757600080fd5b505af1158015610e0b573d6000803e3d6000fd5b50505050565b6000610e23610e1e61148d565b610ffd565b610e62576040517f08c379a0000000000000000000000000000000000000000000000000000000008152600401610e5990613273565b60405180910390fd5b610e6c8383611c78565b6001905092915050565b6000801b81565b610e8561148d565b73ffffffffffffffffffffffffffffffffffffffff168273ffffffffffffffffffffffffffffffffffffffff1603610ef2576040517f08c379a0000000000000000000000000000000000000000000000000000000008152600401610ee99061342c565b60405180910390fd5b8060056000610eff61148d565b73ffffffffffffffffffffffffffffffffffffffff1673ffffffffffffffffffffffffffffffffffffffff16815260200190815260200160002060008473ffffffffffffffffffffffffffffffffffffffff1673ffffffffffffffffffffffffffffffffffffffff16815260200190815260200160002060006101000a81548160ff0219169083151502179055508173ffffffffffffffffffffffffffffffffffffffff16610fac61148d565b73ffffffffffffffffffffffffffffffffffffffff167f17307eab39ab6107e8899845ad3d59bd9653f200f220920489ca2b5937696c3183604051610ff191906128d7565b60405180910390a35050565b60006110297f9f2df0fed2c77648de5860a4cc508cd0818c85b8b8a1ab4ceeef8d981c8956a683610c72565b9050919050565b7fb8a00d6d8ca1be30bfec34d8f97e55f0f0fd9eeb7fb46e030516363d4cfe1ad661105961148d565b6040516110669190612a48565b60405180910390a161107f61107961148d565b8361154e565b6110be576040517f08c379a00000000000000000000000000000000000000000000000000000000081526004016110b5906131e1565b60405180910390fd5b6110ca84848484611c96565b50505050565b60606110db82611421565b61111a576040517f08c379a0000000000000000000000000000000000000000000000000000000008152600401611111906134be565b60405180910390fd5b6000611124611cf2565b90506000815111611144576040518060200160405280600081525061116f565b8061114e84611d09565b60405160200161115f92919061351a565b6040516020818303038152906040525b915050919050565b600061119460076000848152602001908152602001600020611e69565b9050919050565b7f9f2df0fed2c77648de5860a4cc508cd0818c85b8b8a1ab4ceeef8d981c8956a681565b6111c98282611e7e565b6111ee816007600085815260200190815260200160002061193390919063ffffffff16565b505050565b6000600560008473ffffffffffffffffffffffffffffffffffffffff1673ffffffffffffffffffffffffffffffffffffffff16815260200190815260200160002060008373ffffffffffffffffffffffffffffffffffffffff1673ffffffffffffffffffffffffffffffffffffffff16815260200190815260200160002060009054906101000a900460ff16905092915050565b6112918282611ea7565b5050565b60006112bd836000018373ffffffffffffffffffffffffffffffffffffffff1660001b611f88565b905092915050565b60007f80ac58cd000000000000000000000000000000000000000000000000000000007bffffffffffffffffffffffffffffffffffffffffffffffffffffffff1916827bffffffffffffffffffffffffffffffffffffffffffffffffffffffff1916148061139057507f5b5e139f000000000000000000000000000000000000000000000000000000007bffffffffffffffffffffffffffffffffffffffffffffffffffffffff1916827bffffffffffffffffffffffffffffffffffffffffffffffffffffffff1916145b806113a0575061139f82611ff8565b5b9050919050565b60007faa793139000000000000000000000000000000000000000000000000000000007bffffffffffffffffffffffffffffffffffffffffffffffffffffffff1916827bffffffffffffffffffffffffffffffffffffffffffffffffffffffff1916148061141a575061141982612062565b5b9050919050565b60008073ffffffffffffffffffffffffffffffffffffffff166002600084815260200190815260200160002060009054906101000a900473ffffffffffffffffffffffffffffffffffffffff1673ffffffffffffffffffffffffffffffffffffffff1614159050919050565b600033905090565b816004600083815260200190815260200160002060006101000a81548173ffffffffffffffffffffffffffffffffffffffff021916908373ffffffffffffffffffffffffffffffffffffffff160217905550808273ffffffffffffffffffffffffffffffffffffffff1661150883610a74565b73ffffffffffffffffffffffffffffffffffffffff167f8c5be1e5ebec7d5bd14f71427d1e84f3dd0314c0f7b2291e5b200ac8c7c3b92560405160405180910390a45050565b600061155982611421565b611598576040517f08c379a000000000000000000000000000000000000000000000000000000000815260040161158f906135b0565b60405180910390fd5b60006115a383610a74565b90508073ffffffffffffffffffffffffffffffffffffffff168473ffffffffffffffffffffffffffffffffffffffff16148061161257508373ffffffffffffffffffffffffffffffffffffffff166115fa8461076b565b73ffffffffffffffffffffffffffffffffffffffff16145b80611623575061162281856111f3565b5b91505092915050565b8273ffffffffffffffffffffffffffffffffffffffff1661164c82610a74565b73ffffffffffffffffffffffffffffffffffffffff16146116a2576040517f08c379a000000000000000000000000000000000000000000000000000000000815260040161169990613642565b60405180910390fd5b600073ffffffffffffffffffffffffffffffffffffffff168273ffffffffffffffffffffffffffffffffffffffff1603611711576040517f08c379a0000000000000000000000000000000000000000000000000000000008152600401611708906136d4565b60405180910390fd5b61171c8383836120dc565b611727600082611495565b6001600360008573ffffffffffffffffffffffffffffffffffffffff1673ffffffffffffffffffffffffffffffffffffffff16815260200190815260200160002060008282546117779190613723565b925050819055506001600360008473ffffffffffffffffffffffffffffffffffffffff1673ffffffffffffffffffffffffffffffffffffffff16815260200190815260200160002060008282546117ce9190613757565b92505081905550816002600083815260200190815260200160002060006101000a81548173ffffffffffffffffffffffffffffffffffffffff021916908373ffffffffffffffffffffffffffffffffffffffff160217905550808273ffffffffffffffffffffffffffffffffffffffff168473ffffffffffffffffffffffffffffffffffffffff167fddf252ad1be2c89b69c2b068fc378daa952ba7f163c4a11628f55a4df523b3ef60405160405180910390a4505050565b61189082610967565b6118a18161189c61148d565b6120e1565b6118ab8383611ea7565b505050565b6118b861148d565b73ffffffffffffffffffffffffffffffffffffffff168173ffffffffffffffffffffffffffffffffffffffff1614611925576040517f08c379a000000000000000000000000000000000000000000000000000000000815260040161191c906137fd565b60405180910390fd5b61192f828261217e565b5050565b600061195b836000018373ffffffffffffffffffffffffffffffffffffffff1660001b612260565b905092915050565b600073ffffffffffffffffffffffffffffffffffffffff168273ffffffffffffffffffffffffffffffffffffffff16036119d2576040517f08c379a00000000000000000000000000000000000000000000000000000000081526004016119c990613869565b60405180910390fd5b6119db81611421565b15611a1b576040517f08c379a0000000000000000000000000000000000000000000000000000000008152600401611a12906138d5565b60405180910390fd5b611a27600083836120dc565b6001600360008473ffffffffffffffffffffffffffffffffffffffff1673ffffffffffffffffffffffffffffffffffffffff1681526020019081526020016000206000828254611a779190613757565b92505081905550816002600083815260200190815260200160002060006101000a81548173ffffffffffffffffffffffffffffffffffffffff021916908373ffffffffffffffffffffffffffffffffffffffff160217905550808273ffffffffffffffffffffffffffffffffffffffff16600073ffffffffffffffffffffffffffffffffffffffff167fddf252ad1be2c89b69c2b068fc378daa952ba7f163c4a11628f55a4df523b3ef60405160405180910390a45050565b611b3a8383611963565b611b476000848484612374565b611b86576040517f08c379a0000000000000000000000000000000000000000000000000000000008152600401611b7d90613967565b60405180910390fd5b505050565b6000611b9a83600001836124fb565b60001c905092915050565b3073ffffffffffffffffffffffffffffffffffffffff16632f2ff15d7f9f2df0fed2c77648de5860a4cc508cd0818c85b8b8a1ab4ceeef8d981c8956a6836040518363ffffffff1660e01b8152600401611c009291906133b7565b600060405180830381600087803b158015611c1a57600080fd5b505af1158015611c2e573d6000803e3d6000fd5b505050508073ffffffffffffffffffffffffffffffffffffffff167f6ae172837ea30b801fbfcdd4108aa1d5bf8ff775444fd70256b44e6bf3dfc3f660405160405180910390a250565b611c92828260405180602001604052806000815250611b30565b5050565b611ca184848461162c565b611cad84848484612374565b611cec576040517f08c379a0000000000000000000000000000000000000000000000000000000008152600401611ce390613967565b60405180910390fd5b50505050565b606060405180602001604052806000815250905090565b606060008203611d50576040518060400160405280600181526020017f30000000000000000000000000000000000000000000000000000000000000008152509050611e64565b600082905060005b60008214611d82578080611d6b90613987565b915050600a82611d7b91906139fe565b9150611d58565b60008167ffffffffffffffff811115611d9e57611d9d612c50565b5b6040519080825280601f01601f191660200182016040528015611dd05781602001600182028036833780820191505090505b5090505b60008514611e5d57600182611de99190613723565b9150600a85611df89190613a2f565b6030611e049190613757565b60f81b818381518110611e1a57611e19613a60565b5b60200101907effffffffffffffffffffffffffffffffffffffffffffffffffffffffffffff1916908160001a905350600a85611e5691906139fe565b9450611dd4565b8093505050505b919050565b6000611e7782600001612526565b9050919050565b611e8782610967565b611e9881611e9361148d565b6120e1565b611ea2838361217e565b505050565b611eb18282610c72565b611f845760016006600084815260200190815260200160002060000160008373ffffffffffffffffffffffffffffffffffffffff1673ffffffffffffffffffffffffffffffffffffffff16815260200190815260200160002060006101000a81548160ff021916908315150217905550611f2961148d565b73ffffffffffffffffffffffffffffffffffffffff168173ffffffffffffffffffffffffffffffffffffffff16837f2f8788117e7eff1d82e926ec794901d17c78024a50270940304540a733656f0d60405160405180910390a45b5050565b6000611f948383612537565b611fed578260000182908060018154018082558091505060019003906000526020600020016000909190919091505582600001805490508360010160008481526020019081526020016000208190555060019050611ff2565b600090505b92915050565b60007f01ffc9a7000000000000000000000000000000000000000000000000000000007bffffffffffffffffffffffffffffffffffffffffffffffffffffffff1916827bffffffffffffffffffffffffffffffffffffffffffffffffffffffff1916149050919050565b60007f5a05180f000000000000000000000000000000000000000000000000000000007bffffffffffffffffffffffffffffffffffffffffffffffffffffffff1916827bffffffffffffffffffffffffffffffffffffffffffffffffffffffff191614806120d557506120d48261255a565b5b9050919050565b505050565b6120eb8282610c72565b61217a576121108173ffffffffffffffffffffffffffffffffffffffff1660146125d4565b61211e8360001c60206125d4565b60405160200161212f929190613b27565b6040516020818303038152906040526040517f08c379a00000000000000000000000000000000000000000000000000000000081526004016121719190612982565b60405180910390fd5b5050565b6121888282610c72565b1561225c5760006006600084815260200190815260200160002060000160008373ffffffffffffffffffffffffffffffffffffffff1673ffffffffffffffffffffffffffffffffffffffff16815260200190815260200160002060006101000a81548160ff02191690831515021790555061220161148d565b73ffffffffffffffffffffffffffffffffffffffff168173ffffffffffffffffffffffffffffffffffffffff16837ff6391f5c32d9c69d2a47ea670b442974b53935d1edc7fd64eb21e047a839171b60405160405180910390a45b5050565b600080836001016000848152602001908152602001600020549050600081146123685760006001826122929190613723565b90506000600186600001805490506122aa9190613723565b90508181146123195760008660000182815481106122cb576122ca613a60565b5b90600052602060002001549050808760000184815481106122ef576122ee613a60565b5b90600052602060002001819055508387600101600083815260200190815260200160002081905550505b8560000180548061232d5761232c613b61565b5b60019003818190600052602060002001600090559055856001016000868152602001908152602001600020600090556001935050505061236e565b60009150505b92915050565b60006123958473ffffffffffffffffffffffffffffffffffffffff16612810565b156124ee578373ffffffffffffffffffffffffffffffffffffffff1663150b7a026123be61148d565b8786866040518563ffffffff1660e01b81526004016123e09493929190613be5565b6020604051808303816000875af192505050801561241c57506040513d601f19601f820116820180604052508101906124199190613c46565b60015b61249e573d806000811461244c576040519150601f19603f3d011682016040523d82523d6000602084013e612451565b606091505b506000815103612496576040517f08c379a000000000000000000000000000000000000000000000000000000000815260040161248d90613967565b60405180910390fd5b805181602001fd5b63150b7a0260e01b7bffffffffffffffffffffffffffffffffffffffffffffffffffffffff1916817bffffffffffffffffffffffffffffffffffffffffffffffffffffffff1916149150506124f3565b600190505b949350505050565b600082600001828154811061251357612512613a60565b5b9060005260206000200154905092915050565b600081600001805490509050919050565b600080836001016000848152602001908152602001600020541415905092915050565b60007f7965db0b000000000000000000000000000000000000000000000000000000007bffffffffffffffffffffffffffffffffffffffffffffffffffffffff1916827bffffffffffffffffffffffffffffffffffffffffffffffffffffffff191614806125cd57506125cc826112c5565b5b9050919050565b6060600060028360026125e79190613c73565b6125f19190613757565b67ffffffffffffffff81111561260a57612609612c50565b5b6040519080825280601f01601f19166020018201604052801561263c5781602001600182028036833780820191505090505b5090507f30000000000000000000000000000000000000000000000000000000000000008160008151811061267457612673613a60565b5b60200101907effffffffffffffffffffffffffffffffffffffffffffffffffffffffffffff1916908160001a9053507f7800000000000000000000000000000000000000000000000000000000000000816001815181106126d8576126d7613a60565b5b60200101907effffffffffffffffffffffffffffffffffffffffffffffffffffffffffffff1916908160001a905350600060018460026127189190613c73565b6127229190613757565b90505b60018111156127c2577f3031323334353637383961626364656600000000000000000000000000000000600f86166010811061276457612763613a60565b5b1a60f81b82828151811061277b5761277a613a60565b5b60200101907effffffffffffffffffffffffffffffffffffffffffffffffffffffffffffff1916908160001a905350600485901c9450806127bb90613cb5565b9050612725565b5060008414612806576040517f08c379a00000000000000000000000000000000000000000000000000000000081526004016127fd90613d2a565b60405180910390fd5b8091505092915050565b600080823b905060008111915050919050565b6000604051905090565b600080fd5b600080fd5b60007fffffffff0000000000000000000000000000000000000000000000000000000082169050919050565b61286c81612837565b811461287757600080fd5b50565b60008135905061288981612863565b92915050565b6000602082840312156128a5576128a461282d565b5b60006128b38482850161287a565b91505092915050565b60008115159050919050565b6128d1816128bc565b82525050565b60006020820190506128ec60008301846128c8565b92915050565b600081519050919050565b600082825260208201905092915050565b60005b8381101561292c578082015181840152602081019050612911565b60008484015250505050565b6000601f19601f8301169050919050565b6000612954826128f2565b61295e81856128fd565b935061296e81856020860161290e565b61297781612938565b840191505092915050565b6000602082019050818103600083015261299c8184612949565b905092915050565b6000819050919050565b6129b7816129a4565b81146129c257600080fd5b50565b6000813590506129d4816129ae565b92915050565b6000602082840312156129f0576129ef61282d565b5b60006129fe848285016129c5565b91505092915050565b600073ffffffffffffffffffffffffffffffffffffffff82169050919050565b6000612a3282612a07565b9050919050565b612a4281612a27565b82525050565b6000602082019050612a5d6000830184612a39565b92915050565b612a6c81612a27565b8114612a7757600080fd5b50565b600081359050612a8981612a63565b92915050565b60008060408385031215612aa657612aa561282d565b5b6000612ab485828601612a7a565b9250506020612ac5858286016129c5565b9150509250929050565b600080600060608486031215612ae857612ae761282d565b5b6000612af686828701612a7a565b9350506020612b0786828701612a7a565b9250506040612b18868287016129c5565b9150509250925092565b6000819050919050565b612b3581612b22565b8114612b4057600080fd5b50565b600081359050612b5281612b2c565b92915050565b600060208284031215612b6e57612b6d61282d565b5b6000612b7c84828501612b43565b91505092915050565b612b8e81612b22565b82525050565b6000602082019050612ba96000830184612b85565b92915050565b60008060408385031215612bc657612bc561282d565b5b6000612bd485828601612b43565b9250506020612be585828601612a7a565b9150509250929050565b600060208284031215612c0557612c0461282d565b5b6000612c1384828501612a7a565b91505092915050565b612c25816129a4565b82525050565b6000602082019050612c406000830184612c1c565b92915050565b600080fd5b600080fd5b7f4e487b7100000000000000000000000000000000000000000000000000000000600052604160045260246000fd5b612c8882612938565b810181811067ffffffffffffffff82111715612ca757612ca6612c50565b5b80604052505050565b6000612cba612823565b9050612cc68282612c7f565b919050565b600067ffffffffffffffff821115612ce657612ce5612c50565b5b612cef82612938565b9050602081019050919050565b82818337600083830152505050565b6000612d1e612d1984612ccb565b612cb0565b905082815260208101848484011115612d3a57612d39612c4b565b5b612d45848285612cfc565b509392505050565b600082601f830112612d6257612d61612c46565b5b8135612d72848260208601612d0b565b91505092915050565b600080600060608486031215612d9457612d9361282d565b5b6000612da286828701612a7a565b9350506020612db3868287016129c5565b925050604084013567ffffffffffffffff811115612dd457612dd3612832565b5b612de086828701612d4d565b9150509250925092565b60008060408385031215612e0157612e0061282d565b5b6000612e0f85828601612b43565b9250506020612e20858286016129c5565b9150509250929050565b612e33816128bc565b8114612e3e57600080fd5b50565b600081359050612e5081612e2a565b92915050565b60008060408385031215612e6d57612e6c61282d565b5b6000612e7b85828601612a7a565b9250506020612e8c85828601612e41565b9150509250929050565b60008060008060808587031215612eb057612eaf61282d565b5b6000612ebe87828801612a7a565b9450506020612ecf87828801612a7a565b9350506040612ee0878288016129c5565b925050606085013567ffffffffffffffff811115612f0157612f00612832565b5b612f0d87828801612d4d565b91505092959194509250565b60008060408385031215612f3057612f2f61282d565b5b6000612f3e85828601612a7a565b9250506020612f4f85828601612a7a565b9150509250929050565b7f4e487b7100000000000000000000000000000000000000000000000000000000600052602260045260246000fd5b60006002820490506001821680612fa057607f821691505b602082108103612fb357612fb2612f59565b5b50919050565b7f4552433732313a20617070726f76656420717565727920666f72206e6f6e657860008201527f697374656e7420746f6b656e0000000000000000000000000000000000000000602082015250565b6000613015602c836128fd565b915061302082612fb9565b604082019050919050565b6000602082019050818103600083015261304481613008565b9050919050565b7f4552433732313a20617070726f76616c20746f2063757272656e74206f776e6560008201527f7200000000000000000000000000000000000000000000000000000000000000602082015250565b60006130a76021836128fd565b91506130b28261304b565b604082019050919050565b600060208201905081810360008301526130d68161309a565b9050919050565b7f4552433732313a20617070726f76652063616c6c6572206973206e6f74206f7760008201527f6e6572206e6f7220617070726f76656420666f7220616c6c0000000000000000602082015250565b60006131396038836128fd565b9150613144826130dd565b604082019050919050565b600060208201905081810360008301526131688161312c565b9050919050565b7f4552433732313a207472616e736665722063616c6c6572206973206e6f74206f60008201527f776e6572206e6f7220617070726f766564000000000000000000000000000000602082015250565b60006131cb6031836128fd565b91506131d68261316f565b604082019050919050565b600060208201905081810360008301526131fa816131be565b9050919050565b7f4d696e746572526f6c653a2063616c6c657220646f6573206e6f74206861766560008201527f20746865204d696e74657220726f6c6500000000000000000000000000000000602082015250565b600061325d6030836128fd565b915061326882613201565b604082019050919050565b6000602082019050818103600083015261328c81613250565b9050919050565b7f4552433732313a206f776e657220717565727920666f72206e6f6e657869737460008201527f656e7420746f6b656e0000000000000000000000000000000000000000000000602082015250565b60006132ef6029836128fd565b91506132fa82613293565b604082019050919050565b6000602082019050818103600083015261331e816132e2565b9050919050565b7f4552433732313a2062616c616e636520717565727920666f7220746865207a6560008201527f726f206164647265737300000000000000000000000000000000000000000000602082015250565b6000613381602a836128fd565b915061338c82613325565b604082019050919050565b600060208201905081810360008301526133b081613374565b9050919050565b60006040820190506133cc6000830185612b85565b6133d96020830184612a39565b9392505050565b7f4552433732313a20617070726f766520746f2063616c6c657200000000000000600082015250565b60006134166019836128fd565b9150613421826133e0565b602082019050919050565b6000602082019050818103600083015261344581613409565b9050919050565b7f4552433732314d657461646174613a2055524920717565727920666f72206e6f60008201527f6e6578697374656e7420746f6b656e0000000000000000000000000000000000602082015250565b60006134a8602f836128fd565b91506134b38261344c565b604082019050919050565b600060208201905081810360008301526134d78161349b565b9050919050565b600081905092915050565b60006134f4826128f2565b6134fe81856134de565b935061350e81856020860161290e565b80840191505092915050565b600061352682856134e9565b915061353282846134e9565b91508190509392505050565b7f4552433732313a206f70657261746f7220717565727920666f72206e6f6e657860008201527f697374656e7420746f6b656e0000000000000000000000000000000000000000602082015250565b600061359a602c836128fd565b91506135a58261353e565b604082019050919050565b600060208201905081810360008301526135c98161358d565b9050919050565b7f4552433732313a207472616e73666572206f6620746f6b656e2074686174206960008201527f73206e6f74206f776e0000000000000000000000000000000000000000000000602082015250565b600061362c6029836128fd565b9150613637826135d0565b604082019050919050565b6000602082019050818103600083015261365b8161361f565b9050919050565b7f4552433732313a207472616e7366657220746f20746865207a65726f2061646460008201527f7265737300000000000000000000000000000000000000000000000000000000602082015250565b60006136be6024836128fd565b91506136c982613662565b604082019050919050565b600060208201905081810360008301526136ed816136b1565b9050919050565b7f4e487b7100000000000000000000000000000000000000000000000000000000600052601160045260246000fd5b600061372e826129a4565b9150613739836129a4565b9250828203905081811115613751576137506136f4565b5b92915050565b6000613762826129a4565b915061376d836129a4565b9250828201905080821115613785576137846136f4565b5b92915050565b7f416363657373436f6e74726f6c3a2063616e206f6e6c792072656e6f756e636560008201527f20726f6c657320666f722073656c660000000000000000000000000000000000602082015250565b60006137e7602f836128fd565b91506137f28261378b565b604082019050919050565b60006020820190508181036000830152613816816137da565b9050919050565b7f4552433732313a206d696e7420746f20746865207a65726f2061646472657373600082015250565b60006138536020836128fd565b915061385e8261381d565b602082019050919050565b6000602082019050818103600083015261388281613846565b9050919050565b7f4552433732313a20746f6b656e20616c7265616479206d696e74656400000000600082015250565b60006138bf601c836128fd565b91506138ca82613889565b602082019050919050565b600060208201905081810360008301526138ee816138b2565b9050919050565b7f4552433732313a207472616e7366657220746f206e6f6e20455243373231526560008201527f63656976657220696d706c656d656e7465720000000000000000000000000000602082015250565b60006139516032836128fd565b915061395c826138f5565b604082019050919050565b6000602082019050818103600083015261398081613944565b9050919050565b6000613992826129a4565b91507fffffffffffffffffffffffffffffffffffffffffffffffffffffffffffffffff82036139c4576139c36136f4565b5b600182019050919050565b7f4e487b7100000000000000000000000000000000000000000000000000000000600052601260045260246000fd5b6000613a09826129a4565b9150613a14836129a4565b925082613a2457613a236139cf565b5b828204905092915050565b6000613a3a826129a4565b9150613a45836129a4565b925082613a5557613a546139cf565b5b828206905092915050565b7f4e487b7100000000000000000000000000000000000000000000000000000000600052603260045260246000fd5b7f416363657373436f6e74726f6c3a206163636f756e7420000000000000000000600082015250565b6000613ac56017836134de565b9150613ad082613a8f565b601782019050919050565b7f206973206d697373696e6720726f6c6520000000000000000000000000000000600082015250565b6000613b116011836134de565b9150613b1c82613adb565b601182019050919050565b6000613b3282613ab8565b9150613b3e82856134e9565b9150613b4982613b04565b9150613b5582846134e9565b91508190509392505050565b7f4e487b7100000000000000000000000000000000000000000000000000000000600052603160045260246000fd5b600081519050919050565b600082825260208201905092915050565b6000613bb782613b90565b613bc18185613b9b565b9350613bd181856020860161290e565b613bda81612938565b840191505092915050565b6000608082019050613bfa6000830187612a39565b613c076020830186612a39565b613c146040830185612c1c565b8181036060830152613c268184613bac565b905095945050505050565b600081519050613c4081612863565b92915050565b600060208284031215613c5c57613c5b61282d565b5b6000613c6a84828501613c31565b91505092915050565b6000613c7e826129a4565b9150613c89836129a4565b9250828202613c97816129a4565b91508282048414831517613cae57613cad6136f4565b5b5092915050565b6000613cc0826129a4565b915060008203613cd357613cd26136f4565b5b600182039050919050565b7f537472696e67733a20686578206c656e67746820696e73756666696369656e74600082015250565b6000613d146020836128fd565b9150613d1f82613cde565b602082019050919050565b60006020820190508181036000830152613d4381613d07565b905091905056fea2646970667358221220d96b0d02df433d3c872653f8c4be460a25bf753f2efe526dae2e41550291b31564736f6c63430008110033",
  "linkReferences": {},
  "deployedLinkReferences": {}
}