{
  "_format": "hh-sol-artifact-1",
  "contractName": "TitleEscrowClonerMock",
  "sourceName": "contracts/mocks/TitleEscrowClonerMock.sol",
  "abi": [
    {
      "inputs": [],
      "stateMutability": "nonpayable",
      "type": "constructor"
    },
    {
      "anonymous": false,
      "inputs": [
        {
          "indexed": true,
          "internalType": "address",
          "name": "escrowAddress",
          "type": "address"
        },
        {
          "indexed": true,
          "internalType": "address",
          "name": "tokenRegistry",
          "type": "address"
        },
        {
          "indexed": false,
          "internalType": "address",
          "name": "beneficiary",
          "type": "address"
        },
        {
          "indexed": false,
          "internalType": "address",
          "name": "holder",
          "type": "address"
        }
      ],
      "name": "TitleEscrowDeployed",
      "type": "event"
    },
    {
      "inputs": [
        {
          "internalType": "address",
          "name": "tokenRegistry",
          "type": "address"
        },
        {
          "internalType": "address",
          "name": "beneficiary",
          "type": "address"
        },
        {
          "internalType": "address",
          "name": "holder",
          "type": "address"
        }
      ],
      "name": "deployNewTitleEscrow",
      "outputs": [
        {
          "internalType": "address",
          "name": "",
          "type": "address"
        }
      ],
      "stateMutability": "nonpayable",
      "type": "function"
    },
    {
      "inputs": [],
      "name": "titleEscrowImplementation",
      "outputs": [
        {
          "internalType": "address",
          "name": "",
          "type": "address"
        }
      ],
      "stateMutability": "view",
      "type": "function"
    }
  ],
  "bytecode": "0x608060405234801561001057600080fd5b5060405161001d906100e6565b604051809103906000f080158015610039573d6000803e3d6000fd5b506000806101000a81548173ffffffffffffffffffffffffffffffffffffffff021916908373ffffffffffffffffffffffffffffffffffffffff160217905550604051610085906100f3565b604051809103906000f0801580156100a1573d6000803e3d6000fd5b506000806101000a81548173ffffffffffffffffffffffffffffffffffffffff021916908373ffffffffffffffffffffffffffffffffffffffff160217905550610100565b6129d0806105b883390190565b612e1b80612f8883390190565b6104a98061010f6000396000f3fe608060405234801561001057600080fd5b50600436106100365760003560e01c8063c9c96c891461003b578063fcd7c1df14610059575b600080fd5b610043610089565b60405161005091906102e9565b60405180910390f35b610073600480360381019061006e9190610335565b6100ad565b60405161008091906102e9565b60405180910390f35b60008054906101000a900473ffffffffffffffffffffffffffffffffffffffff1681565b60006100ba8484846100c3565b90509392505050565b6000806100ef60008054906101000a900473ffffffffffffffffffffffffffffffffffffffff166101d4565b90508073ffffffffffffffffffffffffffffffffffffffff1663f8c8765e868686306040518563ffffffff1660e01b81526004016101309493929190610388565b600060405180830381600087803b15801561014a57600080fd5b505af115801561015e573d6000803e3d6000fd5b505050508473ffffffffffffffffffffffffffffffffffffffff168173ffffffffffffffffffffffffffffffffffffffff167fe2f3f566784bdc646f1c93b8081e3a6ba18cf31fb9f2540aa0e2988954dffccb86866040516101c19291906103cd565b60405180910390a3809150509392505050565b60006040517f3d602d80600a3d3981f3363d3d373d3d3d363d7300000000000000000000000081528260601b60148201527f5af43d82803e903d91602b57fd5bf3000000000000000000000000000000000060288201526037816000f0915050600073ffffffffffffffffffffffffffffffffffffffff168173ffffffffffffffffffffffffffffffffffffffff16036102a3576040517f08c379a000000000000000000000000000000000000000000000000000000000815260040161029a90610453565b60405180910390fd5b919050565b600073ffffffffffffffffffffffffffffffffffffffff82169050919050565b60006102d3826102a8565b9050919050565b6102e3816102c8565b82525050565b60006020820190506102fe60008301846102da565b92915050565b600080fd5b610312816102c8565b811461031d57600080fd5b50565b60008135905061032f81610309565b92915050565b60008060006060848603121561034e5761034d610304565b5b600061035c86828701610320565b935050602061036d86828701610320565b925050604061037e86828701610320565b9150509250925092565b600060808201905061039d60008301876102da565b6103aa60208301866102da565b6103b760408301856102da565b6103c460608301846102da565b95945050505050565b60006040820190506103e260008301856102da565b6103ef60208301846102da565b9392505050565b600082825260208201905092915050565b7f455243313136373a20637265617465206661696c656400000000000000000000600082015250565b600061043d6016836103f6565b915061044882610407565b602082019050919050565b6000602082019050818103600083015261046c81610430565b905091905056fea2646970667358221220a571dad6de1fade40f5dc1431dba4f4779476e9af654500518fdca275b7c1cff64736f6c63430008110033608060405234801561001057600080fd5b506129b0806100206000396000f3fe608060405234801561001057600080fd5b506004361061010b5760003560e01c806338af3eed116100a2578063b71c47a211610071578063b71c47a214610296578063d4b56610146102a0578063e366ab30146102be578063e534155d146102da578063f8c8765e146102f85761010b565b806338af3eed146102225780635a87db751461024057806374bbb3501461025c5780639d23c4c7146102785761010b565b80631fe2b08a116100de5780631fe2b08a146101aa578063200d2ed2146101c857806324822514146101e6578063325689f9146102045761010b565b806301ffc9a71461011057806303f0736d146101405780630cb258b71461015c578063150b7a021461017a575b600080fd5b61012a60048036038101906101259190611d17565b610314565b6040516101379190611d5f565b60405180910390f35b61015a60048036038101906101559190611dd8565b61037e565b005b61016461064e565b6040516101719190611e14565b60405180910390f35b610194600480360381019061018f9190611eca565b610674565b6040516101a19190611f61565b60405180910390f35b6101b2610843565b6040516101bf9190611e14565b60405180910390f35b6101d0610869565b6040516101dd9190611ff3565b60405180910390f35b6101ee61087c565b6040516101fb919061201d565b60405180910390f35b61020c610882565b6040516102199190612097565b60405180910390f35b61022a6108a8565b6040516102379190611e14565b60405180910390f35b61025a60048036038101906102559190611dd8565b6108ce565b005b610276600480360381019061027191906120b2565b610ae7565b005b610280611044565b60405161028d9190612113565b60405180910390f35b61029e61106a565b005b6102a86112eb565b6040516102b59190611e14565b60405180910390f35b6102d860048036038101906102d391906120b2565b611311565b005b6102e26116dc565b6040516102ef9190611e14565b60405180910390f35b610312600480360381019061030d919061212e565b611702565b005b60007f1676e9e0000000000000000000000000000000000000000000000000000000007bffffffffffffffffffffffffffffffffffffffffffffffffffffffff1916827bffffffffffffffffffffffffffffffffffffffffffffffffffffffff1916149050919050565b6000600354036103c3576040517f08c379a00000000000000000000000000000000000000000000000000000000081526004016103ba90612218565b60405180910390fd5b600160028111156103d7576103d6611f7c565b5b600160149054906101000a900460ff1660028111156103f9576103f8611f7c565b5b14610439576040517f08c379a0000000000000000000000000000000000000000000000000000000008152600401610430906122aa565b60405180910390fd5b3073ffffffffffffffffffffffffffffffffffffffff16600260009054906101000a900473ffffffffffffffffffffffffffffffffffffffff1673ffffffffffffffffffffffffffffffffffffffff16636352211e6003546040518263ffffffff1660e01b81526004016104ad919061201d565b602060405180830381865afa1580156104ca573d6000803e3d6000fd5b505050506040513d601f19601f820116820180604052508101906104ee91906122df565b73ffffffffffffffffffffffffffffffffffffffff1614610544576040517f08c379a000000000000000000000000000000000000000000000000000000000815260040161053b9061237e565b60405180910390fd5b61054c61189e565b61058b576040517f08c379a000000000000000000000000000000000000000000000000000000000815260040161058290612436565b60405180910390fd5b8073ffffffffffffffffffffffffffffffffffffffff16600160009054906101000a900473ffffffffffffffffffffffffffffffffffffffff1673ffffffffffffffffffffffffffffffffffffffff166003547fd728b6f1bea0a163413b81fbf7301d4a193de3b5565105255108cdec8b2acddb60405160405180910390a480600760006101000a81548173ffffffffffffffffffffffffffffffffffffffff021916908373ffffffffffffffffffffffffffffffffffffffff16021790555050565b600660009054906101000a900473ffffffffffffffffffffffffffffffffffffffff1681565b600080600281111561068957610688611f7c565b5b600160149054906101000a900460ff1660028111156106ab576106aa611f7c565b5b146106eb576040517f08c379a00000000000000000000000000000000000000000000000000000000081526004016106e2906124c8565b60405180910390fd5b600260009054906101000a900473ffffffffffffffffffffffffffffffffffffffff1673ffffffffffffffffffffffffffffffffffffffff1661072c6118fd565b73ffffffffffffffffffffffffffffffffffffffff1614610782576040517f08c379a000000000000000000000000000000000000000000000000000000000815260040161077990612580565b60405180910390fd5b836003819055506003548573ffffffffffffffffffffffffffffffffffffffff166107ab6118fd565b73ffffffffffffffffffffffffffffffffffffffff167f01fcbb5289f65a5306cb0d0c6a79f53f0c1c0b245a042e3565e30c0e6104e24060405160405180910390a460018060146101000a81548160ff0219169083600281111561081257610811611f7c565b5b02179055507f150b7a023d4804d13e8c85fb27262cb750cf6ba9f9dd3bb30d90f482ceeb4b1f905095945050505050565b600760009054906101000a900473ffffffffffffffffffffffffffffffffffffffff1681565b600160149054906101000a900460ff1681565b60035481565b600460009054906101000a900473ffffffffffffffffffffffffffffffffffffffff1681565b600160009054906101000a900473ffffffffffffffffffffffffffffffffffffffff1681565b600060035403610913576040517f08c379a000000000000000000000000000000000000000000000000000000000815260040161090a90612218565b60405180910390fd5b6001600281111561092757610926611f7c565b5b600160149054906101000a900460ff16600281111561094957610948611f7c565b5b14610989576040517f08c379a0000000000000000000000000000000000000000000000000000000008152600401610980906122aa565b60405180910390fd5b3073ffffffffffffffffffffffffffffffffffffffff16600260009054906101000a900473ffffffffffffffffffffffffffffffffffffffff1673ffffffffffffffffffffffffffffffffffffffff16636352211e6003546040518263ffffffff1660e01b81526004016109fd919061201d565b602060405180830381865afa158015610a1a573d6000803e3d6000fd5b505050506040513d601f19601f82011682018060405250810190610a3e91906122df565b73ffffffffffffffffffffffffffffffffffffffff1614610a94576040517f08c379a0000000000000000000000000000000000000000000000000000000008152600401610a8b9061237e565b60405180910390fd5b610a9c611905565b610adb576040517f08c379a0000000000000000000000000000000000000000000000000000000008152600401610ad290612612565b60405180910390fd5b610ae481611963565b50565b600060035403610b2c576040517f08c379a0000000000000000000000000000000000000000000000000000000008152600401610b2390612218565b60405180910390fd5b60016002811115610b4057610b3f611f7c565b5b600160149054906101000a900460ff166002811115610b6257610b61611f7c565b5b14610ba2576040517f08c379a0000000000000000000000000000000000000000000000000000000008152600401610b99906122aa565b60405180910390fd5b3073ffffffffffffffffffffffffffffffffffffffff16600260009054906101000a900473ffffffffffffffffffffffffffffffffffffffff1673ffffffffffffffffffffffffffffffffffffffff16636352211e6003546040518263ffffffff1660e01b8152600401610c16919061201d565b602060405180830381865afa158015610c33573d6000803e3d6000fd5b505050506040513d601f19601f82011682018060405250810190610c5791906122df565b73ffffffffffffffffffffffffffffffffffffffff1614610cad576040517f08c379a0000000000000000000000000000000000000000000000000000000008152600401610ca49061237e565b60405180910390fd5b610cb5611905565b610cf4576040517f08c379a0000000000000000000000000000000000000000000000000000000008152600401610ceb90612612565b60405180910390fd5b8181600073ffffffffffffffffffffffffffffffffffffffff168273ffffffffffffffffffffffffffffffffffffffff1603610d65576040517f08c379a0000000000000000000000000000000000000000000000000000000008152600401610d5c906126a4565b60405180910390fd5b600073ffffffffffffffffffffffffffffffffffffffff168173ffffffffffffffffffffffffffffffffffffffff1603610dd4576040517f08c379a0000000000000000000000000000000000000000000000000000000008152600401610dcb906126a4565b60405180910390fd5b600160009054906101000a900473ffffffffffffffffffffffffffffffffffffffff1673ffffffffffffffffffffffffffffffffffffffff16600060029054906101000a900473ffffffffffffffffffffffffffffffffffffffff1673ffffffffffffffffffffffffffffffffffffffff1614610f6c57600560009054906101000a900473ffffffffffffffffffffffffffffffffffffffff1673ffffffffffffffffffffffffffffffffffffffff168273ffffffffffffffffffffffffffffffffffffffff1614610edb576040517f08c379a0000000000000000000000000000000000000000000000000000000008152600401610ed290612736565b60405180910390fd5b600660009054906101000a900473ffffffffffffffffffffffffffffffffffffffff1673ffffffffffffffffffffffffffffffffffffffff168173ffffffffffffffffffffffffffffffffffffffff1614610f6b576040517f08c379a0000000000000000000000000000000000000000000000000000000008152600401610f62906127c8565b60405180910390fd5b5b6000600460009054906101000a900473ffffffffffffffffffffffffffffffffffffffff1673ffffffffffffffffffffffffffffffffffffffff1663fcd7c1df600260009054906101000a900473ffffffffffffffffffffffffffffffffffffffff1687876040518463ffffffff1660e01b8152600401610fef939291906127e8565b6020604051808303816000875af115801561100e573d6000803e3d6000fd5b505050506040513d601f19601f8201168201806040525081019061103291906122df565b905061103d81611a92565b5050505050565b600260009054906101000a900473ffffffffffffffffffffffffffffffffffffffff1681565b6000600354036110af576040517f08c379a00000000000000000000000000000000000000000000000000000000081526004016110a690612218565b60405180910390fd5b600160028111156110c3576110c2611f7c565b5b600160149054906101000a900460ff1660028111156110e5576110e4611f7c565b5b14611125576040517f08c379a000000000000000000000000000000000000000000000000000000000815260040161111c906122aa565b60405180910390fd5b3073ffffffffffffffffffffffffffffffffffffffff16600260009054906101000a900473ffffffffffffffffffffffffffffffffffffffff1673ffffffffffffffffffffffffffffffffffffffff16636352211e6003546040518263ffffffff1660e01b8152600401611199919061201d565b602060405180830381865afa1580156111b6573d6000803e3d6000fd5b505050506040513d601f19601f820116820180604052508101906111da91906122df565b73ffffffffffffffffffffffffffffffffffffffff1614611230576040517f08c379a00000000000000000000000000000000000000000000000000000000081526004016112279061237e565b60405180910390fd5b61123861189e565b611277576040517f08c379a000000000000000000000000000000000000000000000000000000000815260040161126e90612436565b60405180910390fd5b61127f611905565b6112be576040517f08c379a00000000000000000000000000000000000000000000000000000000081526004016112b590612612565b60405180910390fd5b6112e9600260009054906101000a900473ffffffffffffffffffffffffffffffffffffffff16611a92565b565b600560009054906101000a900473ffffffffffffffffffffffffffffffffffffffff1681565b61131961189e565b611358576040517f08c379a000000000000000000000000000000000000000000000000000000000815260040161134f90612436565b60405180910390fd5b60006003540361139d576040517f08c379a000000000000000000000000000000000000000000000000000000000815260040161139490612218565b60405180910390fd5b600160028111156113b1576113b0611f7c565b5b600160149054906101000a900460ff1660028111156113d3576113d2611f7c565b5b14611413576040517f08c379a000000000000000000000000000000000000000000000000000000000815260040161140a906122aa565b60405180910390fd5b3073ffffffffffffffffffffffffffffffffffffffff16600260009054906101000a900473ffffffffffffffffffffffffffffffffffffffff1673ffffffffffffffffffffffffffffffffffffffff16636352211e6003546040518263ffffffff1660e01b8152600401611487919061201d565b602060405180830381865afa1580156114a4573d6000803e3d6000fd5b505050506040513d601f19601f820116820180604052508101906114c891906122df565b73ffffffffffffffffffffffffffffffffffffffff161461151e576040517f08c379a00000000000000000000000000000000000000000000000000000000081526004016115159061237e565b60405180910390fd5b600073ffffffffffffffffffffffffffffffffffffffff168273ffffffffffffffffffffffffffffffffffffffff160361158d576040517f08c379a0000000000000000000000000000000000000000000000000000000008152600401611584906126a4565b60405180910390fd5b600073ffffffffffffffffffffffffffffffffffffffff168173ffffffffffffffffffffffffffffffffffffffff16036115fc576040517f08c379a00000000000000000000000000000000000000000000000000000000081526004016115f3906126a4565b60405180910390fd5b8073ffffffffffffffffffffffffffffffffffffffff168273ffffffffffffffffffffffffffffffffffffffff167f69e959981ba8324fe4ac2cc8441dfcac87573494c77536baaf7acee6c51b7b6d60405160405180910390a381600560006101000a81548173ffffffffffffffffffffffffffffffffffffffff021916908373ffffffffffffffffffffffffffffffffffffffff16021790555080600660006101000a81548173ffffffffffffffffffffffffffffffffffffffff021916908373ffffffffffffffffffffffffffffffffffffffff1602179055505050565b600060029054906101000a900473ffffffffffffffffffffffffffffffffffffffff1681565b600060019054906101000a900460ff1680611728575060008054906101000a900460ff16155b611767576040517f08c379a000000000000000000000000000000000000000000000000000000000815260040161175e90612891565b60405180910390fd5b60008060019054906101000a900460ff1615905080156117b7576001600060016101000a81548160ff02191690831515021790555060016000806101000a81548160ff0219169083151502179055505b6117c083611bd2565b6117c984611c71565b84600260006101000a81548173ffffffffffffffffffffffffffffffffffffffff021916908373ffffffffffffffffffffffffffffffffffffffff16021790555081600460006101000a81548173ffffffffffffffffffffffffffffffffffffffff021916908373ffffffffffffffffffffffffffffffffffffffff1602179055506000600160146101000a81548160ff0219169083600281111561187157611870611f7c565b5b021790555080156118975760008060016101000a81548160ff0219169083151502179055505b5050505050565b6000600160009054906101000a900473ffffffffffffffffffffffffffffffffffffffff1673ffffffffffffffffffffffffffffffffffffffff166118e16118fd565b73ffffffffffffffffffffffffffffffffffffffff1614905090565b600033905090565b60008060029054906101000a900473ffffffffffffffffffffffffffffffffffffffff1673ffffffffffffffffffffffffffffffffffffffff166119476118fd565b73ffffffffffffffffffffffffffffffffffffffff1614905090565b600073ffffffffffffffffffffffffffffffffffffffff168173ffffffffffffffffffffffffffffffffffffffff16036119d2576040517f08c379a00000000000000000000000000000000000000000000000000000000081526004016119c990612923565b60405180910390fd5b8073ffffffffffffffffffffffffffffffffffffffff16600060029054906101000a900473ffffffffffffffffffffffffffffffffffffffff1673ffffffffffffffffffffffffffffffffffffffff167f076c2af751a37d3871addf9a6fdedbaf3827fb030bf1d04c43a1421420fcc98760405160405180910390a380600060026101000a81548173ffffffffffffffffffffffffffffffffffffffff021916908373ffffffffffffffffffffffffffffffffffffffff16021790555050565b6002600160146101000a81548160ff02191690836002811115611ab857611ab7611f7c565b5b02179055506003548173ffffffffffffffffffffffffffffffffffffffff16600260009054906101000a900473ffffffffffffffffffffffffffffffffffffffff1673ffffffffffffffffffffffffffffffffffffffff167fcf31cbde15ae9b0bfff5442830acd2764cad8da3394f189aa10c5a932e5b295560405160405180910390a4600260009054906101000a900473ffffffffffffffffffffffffffffffffffffffff1673ffffffffffffffffffffffffffffffffffffffff166342842e0e30836003546040518463ffffffff1660e01b8152600401611b9d93929190612943565b600060405180830381600087803b158015611bb757600080fd5b505af1158015611bcb573d6000803e3d6000fd5b5050505050565b80600060026101000a81548173ffffffffffffffffffffffffffffffffffffffff021916908373ffffffffffffffffffffffffffffffffffffffff1602179055508073ffffffffffffffffffffffffffffffffffffffff16600073ffffffffffffffffffffffffffffffffffffffff167f076c2af751a37d3871addf9a6fdedbaf3827fb030bf1d04c43a1421420fcc98760405160405180910390a350565b80600160006101000a81548173ffffffffffffffffffffffffffffffffffffffff021916908373ffffffffffffffffffffffffffffffffffffffff16021790555050565b600080fd5b600080fd5b60007fffffffff0000000000000000000000000000000000000000000000000000000082169050919050565b611cf481611cbf565b8114611cff57600080fd5b50565b600081359050611d1181611ceb565b92915050565b600060208284031215611d2d57611d2c611cb5565b5b6000611d3b84828501611d02565b91505092915050565b60008115159050919050565b611d5981611d44565b82525050565b6000602082019050611d746000830184611d50565b92915050565b600073ffffffffffffffffffffffffffffffffffffffff82169050919050565b6000611da582611d7a565b9050919050565b611db581611d9a565b8114611dc057600080fd5b50565b600081359050611dd281611dac565b92915050565b600060208284031215611dee57611ded611cb5565b5b6000611dfc84828501611dc3565b91505092915050565b611e0e81611d9a565b82525050565b6000602082019050611e296000830184611e05565b92915050565b6000819050919050565b611e4281611e2f565b8114611e4d57600080fd5b50565b600081359050611e5f81611e39565b92915050565b600080fd5b600080fd5b600080fd5b60008083601f840112611e8a57611e89611e65565b5b8235905067ffffffffffffffff811115611ea757611ea6611e6a565b5b602083019150836001820283011115611ec357611ec2611e6f565b5b9250929050565b600080600080600060808688031215611ee657611ee5611cb5565b5b6000611ef488828901611dc3565b9550506020611f0588828901611dc3565b9450506040611f1688828901611e50565b935050606086013567ffffffffffffffff811115611f3757611f36611cba565b5b611f4388828901611e74565b92509250509295509295909350565b611f5b81611cbf565b82525050565b6000602082019050611f766000830184611f52565b92915050565b7f4e487b7100000000000000000000000000000000000000000000000000000000600052602160045260246000fd5b60038110611fbc57611fbb611f7c565b5b50565b6000819050611fcd82611fab565b919050565b6000611fdd82611fbf565b9050919050565b611fed81611fd2565b82525050565b60006020820190506120086000830184611fe4565b92915050565b61201781611e2f565b82525050565b6000602082019050612032600083018461200e565b92915050565b6000819050919050565b600061205d61205861205384611d7a565b612038565b611d7a565b9050919050565b600061206f82612042565b9050919050565b600061208182612064565b9050919050565b61209181612076565b82525050565b60006020820190506120ac6000830184612088565b92915050565b600080604083850312156120c9576120c8611cb5565b5b60006120d785828601611dc3565b92505060206120e885828601611dc3565b9150509250929050565b60006120fd82612064565b9050919050565b61210d816120f2565b82525050565b60006020820190506121286000830184612104565b92915050565b6000806000806080858703121561214857612147611cb5565b5b600061215687828801611dc3565b945050602061216787828801611dc3565b935050604061217887828801611dc3565b925050606061218987828801611dc3565b91505092959194509250565b600082825260208201905092915050565b7f5469746c65457363726f773a20436f6e7472616374206973206e6f7420686f6c60008201527f64696e67206120746f6b656e0000000000000000000000000000000000000000602082015250565b6000612202602c83612195565b915061220d826121a6565b604082019050919050565b60006020820190508181036000830152612231816121f5565b9050919050565b7f5469746c65457363726f773a20436f6e7472616374206973206e6f7420696e2060008201527f7573650000000000000000000000000000000000000000000000000000000000602082015250565b6000612294602383612195565b915061229f82612238565b604082019050919050565b600060208201905081810360008301526122c381612287565b9050919050565b6000815190506122d981611dac565b92915050565b6000602082840312156122f5576122f4611cb5565b5b6000612303848285016122ca565b91505092915050565b7f5469746c65457363726f773a20436f6e7472616374206973206e6f742074686560008201527f206f776e6572206f6620746f6b656e0000000000000000000000000000000000602082015250565b6000612368602f83612195565b91506123738261230c565b604082019050919050565b600060208201905081810360008301526123978161235b565b9050919050565b7f4861734e616d656442656e65666963696172793a206f6e6c792074686520626560008201527f6e6566696369617279206d617920696e766f6b6520746869732066756e63746960208201527f6f6e000000000000000000000000000000000000000000000000000000000000604082015250565b6000612420604283612195565b915061242b8261239e565b606082019050919050565b6000602082019050818103600083015261244f81612413565b9050919050565b7f5469746c65457363726f773a20436f6e747261637420686173206265656e207560008201527f736564206265666f726500000000000000000000000000000000000000000000602082015250565b60006124b2602a83612195565b91506124bd82612456565b604082019050919050565b600060208201905081810360008301526124e1816124a5565b9050919050565b7f5469746c65457363726f773a204f6e6c7920746f6b656e732066726f6d20707260008201527f65646566696e656420746f6b656e2072656769737472792063616e206265206160208201527f6363657074656400000000000000000000000000000000000000000000000000604082015250565b600061256a604783612195565b9150612575826124e8565b606082019050919050565b600060208201905081810360008301526125998161255d565b9050919050565b7f486173486f6c6465723a206f6e6c792074686520686f6c646572206d6179206960008201527f6e766f6b6520746869732066756e6374696f6e00000000000000000000000000602082015250565b60006125fc603383612195565b9150612607826125a0565b604082019050919050565b6000602082019050818103600083015261262b816125ef565b9050919050565b7f5469746c65457363726f773a205472616e7366657272696e6720746f2030783060008201527f206973206e6f7420616c6c6f7765640000000000000000000000000000000000602082015250565b600061268e602f83612195565b915061269982612632565b604082019050919050565b600060208201905081810360008301526126bd81612681565b9050919050565b7f5469746c65457363726f773a2042656e656669636961727920686173206e6f7460008201527f206265656e20656e646f727365642062792062656e6566696369617279000000602082015250565b6000612720603d83612195565b915061272b826126c4565b604082019050919050565b6000602082019050818103600083015261274f81612713565b9050919050565b7f5469746c65457363726f773a20486f6c64657220686173206e6f74206265656e60008201527f20656e646f727365642062792062656e65666963696172790000000000000000602082015250565b60006127b2603883612195565b91506127bd82612756565b604082019050919050565b600060208201905081810360008301526127e1816127a5565b9050919050565b60006060820190506127fd6000830186611e05565b61280a6020830185611e05565b6128176040830184611e05565b949350505050565b7f496e697469616c697a61626c653a20636f6e747261637420697320616c72656160008201527f647920696e697469616c697a6564000000000000000000000000000000000000602082015250565b600061287b602e83612195565b91506128868261281f565b604082019050919050565b600060208201905081810360008301526128aa8161286e565b9050919050565b7f486173486f6c6465723a206e657720686f6c64657220697320746865207a657260008201527f6f20616464726573730000000000000000000000000000000000000000000000602082015250565b600061290d602983612195565b9150612918826128b1565b604082019050919050565b6000602082019050818103600083015261293c81612900565b9050919050565b60006060820190506129586000830186611e05565b6129656020830185611e05565b612972604083018461200e565b94935050505056fea2646970667358221220e4ccde2de014fe978606ff38dbabbf6ceb1c2010f48b6d1815058be1f488231c64736f6c63430008110033608060405234801561001057600080fd5b50612dfb806100206000396000f3fe608060405234801561001057600080fd5b50600436106101165760003560e01c80635a87db75116100a2578063b71c47a211610071578063b71c47a2146102bd578063d4b56610146102c7578063e366ab30146102e5578063e534155d14610301578063f8c8765e1461031f57610116565b80635a87db751461024b57806374bbb350146102675780639d23c4c714610283578063a03fa7e3146102a157610116565b80631fe2b08a116100e95780631fe2b08a146101b5578063200d2ed2146101d357806324822514146101f1578063325689f91461020f57806338af3eed1461022d57610116565b806301ffc9a71461011b57806303f0736d1461014b5780630cb258b714610167578063150b7a0214610185575b600080fd5b610135600480360381019061013091906120d0565b61033b565b6040516101429190612118565b60405180910390f35b61016560048036038101906101609190612191565b6103a5565b005b61016f610675565b60405161017c91906121cd565b60405180910390f35b61019f600480360381019061019a9190612283565b61069b565b6040516101ac919061231a565b60405180910390f35b6101bd61086a565b6040516101ca91906121cd565b60405180910390f35b6101db610890565b6040516101e891906123ac565b60405180910390f35b6101f96108a3565b60405161020691906123d6565b60405180910390f35b6102176108a9565b6040516102249190612450565b60405180910390f35b6102356108cf565b60405161024291906121cd565b60405180910390f35b61026560048036038101906102609190612191565b6108f5565b005b610281600480360381019061027c919061246b565b610b0e565b005b61028b61106b565b60405161029891906124cc565b60405180910390f35b6102bb60048036038101906102b69190612191565b611091565b005b6102c5611423565b005b6102cf6116a4565b6040516102dc91906121cd565b60405180910390f35b6102ff60048036038101906102fa919061246b565b6116ca565b005b610309611a95565b60405161031691906121cd565b60405180910390f35b610339600480360381019061033491906124e7565b611abb565b005b60007f1676e9e0000000000000000000000000000000000000000000000000000000007bffffffffffffffffffffffffffffffffffffffffffffffffffffffff1916827bffffffffffffffffffffffffffffffffffffffffffffffffffffffff1916149050919050565b6000600354036103ea576040517f08c379a00000000000000000000000000000000000000000000000000000000081526004016103e1906125d1565b60405180910390fd5b600160028111156103fe576103fd612335565b5b600160149054906101000a900460ff1660028111156104205761041f612335565b5b14610460576040517f08c379a000000000000000000000000000000000000000000000000000000000815260040161045790612663565b60405180910390fd5b3073ffffffffffffffffffffffffffffffffffffffff16600260009054906101000a900473ffffffffffffffffffffffffffffffffffffffff1673ffffffffffffffffffffffffffffffffffffffff16636352211e6003546040518263ffffffff1660e01b81526004016104d491906123d6565b602060405180830381865afa1580156104f1573d6000803e3d6000fd5b505050506040513d601f19601f820116820180604052508101906105159190612698565b73ffffffffffffffffffffffffffffffffffffffff161461056b576040517f08c379a000000000000000000000000000000000000000000000000000000000815260040161056290612737565b60405180910390fd5b610573611c57565b6105b2576040517f08c379a00000000000000000000000000000000000000000000000000000000081526004016105a9906127ef565b60405180910390fd5b8073ffffffffffffffffffffffffffffffffffffffff16600160009054906101000a900473ffffffffffffffffffffffffffffffffffffffff1673ffffffffffffffffffffffffffffffffffffffff166003547fd728b6f1bea0a163413b81fbf7301d4a193de3b5565105255108cdec8b2acddb60405160405180910390a480600760006101000a81548173ffffffffffffffffffffffffffffffffffffffff021916908373ffffffffffffffffffffffffffffffffffffffff16021790555050565b600660009054906101000a900473ffffffffffffffffffffffffffffffffffffffff1681565b60008060028111156106b0576106af612335565b5b600160149054906101000a900460ff1660028111156106d2576106d1612335565b5b14610712576040517f08c379a000000000000000000000000000000000000000000000000000000000815260040161070990612881565b60405180910390fd5b600260009054906101000a900473ffffffffffffffffffffffffffffffffffffffff1673ffffffffffffffffffffffffffffffffffffffff16610753611cb6565b73ffffffffffffffffffffffffffffffffffffffff16146107a9576040517f08c379a00000000000000000000000000000000000000000000000000000000081526004016107a090612939565b60405180910390fd5b836003819055506003548573ffffffffffffffffffffffffffffffffffffffff166107d2611cb6565b73ffffffffffffffffffffffffffffffffffffffff167f01fcbb5289f65a5306cb0d0c6a79f53f0c1c0b245a042e3565e30c0e6104e24060405160405180910390a460018060146101000a81548160ff0219169083600281111561083957610838612335565b5b02179055507f150b7a023d4804d13e8c85fb27262cb750cf6ba9f9dd3bb30d90f482ceeb4b1f905095945050505050565b600760009054906101000a900473ffffffffffffffffffffffffffffffffffffffff1681565b600160149054906101000a900460ff1681565b60035481565b600460009054906101000a900473ffffffffffffffffffffffffffffffffffffffff1681565b600160009054906101000a900473ffffffffffffffffffffffffffffffffffffffff1681565b60006003540361093a576040517f08c379a0000000000000000000000000000000000000000000000000000000008152600401610931906125d1565b60405180910390fd5b6001600281111561094e5761094d612335565b5b600160149054906101000a900460ff1660028111156109705761096f612335565b5b146109b0576040517f08c379a00000000000000000000000000000000000000000000000000000000081526004016109a790612663565b60405180910390fd5b3073ffffffffffffffffffffffffffffffffffffffff16600260009054906101000a900473ffffffffffffffffffffffffffffffffffffffff1673ffffffffffffffffffffffffffffffffffffffff16636352211e6003546040518263ffffffff1660e01b8152600401610a2491906123d6565b602060405180830381865afa158015610a41573d6000803e3d6000fd5b505050506040513d601f19601f82011682018060405250810190610a659190612698565b73ffffffffffffffffffffffffffffffffffffffff1614610abb576040517f08c379a0000000000000000000000000000000000000000000000000000000008152600401610ab290612737565b60405180910390fd5b610ac3611cbe565b610b02576040517f08c379a0000000000000000000000000000000000000000000000000000000008152600401610af9906129cb565b60405180910390fd5b610b0b81611d1c565b50565b600060035403610b53576040517f08c379a0000000000000000000000000000000000000000000000000000000008152600401610b4a906125d1565b60405180910390fd5b60016002811115610b6757610b66612335565b5b600160149054906101000a900460ff166002811115610b8957610b88612335565b5b14610bc9576040517f08c379a0000000000000000000000000000000000000000000000000000000008152600401610bc090612663565b60405180910390fd5b3073ffffffffffffffffffffffffffffffffffffffff16600260009054906101000a900473ffffffffffffffffffffffffffffffffffffffff1673ffffffffffffffffffffffffffffffffffffffff16636352211e6003546040518263ffffffff1660e01b8152600401610c3d91906123d6565b602060405180830381865afa158015610c5a573d6000803e3d6000fd5b505050506040513d601f19601f82011682018060405250810190610c7e9190612698565b73ffffffffffffffffffffffffffffffffffffffff1614610cd4576040517f08c379a0000000000000000000000000000000000000000000000000000000008152600401610ccb90612737565b60405180910390fd5b610cdc611cbe565b610d1b576040517f08c379a0000000000000000000000000000000000000000000000000000000008152600401610d12906129cb565b60405180910390fd5b8181600073ffffffffffffffffffffffffffffffffffffffff168273ffffffffffffffffffffffffffffffffffffffff1603610d8c576040517f08c379a0000000000000000000000000000000000000000000000000000000008152600401610d8390612a5d565b60405180910390fd5b600073ffffffffffffffffffffffffffffffffffffffff168173ffffffffffffffffffffffffffffffffffffffff1603610dfb576040517f08c379a0000000000000000000000000000000000000000000000000000000008152600401610df290612a5d565b60405180910390fd5b600160009054906101000a900473ffffffffffffffffffffffffffffffffffffffff1673ffffffffffffffffffffffffffffffffffffffff16600060029054906101000a900473ffffffffffffffffffffffffffffffffffffffff1673ffffffffffffffffffffffffffffffffffffffff1614610f9357600560009054906101000a900473ffffffffffffffffffffffffffffffffffffffff1673ffffffffffffffffffffffffffffffffffffffff168273ffffffffffffffffffffffffffffffffffffffff1614610f02576040517f08c379a0000000000000000000000000000000000000000000000000000000008152600401610ef990612aef565b60405180910390fd5b600660009054906101000a900473ffffffffffffffffffffffffffffffffffffffff1673ffffffffffffffffffffffffffffffffffffffff168173ffffffffffffffffffffffffffffffffffffffff1614610f92576040517f08c379a0000000000000000000000000000000000000000000000000000000008152600401610f8990612b81565b60405180910390fd5b5b6000600460009054906101000a900473ffffffffffffffffffffffffffffffffffffffff1673ffffffffffffffffffffffffffffffffffffffff1663fcd7c1df600260009054906101000a900473ffffffffffffffffffffffffffffffffffffffff1687876040518463ffffffff1660e01b815260040161101693929190612ba1565b6020604051808303816000875af1158015611035573d6000803e3d6000fd5b505050506040513d601f19601f820116820180604052508101906110599190612698565b905061106481611e4b565b5050505050565b600260009054906101000a900473ffffffffffffffffffffffffffffffffffffffff1681565b6000600354036110d6576040517f08c379a00000000000000000000000000000000000000000000000000000000081526004016110cd906125d1565b60405180910390fd5b600160028111156110ea576110e9612335565b5b600160149054906101000a900460ff16600281111561110c5761110b612335565b5b1461114c576040517f08c379a000000000000000000000000000000000000000000000000000000000815260040161114390612663565b60405180910390fd5b3073ffffffffffffffffffffffffffffffffffffffff16600260009054906101000a900473ffffffffffffffffffffffffffffffffffffffff1673ffffffffffffffffffffffffffffffffffffffff16636352211e6003546040518263ffffffff1660e01b81526004016111c091906123d6565b602060405180830381865afa1580156111dd573d6000803e3d6000fd5b505050506040513d601f19601f820116820180604052508101906112019190612698565b73ffffffffffffffffffffffffffffffffffffffff1614611257576040517f08c379a000000000000000000000000000000000000000000000000000000000815260040161124e90612737565b60405180910390fd5b61125f611cbe565b61129e576040517f08c379a0000000000000000000000000000000000000000000000000000000008152600401611295906129cb565b60405180910390fd5b80600073ffffffffffffffffffffffffffffffffffffffff168173ffffffffffffffffffffffffffffffffffffffff160361130e576040517f08c379a000000000000000000000000000000000000000000000000000000000815260040161130590612a5d565b60405180910390fd5b600160009054906101000a900473ffffffffffffffffffffffffffffffffffffffff1673ffffffffffffffffffffffffffffffffffffffff16600060029054906101000a900473ffffffffffffffffffffffffffffffffffffffff1673ffffffffffffffffffffffffffffffffffffffff161461141657600760009054906101000a900473ffffffffffffffffffffffffffffffffffffffff1673ffffffffffffffffffffffffffffffffffffffff168173ffffffffffffffffffffffffffffffffffffffff1614611415576040517f08c379a000000000000000000000000000000000000000000000000000000000815260040161140c90612c4a565b60405180910390fd5b5b61141f82611e4b565b5050565b600060035403611468576040517f08c379a000000000000000000000000000000000000000000000000000000000815260040161145f906125d1565b60405180910390fd5b6001600281111561147c5761147b612335565b5b600160149054906101000a900460ff16600281111561149e5761149d612335565b5b146114de576040517f08c379a00000000000000000000000000000000000000000000000000000000081526004016114d590612663565b60405180910390fd5b3073ffffffffffffffffffffffffffffffffffffffff16600260009054906101000a900473ffffffffffffffffffffffffffffffffffffffff1673ffffffffffffffffffffffffffffffffffffffff16636352211e6003546040518263ffffffff1660e01b815260040161155291906123d6565b602060405180830381865afa15801561156f573d6000803e3d6000fd5b505050506040513d601f19601f820116820180604052508101906115939190612698565b73ffffffffffffffffffffffffffffffffffffffff16146115e9576040517f08c379a00000000000000000000000000000000000000000000000000000000081526004016115e090612737565b60405180910390fd5b6115f1611c57565b611630576040517f08c379a0000000000000000000000000000000000000000000000000000000008152600401611627906127ef565b60405180910390fd5b611638611cbe565b611677576040517f08c379a000000000000000000000000000000000000000000000000000000000815260040161166e906129cb565b60405180910390fd5b6116a2600260009054906101000a900473ffffffffffffffffffffffffffffffffffffffff16611e4b565b565b600560009054906101000a900473ffffffffffffffffffffffffffffffffffffffff1681565b6116d2611c57565b611711576040517f08c379a0000000000000000000000000000000000000000000000000000000008152600401611708906127ef565b60405180910390fd5b600060035403611756576040517f08c379a000000000000000000000000000000000000000000000000000000000815260040161174d906125d1565b60405180910390fd5b6001600281111561176a57611769612335565b5b600160149054906101000a900460ff16600281111561178c5761178b612335565b5b146117cc576040517f08c379a00000000000000000000000000000000000000000000000000000000081526004016117c390612663565b60405180910390fd5b3073ffffffffffffffffffffffffffffffffffffffff16600260009054906101000a900473ffffffffffffffffffffffffffffffffffffffff1673ffffffffffffffffffffffffffffffffffffffff16636352211e6003546040518263ffffffff1660e01b815260040161184091906123d6565b602060405180830381865afa15801561185d573d6000803e3d6000fd5b505050506040513d601f19601f820116820180604052508101906118819190612698565b73ffffffffffffffffffffffffffffffffffffffff16146118d7576040517f08c379a00000000000000000000000000000000000000000000000000000000081526004016118ce90612737565b60405180910390fd5b600073ffffffffffffffffffffffffffffffffffffffff168273ffffffffffffffffffffffffffffffffffffffff1603611946576040517f08c379a000000000000000000000000000000000000000000000000000000000815260040161193d90612a5d565b60405180910390fd5b600073ffffffffffffffffffffffffffffffffffffffff168173ffffffffffffffffffffffffffffffffffffffff16036119b5576040517f08c379a00000000000000000000000000000000000000000000000000000000081526004016119ac90612a5d565b60405180910390fd5b8073ffffffffffffffffffffffffffffffffffffffff168273ffffffffffffffffffffffffffffffffffffffff167f69e959981ba8324fe4ac2cc8441dfcac87573494c77536baaf7acee6c51b7b6d60405160405180910390a381600560006101000a81548173ffffffffffffffffffffffffffffffffffffffff021916908373ffffffffffffffffffffffffffffffffffffffff16021790555080600660006101000a81548173ffffffffffffffffffffffffffffffffffffffff021916908373ffffffffffffffffffffffffffffffffffffffff1602179055505050565b600060029054906101000a900473ffffffffffffffffffffffffffffffffffffffff1681565b600060019054906101000a900460ff1680611ae1575060008054906101000a900460ff16155b611b20576040517f08c379a0000000000000000000000000000000000000000000000000000000008152600401611b1790612cdc565b60405180910390fd5b60008060019054906101000a900460ff161590508015611b70576001600060016101000a81548160ff02191690831515021790555060016000806101000a81548160ff0219169083151502179055505b611b7983611f8b565b611b828461202a565b84600260006101000a81548173ffffffffffffffffffffffffffffffffffffffff021916908373ffffffffffffffffffffffffffffffffffffffff16021790555081600460006101000a81548173ffffffffffffffffffffffffffffffffffffffff021916908373ffffffffffffffffffffffffffffffffffffffff1602179055506000600160146101000a81548160ff02191690836002811115611c2a57611c29612335565b5b02179055508015611c505760008060016101000a81548160ff0219169083151502179055505b5050505050565b6000600160009054906101000a900473ffffffffffffffffffffffffffffffffffffffff1673ffffffffffffffffffffffffffffffffffffffff16611c9a611cb6565b73ffffffffffffffffffffffffffffffffffffffff1614905090565b600033905090565b60008060029054906101000a900473ffffffffffffffffffffffffffffffffffffffff1673ffffffffffffffffffffffffffffffffffffffff16611d00611cb6565b73ffffffffffffffffffffffffffffffffffffffff1614905090565b600073ffffffffffffffffffffffffffffffffffffffff168173ffffffffffffffffffffffffffffffffffffffff1603611d8b576040517f08c379a0000000000000000000000000000000000000000000000000000000008152600401611d8290612d6e565b60405180910390fd5b8073ffffffffffffffffffffffffffffffffffffffff16600060029054906101000a900473ffffffffffffffffffffffffffffffffffffffff1673ffffffffffffffffffffffffffffffffffffffff167f076c2af751a37d3871addf9a6fdedbaf3827fb030bf1d04c43a1421420fcc98760405160405180910390a380600060026101000a81548173ffffffffffffffffffffffffffffffffffffffff021916908373ffffffffffffffffffffffffffffffffffffffff16021790555050565b6002600160146101000a81548160ff02191690836002811115611e7157611e70612335565b5b02179055506003548173ffffffffffffffffffffffffffffffffffffffff16600260009054906101000a900473ffffffffffffffffffffffffffffffffffffffff1673ffffffffffffffffffffffffffffffffffffffff167fcf31cbde15ae9b0bfff5442830acd2764cad8da3394f189aa10c5a932e5b295560405160405180910390a4600260009054906101000a900473ffffffffffffffffffffffffffffffffffffffff1673ffffffffffffffffffffffffffffffffffffffff166342842e0e30836003546040518463ffffffff1660e01b8152600401611f5693929190612d8e565b600060405180830381600087803b158015611f7057600080fd5b505af1158015611f84573d6000803e3d6000fd5b5050505050565b80600060026101000a81548173ffffffffffffffffffffffffffffffffffffffff021916908373ffffffffffffffffffffffffffffffffffffffff1602179055508073ffffffffffffffffffffffffffffffffffffffff16600073ffffffffffffffffffffffffffffffffffffffff167f076c2af751a37d3871addf9a6fdedbaf3827fb030bf1d04c43a1421420fcc98760405160405180910390a350565b80600160006101000a81548173ffffffffffffffffffffffffffffffffffffffff021916908373ffffffffffffffffffffffffffffffffffffffff16021790555050565b600080fd5b600080fd5b60007fffffffff0000000000000000000000000000000000000000000000000000000082169050919050565b6120ad81612078565b81146120b857600080fd5b50565b6000813590506120ca816120a4565b92915050565b6000602082840312156120e6576120e561206e565b5b60006120f4848285016120bb565b91505092915050565b60008115159050919050565b612112816120fd565b82525050565b600060208201905061212d6000830184612109565b92915050565b600073ffffffffffffffffffffffffffffffffffffffff82169050919050565b600061215e82612133565b9050919050565b61216e81612153565b811461217957600080fd5b50565b60008135905061218b81612165565b92915050565b6000602082840312156121a7576121a661206e565b5b60006121b58482850161217c565b91505092915050565b6121c781612153565b82525050565b60006020820190506121e260008301846121be565b92915050565b6000819050919050565b6121fb816121e8565b811461220657600080fd5b50565b600081359050612218816121f2565b92915050565b600080fd5b600080fd5b600080fd5b60008083601f8401126122435761224261221e565b5b8235905067ffffffffffffffff8111156122605761225f612223565b5b60208301915083600182028301111561227c5761227b612228565b5b9250929050565b60008060008060006080868803121561229f5761229e61206e565b5b60006122ad8882890161217c565b95505060206122be8882890161217c565b94505060406122cf88828901612209565b935050606086013567ffffffffffffffff8111156122f0576122ef612073565b5b6122fc8882890161222d565b92509250509295509295909350565b61231481612078565b82525050565b600060208201905061232f600083018461230b565b92915050565b7f4e487b7100000000000000000000000000000000000000000000000000000000600052602160045260246000fd5b6003811061237557612374612335565b5b50565b600081905061238682612364565b919050565b600061239682612378565b9050919050565b6123a68161238b565b82525050565b60006020820190506123c1600083018461239d565b92915050565b6123d0816121e8565b82525050565b60006020820190506123eb60008301846123c7565b92915050565b6000819050919050565b600061241661241161240c84612133565b6123f1565b612133565b9050919050565b6000612428826123fb565b9050919050565b600061243a8261241d565b9050919050565b61244a8161242f565b82525050565b60006020820190506124656000830184612441565b92915050565b600080604083850312156124825761248161206e565b5b60006124908582860161217c565b92505060206124a18582860161217c565b9150509250929050565b60006124b68261241d565b9050919050565b6124c6816124ab565b82525050565b60006020820190506124e160008301846124bd565b92915050565b600080600080608085870312156125015761250061206e565b5b600061250f8782880161217c565b94505060206125208782880161217c565b93505060406125318782880161217c565b92505060606125428782880161217c565b91505092959194509250565b600082825260208201905092915050565b7f5469746c65457363726f773a20436f6e7472616374206973206e6f7420686f6c60008201527f64696e67206120746f6b656e0000000000000000000000000000000000000000602082015250565b60006125bb602c8361254e565b91506125c68261255f565b604082019050919050565b600060208201905081810360008301526125ea816125ae565b9050919050565b7f5469746c65457363726f773a20436f6e7472616374206973206e6f7420696e2060008201527f7573650000000000000000000000000000000000000000000000000000000000602082015250565b600061264d60238361254e565b9150612658826125f1565b604082019050919050565b6000602082019050818103600083015261267c81612640565b9050919050565b60008151905061269281612165565b92915050565b6000602082840312156126ae576126ad61206e565b5b60006126bc84828501612683565b91505092915050565b7f5469746c65457363726f773a20436f6e7472616374206973206e6f742074686560008201527f206f776e6572206f6620746f6b656e0000000000000000000000000000000000602082015250565b6000612721602f8361254e565b915061272c826126c5565b604082019050919050565b6000602082019050818103600083015261275081612714565b9050919050565b7f4861734e616d656442656e65666963696172793a206f6e6c792074686520626560008201527f6e6566696369617279206d617920696e766f6b6520746869732066756e63746960208201527f6f6e000000000000000000000000000000000000000000000000000000000000604082015250565b60006127d960428361254e565b91506127e482612757565b606082019050919050565b60006020820190508181036000830152612808816127cc565b9050919050565b7f5469746c65457363726f773a20436f6e747261637420686173206265656e207560008201527f736564206265666f726500000000000000000000000000000000000000000000602082015250565b600061286b602a8361254e565b91506128768261280f565b604082019050919050565b6000602082019050818103600083015261289a8161285e565b9050919050565b7f5469746c65457363726f773a204f6e6c7920746f6b656e732066726f6d20707260008201527f65646566696e656420746f6b656e2072656769737472792063616e206265206160208201527f6363657074656400000000000000000000000000000000000000000000000000604082015250565b600061292360478361254e565b915061292e826128a1565b606082019050919050565b6000602082019050818103600083015261295281612916565b9050919050565b7f486173486f6c6465723a206f6e6c792074686520686f6c646572206d6179206960008201527f6e766f6b6520746869732066756e6374696f6e00000000000000000000000000602082015250565b60006129b560338361254e565b91506129c082612959565b604082019050919050565b600060208201905081810360008301526129e4816129a8565b9050919050565b7f5469746c65457363726f773a205472616e7366657272696e6720746f2030783060008201527f206973206e6f7420616c6c6f7765640000000000000000000000000000000000602082015250565b6000612a47602f8361254e565b9150612a52826129eb565b604082019050919050565b60006020820190508181036000830152612a7681612a3a565b9050919050565b7f5469746c65457363726f773a2042656e656669636961727920686173206e6f7460008201527f206265656e20656e646f727365642062792062656e6566696369617279000000602082015250565b6000612ad9603d8361254e565b9150612ae482612a7d565b604082019050919050565b60006020820190508181036000830152612b0881612acc565b9050919050565b7f5469746c65457363726f773a20486f6c64657220686173206e6f74206265656e60008201527f20656e646f727365642062792062656e65666963696172790000000000000000602082015250565b6000612b6b60388361254e565b9150612b7682612b0f565b604082019050919050565b60006020820190508181036000830152612b9a81612b5e565b9050919050565b6000606082019050612bb660008301866121be565b612bc360208301856121be565b612bd060408301846121be565b949350505050565b7f5469746c65457363726f773a204e6577206f776e657220686173206e6f74206260008201527f65656e20617070726f7665642062792062656e65666963696172790000000000602082015250565b6000612c34603b8361254e565b9150612c3f82612bd8565b604082019050919050565b60006020820190508181036000830152612c6381612c27565b9050919050565b7f496e697469616c697a61626c653a20636f6e747261637420697320616c72656160008201527f647920696e697469616c697a6564000000000000000000000000000000000000602082015250565b6000612cc6602e8361254e565b9150612cd182612c6a565b604082019050919050565b60006020820190508181036000830152612cf581612cb9565b9050919050565b7f486173486f6c6465723a206e657720686f6c64657220697320746865207a657260008201527f6f20616464726573730000000000000000000000000000000000000000000000602082015250565b6000612d5860298361254e565b9150612d6382612cfc565b604082019050919050565b60006020820190508181036000830152612d8781612d4b565b9050919050565b6000606082019050612da360008301866121be565b612db060208301856121be565b612dbd60408301846123c7565b94935050505056fea264697066735822122048e1ac37c5331b6dac67c572658de2cb75c18c1ceedd5e0a32acc57c725636b764736f6c63430008110033",
  "linkReferences": {},
  "deployedLinkReferences": {}
}